:020000040800F2
:1040000004030020B5CC00088D4100087D41000864
:104010008141000885410008894100080000000036
:1040200000000000000000000000000091410008B6
:104030009541000800000000994100089D410008DA
:10404000FDCC0008FDCC0008FDCC0008FDCC00082C
:10405000FDCC0008FDCC0008FDCC0008FDCC00081C
:10406000FDCC0008FDCC0008FDCC0008FDCC00080C
:10407000FDCC0008FDCC0008FDCC0008FDCC0008FC
:10408000FDCC0008FDCC0008FDCC0008FDCC0008EC
:10409000FDCC0008FDCC0008FDCC0008FDCC0008DC
:1040A000FDCC0008A9410008FDCC0008FDCC0008AB
:1040B000FDCC0008FDCC0008FDCC0008FDCC0008BC
:1040C000FDCC0008FDCC0008FDCC0008FDCC0008AC
:1040D000FDCC0008FDCC0008FDCC0008FDCC00089C
:1040E000FDCC0008FDCC0008FDCC0008000000005D
:1040F00000000000000000000000000000000000C0
:1041000000000000000000005FF808F130B40B4B25
:10411000054618682C4644F8040B988800222B4664
:1041200013F8011B0A44A34292B2F9D1904202D083
:1041300000232B806B8030BC704700BF00BC01089F
:1041400038B50546044608F02FFB0A4808F06CFB1A
:1041500055F8041B074808F089FB002114F8013BBF
:104160001944AC4289B2F9D10348BDE8384008F09F
:10417000ADBB00BF00BC010804BC0108FEE700BFE6
:10418000FEE700BFFEE700BFFEE700BF704700BFCD
:10419000704700BF704700BF704700BF014801F083
:1041A000BFBC00BF14030020604B2DE9F0031A8A46
:1041B000D20702D4BDE8F00370475D4A5D49147927
:1041C0004FF480504FF6FE751D8208614861002C47
:1041D0004BD1538858481C1244F4805401218481E7
:1041E000117100BF00BF00BF00BF00BF00BF00BF14
:1041F00000BF51491B029BB24E4C8B8100F55040D1
:104200004E49A668806891F841404D4B10F4805F9C
:104210000CBF0227002791F84000002C196B0CBF3F
:104220000025022586F400665C6B2843C6F3C02691
:104230004D1C3E4304EB4404032D46EA000603EB09
:10424000C40405D95F6BCD1E013707F001075F631A
:104250001D633C4BF7071D7805F001051CD4002DAC
:1042600052D04FF0040CE1461AE0138832481C1279
:1042700044F4105400218481117100BF00BF00BFBD
:1042800000BF00BF00BF00BF00BF2B4A1B029BB294
:104290009381BDE8F003704795BB4FF0030CE146F6
:1042A00004EB4107B7F808805D78B60783F8009003
:1042B000A2F8008005F0010529D475B304252E4627
:1042C0004FF0400810F0010F0CBF4FF000094FF005
:1042D000080910F0020F48EA0C0C0CBF4FF0000860
:1042E0004FF008083F8A4CEA090C601848EA0505B7
:1042F00004F801C05E7005715780BDE8F003704797
:104300004FF0010CE146CBE7AC46A946C8E73DB10A
:1043100001252E464FF01008D4E7A8462E46D1E7D7
:1043200003252E464FF03008CCE700BF002C01409B
:104330000C030020000C0140003800401403002052
:10434000B8040020F80400202DE9F04782462748F1
:10435000894602F0CDFD264FDFF89080254D4FEACB
:104360004906002498F890315BB3A919A94205D0F9
:10437000204A002322F8023B9142FAD12B8808EB15
:104380000402A2F87631B9F1000F13D01A4A0AEBF1
:10439000840CA05E00221BB2C3F5FF437F330CEBFD
:1043A00002010344023283F31003B2420B8101D0B5
:1043B000AB5AF0E70234042C07F63827D2D1BDE817
:1043C000F087BB690AEB4401DA0709D55B10FA589C
:1043D000F8187B6952F803C0064A4B46E047CDE720
:1043E00007EB6300D7F814C0F6E700BF1403002002
:1043F000FC04002004030020B40400202DE9F04157
:10440000164F012240F2ED21384602F0E7FF144B2F
:10441000002414481C60144D02F0BCFE134B4FF0F6
:104420000108134E13485C631C63C3F8388002F024
:1044300063FE2846FFF76AFE2146304601F0D8F9B0
:1044400006F63820414601F0D3F929460A4802F021
:10445000DDF83846BDE8F04103F010B8B0040020A4
:104460006C190020F4040020B4040020B8040020DB
:10447000FC0400200C0300201403002008B5FFF703
:10448000BDFF0D4C0D4802F05FFDA26B636B9A42BD
:10449000F8D0A06B042100EB400004EBC000FFF754
:1044A00053FFA36B013303F00103A363A26B636BA0
:1044B0009A42EED1E6E700BFB804002014030020C2
:1044C000012A2DE9F00131D0B1F80480B1F800C023
:1044D0004F88CE880023022101224FEA6808032476
:1044E00047F6FF75A0F82880A0F834C0C786068775
:1044F000A0F85C40A0F85E1080F8441083844385E7
:10450000A0F86230A0F86030C58480F8452080F8BB
:104510004620B0F94C30A34205DD0023A0F84C3012
:104520004365A0F85030BDE8F00170470E884D8813
:104530000023022447F6FF718686C58680F8452051
:10454000A0F85C4080F84440A0F85E308384038586
:10455000A0F86230A0F86030C184DAE7012A30B4F4
:1045600030D0CB884C88C3F57F43FF3303FB03F582
:1045700004FB04F48A882D0C098802FB02F203FB79
:1045800005F3240CA1F5004104FB04F409B2C1EBCE
:10459000C101920C9B0C091202EB4202240E012570
:1045A000C3F5FF4301F5786102F50072C0F8B4412C
:1045B00080F8AC51C0F8CC11A0F8B031C0F8D021CF
:1045C00030BC70474B880988C3F57F43FF3303FB3A
:1045D00003F4491001F50051240C01FB01F103FB28
:1045E00004F3890C01EB41019B0C4FF47865232403
:1045F00001F50071C3F5FF43C0F8CC51C0F8B441D8
:10460000C0F8D01180F8AC21A0F8B03130BC7047B0
:10461000012A30B40B8831D0C3F5FF437F339B119F
:1046200090F89422C3F552539BB22ABBB0F896522D
:104630005D1B18BF0125A0F896320A8840F6FF746A
:10464000A0F8E822A0F8EA224B8880F89452A0F85B
:10465000EC32A0F8EE328A88DB12A0F8E022CA8899
:1046600003F6E173B3F5805F08BF2346C0F8B832A4
:10467000A0F8E22230BC70470125DCE7C3F5FF4318
:104680007F339B1190F89442C3F552539BB2D4B13F
:10469000A0F896320B8840F6FF74A0F8E832A0F834
:1046A000EA324B8880F89422DA1202F6E172B2F50F
:1046B000805F08BF2246A0F8EC32A0F8EE32C0F8C6
:1046C000B82230BC7047B0F896229A1A18BF01225F
:1046D000DEE700BF012A10B413D04B880C88A0F885
:1046E0007033CA888B889213E10102F6FC725B106A
:1046F000C0F86813C0F85823C0F874335DF8044B51
:10470000704747F6FF73A0F870334B880A889913F7
:10471000064B01F6FC715210C0F85813C0F8742310
:10472000C0F868335DF8044B704700BF80FF3F005E
:10473000012A0FD00B88A0F8BC334B885B10A0F87F
:10474000BE338B885B10A0F8C033CB885B13A0F816
:10475000C23370470023A0F8BC330B885B10A0F86D
:10476000BE330B885B1003F50063A0F8C0334B88A1
:104770005B13A0F8C2337047084B10B440F6FF71CA
:1047800028240022C0F81445C0F81C35C0F81815BC
:10479000C0F820255DF8044B704700BF00C0FF3F04
:1047A000F0B4002B40D0D0F814C5D0F820750B44DD
:1047B00013E0B542C0F8285530DDD0F81855241361
:1047C000644205FB04F4994247F6FF75C0F828657A
:1047D000C0F8244522F8025B26D011F8015BD0F81E
:1047E0002465AD073C464EBFD0F81C553446D0F882
:1047F0002855CCEB040448BFC0F8285565190B4E6A
:10480000C0F82445D5D5D0F818552413644205FBCB
:1048100004F40025C0F82445C0F82855C5F3CF3569
:10482000994222F8025BD8D1F0BC70470080FF3F6C
:10483000012A70B4264A0C884B8826D02512961C73
:10484000C3F57F4332F8152036F81550FF33AD1A03
:10485000E4B203FB03F304FB05F4CD881B0D898848
:10486000A5F5004502EB2422C3F57F632DB22D018F
:1048700092B20F338903C0F82055C0F81425C0F850
:104880001835C0F81C1570BC70472112951CC3F573
:104890007F4332F8112035F81110FF33891A03FBDA
:1048A00003F3E4B204FB01F41B0D02EB2422094DD7
:1048B000C3F57F630F3392B20021C0F81C55C0F8D6
:1048C0001835C0F81425C0F8201570BC704700BF1B
:1048D000E486010800C0FF3F10B400F22E5200F23F
:1048E0003654002322F8023B9442FAD1042280F885
:1048F0002D3580F8363580F82C255DF8044B70474F
:1049000070B463B30B4411F8016B90F82D45B507F3
:104910000BD5013490F83655E4B280F82D4525B119
:10492000002480F8364580F82D4590F82C55022D4E
:1049300004D9B60644BF012680F83665A5429CBF5F
:10494000002480F82D4500EB4404B4F92E4599422B
:1049500004EB840444F3CF0422F8024BD3D170BC9F
:10496000704700BF0B88012AA3F50043B0F82E253D
:104970009BB225D0934218BFA0F82E354B88B0F8D3
:104980003025A3F500439BB2934218BFA0F8303501
:104990008B88B0F83225A3F500439BB2934218BF31
:1049A000A0F83235CB88B0F83425A3F500439BB28C
:1049B000934218BFA0F83435042380F82C35704793
:1049C000934218BFA0F82E354B88B0F83025A3F5D8
:1049D00000439BB2934218BFA0F83035022380F801
:1049E0002C3570470B88012A4FEA930210B4A2F5C8
:1049F000C044A0F838451FD01C044ABF5A1002F525
:104A0000C04202F5804292B2A0F83A254B885DF888
:104A1000044BA0F83C35CB888A8803EB4301C3EBF9
:104A20004133D2101B0C02F5807203F50053C0F81D
:104A30004425C0F8403570471C044ABF5A1002F59F
:104A4000C04202F5804292B2A0F83A2549884FF45C
:104A5000885244F6FF73A0F83C15C0F84425C0F80E
:104A600040355DF8044B70470B88012AA0F8B43537
:104A70004B88A0F8B6351FBF8B88A0F8B835CB8817
:104A8000A0F8BA35704700BF012A2DE9F0013DD0EA
:104A9000B1F804800E88B1F802C0CF88002302224A
:104AA00047F6FF7401214FEA68080425A0F8CC8579
:104AB000A0F8D865A0F8DAC5A0F8DC65A0F8DE7526
:104AC000A0F80056A0F8022680F8E82580F8EA252C
:104AD000A0F8C835A0F8D035A0F80636A0F80436FE
:104AE000A0F8CA45A0F8CE4580F8E91580F8EB1586
:104AF000B0F9F035AB4206DD0023A0F8F035C0F880
:104B0000F835A0F8F435BDE8F00170470C88498805
:104B10000023022547F6FF72A0F8D845A0F8DA1561
:104B2000A0F80056A0F80236A0F8C835A0F8CC3599
:104B300080F8E83580F8E935A0F80636A0F80436A4
:104B4000A0F8CA25D4E700BF012AF0B434D0B1F8E8
:104B500004C00F884E88CD880023022203214FEA2B
:104B60006C0C47F6FF74A0F810C6A0F81C76A0F8ED
:104B70001E66A0F82056A0F84416A0F84A16A0F821
:104B80004636A0F80C36A0F81236A0F84836A0F841
:104B90000E4680F82C2680F82D2680F82E26B0F9B7
:104BA00034368B4206DD0023A0F83436C0F83C369C
:104BB000A0F83836F0BC70470D884C8800230221DD
:104BC00047F6FF72A0F81C56A0F81E46A0F844163F
:104BD00080F82C1680F82D16A0F84A16A0F8463654
:104BE000A0F80C36A0F81036A0F84836A0F80E262B
:104BF000D5E700BF012A2DE9F00137D0B1F80480D4
:104C0000B1F800C04F88CE88002302224FEA68081E
:104C1000032147F6FF750124A0F85486A0F860C66A
:104C2000A0F86276A0F86466A0F88816A0F88A3624
:104C3000A0F85036A0F85636A0F88C36A0F8525698
:104C400080F8702680F87126A0F88E2680F87246CB
:104C5000B0F978368B4206DD0023A0F87836C0F82C
:104C60008036A0F87C36BDE8F00170470D884C888E
:104C70000023022147F6FF72A0F86056A0F86246B2
:104C8000A0F8881680F8701680F87116A0F88E16B5
:104C9000A0F88A36A0F85036A0F85436A0F88C3622
:104CA000A0F85226D4E700BF012AF0B43AD00D880C
:104CB0004C88B1F804C0CF880023022147F6FF7268
:104CC0000126A0F8B456A0F8F6C6A0F8F876A0F829
:104CD000B646A0F8C456A0F8C646A0F8EC1680F870
:104CE000D416A0F8EE36A0F8A436A0F8A836A0F89E
:104CF0009436A0F89836A0F8F236A0F8F036A0F86E
:104D0000A626A0F8962680F8D566B0F9DC36022BE8
:104D100006DD0023A0F8DC36C0F8E436A0F8E03663
:104D2000F0BC70470E884D880023022447F6FF71BF
:104D3000A0F8B466A0F8B656A0F8C466A0F8C656A7
:104D400080F8D526A0F8EC4680F8D446A0F8EE36D8
:104D5000A0F8A436A0F8A836A0F89436A0F89836A3
:104D6000A0F8F036A0F8F236A0F8A616A0F896162D
:104D7000CBE700BF0023A0F86837A0F86A37012A04
:104D800030B44B882ED0C3F57F43FF3303FB03F4CD
:104D9000240C03FB04F30A889B0CC3F5FF43A0F823
:104DA0003C37531003F500534A8803FB03F3A0F884
:104DB0006C278A889B0CA0F86427CD8803EB4303FB
:104DC0004FF4786403F5007323210122A0F866579D
:104DD000C0F85847C0F85C37C0F8401780F838274B
:104DE00030BC7047C3F57F43FF3303FB03F50C88EA
:104DF0002D0C03FB05F3641004F5005404FB04F4CC
:104E00009B0CC3F5FF43A0F83C37A30C4D8803EB84
:104E100043034FF4786403F500732321A0F86C5723
:104E2000C0F85847C0F85C3780F83827C0F84017FA
:104E300030BC7047104970B40B68104C104A012503
:104E400004FB03220826002302EA0504A0F84068B8
:104E5000A0F8445880F84C480A60C0F84828A0F8E8
:104E60004238A0F8463880F84D38A0F8543880F819
:104E7000563870BC704700BF000100200D66190055
:104E80005FF36E3C2DE9F001002B78D00B446CE011
:104E900090F85648B0F844580134E4B2A54280F87E
:104EA000564866D8D0F84868B0F8404806F0010780
:104EB00000251F2C80F84C7880F8565805D826FA23
:104EC00004F505F0010580F84D587608C0F84868EB
:104ED000651E002F64D0012707FA05F52E43C0F8A0
:104EE00048681F2C4ED890F84D78002F65D046F0BA
:104EF000004626FA04FC06F001070CF0010C7608C7
:104F000080F84DC880F84C78C0F84868002F42D02F
:104F10003543C0F848581F2C07D890F84D48002C4E
:104F200046D045F00045C0F84858254EDFF8988037
:104F30003768244C08FB07F8B0F842C84444BCEB7F
:104F4000144F3460B0F8464884BF85F00105C0F8BE
:104F50004858A412EDB205FB04F49942C0F8505829
:104F6000A0F8544822F8024B09D011F8014BA407CD
:104F70008ED4B0F85448994222F8024BF5D1BDE8DE
:104F8000F001704706F00107760880F84C78C0F809
:104F90004868002FBCD126EA0505C0F84858BAE792
:104FA000012707FA05F526EA0506C0F8486898E7DC
:104FB00025F00045C0F84858B7E726F0004698E7C6
:104FC000000100205FF36E3C0D66190010B400F67E
:104FD0005A0200F66A04002322F8023B9442FAD1F6
:104FE000082280F8593880F86A3880F858285DF827
:104FF000044B704770B443B30B4411F8016B90F845
:105000005948B5070BD5013490F86A58E4B280F8D6
:10501000594825B1002480F86A4880F8594890F82A
:105020005858042D04D9B60644BF012680F86A6892
:10503000A5429CBF002480F8594800EB4404B4F812
:105040005A48994222F8024BD7D170BC704700BF32
:10505000012A0B882AD0A3F50043A0F85A384B88C0
:105060000822A3F50043A0F85C388B88A3F5004321
:10507000A0F85E38CB88A3F50043A0F860380B8811
:10508000C3F50043A0F862384B88C3F50043A0F88D
:1050900064388B88C3F50043A0F86638CB8880F865
:1050A0005828C3F50043A0F868387047A3F50043BB
:1050B000A0F85A384B880422A3F50043A0F85C38C6
:1050C0000B88C3F50043A0F85E384B8880F8582859
:1050D000C3F50043A0F86038704700BF70B5012ADF
:1050E00000F6141604460D463046098810D005F027
:1050F00089FC3046698805F073FCAB8847F6FF727F
:10510000A4F82439EB88C4F82029A4F8263970BD06
:1051100005F078FC3046698805F062FC47F6FF73BD
:10512000C4F8203970BD00BF00F6141005F086BC2D
:1051300000F6141005F022BC38B50B880446A4F81C
:10514000C038012A0D4600F50C6049881FD005F0D3
:1051500017FBAB8847F6FF71A4F8D038EB88002224
:10516000C4F8CC181904C4F8C82808D4C3F5FF4300
:105170007F335B00A4F8D238A4F8D42838BD5B0094
:1051800043F6FF72A4F8D238A4F8D42838BD05F04D
:10519000F7FA002247F6FF73C4F8C828C4F8CC38E1
:1051A00038BD00BF00F50C6005F07EBB00F50C605B
:1051B00005F0D6BA012A38B504460D4600F66C0053
:1051C00021D00A8847F6FF73A4F86C284988C4F8F0
:1051D000783805F0BDF9AB88A4F88438EB881A0458
:1051E00009D4C3F5FF437F335B000022A4F886385F
:1051F000A4F8882838BD5B0043F6FF72A4F886380F
:10520000A4F8882838BD0B88A4F86C38498805F0C4
:105210009FF9002247F6FF73C4F87428C4F8783861
:1052200038BD00BF00F66C0005F028BA00F66C002F
:1052300005F07EB900F2747003F050BF00F2747094
:1052400003F0E6BE00F2FC6002F0F6BA00F2FC6089
:1052500002F0B8BA00F2946006F06EB800F2946002
:1052600006F03CB800F20C6005F07EBF00F20C6066
:1052700005F06ABE00F5CA6005F08ABE00F5CA6096
:1052800005F04CBF00F5B96005F0A4BD00F5B960AC
:1052900005F076BD00F2B45006F050B900F2B450FB
:1052A00006F042B900F5A76006F0B2BA00F5A760B3
:1052B00006F08CBA00F5996006F07EBE00F59960A4
:1052C00006F062BE00F56F7006F05CBF00F56F700F
:1052D00006F044BF012A0B4649D00A88B2F5804F38
:1052E00032D9B2F5004F9ABF1111C1F5006100210A
:1052F000A0F8961302EBC202920902F54062A0F8F0
:1053000098235A88921002EB4202C2F38D02A0F851
:105310009A239A885110921002F5005201F58041AB
:10532000A0F89E23A0F89C13DB881A0411D4C3F5BF
:10533000FF437F3303FB03F30022C3F38F33A0F853
:10534000A023A0F8A23370474FF48061A0F8961311
:10535000D0E7A3F5004303FB03F3C3F34D4303EB93
:105360008303A0F8A0330023A0F8A233704700F510
:10537000657009885A8802F027BF00BF00F5657084
:1053800002F0CEBF00F5657002F016BF00F53D706B
:1053900002F044BC00F53D7002F018BC00F5257029
:1053A00003F004B900F5257003F0EAB800F5EC70DD
:1053B00003F034BB00F5EC7003F0D8BA00F5B87018
:1053C00002F0ACB800F5B87002F072B8012A10B55E
:1053D00090F8783004462BD0B3B90B884FF4A04234
:1053E000A0F8683088884B88A0F50040A4F86C00CD
:1053F000C98803EB8303A1F5004109041B1421674D
:1054000084F86A30626710BD8A884B88A2F5004232
:105410000888A4F86C20CA8803EB8303A2F5004235
:10542000411012041B146167226784F86A3010BDB2
:1054300083B10B884A8803EB83031B14A2F5004257
:1054400080F86A30A0F86C2000224FF4A043226755
:10545000636710BD0B8820F8683F498804F08AFF15
:10546000F2E700BF683004F097BF00BF683004F077
:1054700055BF00BF243005F0C9BB00BF243005F084
:105480009FBB00BF012A0B8831D0B3F5784F2CBFEA
:105490004FF6FF73DB10A0F842384B8842F291427E
:1054A000A0F846388B88934218D944F623129342C9
:1054B0002DD946F6B552934225D949F24822934256
:1054C00029D94BF2E562934229D94DF66C329342C9
:1054D00094BF1C232023A0F8403802E00823A0F842
:1054E0004038CB885B130133A0F844387047B3F5DC
:1054F000784F2CBF4FF6FF73DB10A0F842384B8873
:10550000A0F8463870471023A0F84038E9E70C238C
:10551000A0F84038E5E71423A0F84038E1E7182365
:10552000A0F84038DDE700BF012A0DD00B88A0F8B5
:10553000CA344B88A0F8C8348B885B10A0F8CC34F0
:10554000CB88A0F8CE3470474FF6FF73A0F8CA346A
:105550000B880022A0F8C8344B88A0F8CE245B103A
:10556000A0F8CC34704700BF012A70B453D00B8828
:1055700090F86822A3F500431BB2C3EBC303C3F347
:105580000F2303F5D05503F5005403F54853A0F855
:105590002A52A0F84A429BB2002A3AD1B0F86A5285
:1055A0005D1B18BF0125A0F86A328C884B886408FF
:1055B000B4F5E04F38BF04F500744FEAA303C3F518
:1055C000AB4234BFA4B24FF4E4447032A0F890422E
:1055D00003F5AB43C0F88822CA887033C0F88C3218
:1055E0005309941303F5E24203F5CF43012104F676
:1055F000FC744832043380F86852C0F81842A0F8AE
:105600002C22A0F84C3280F8281280F8481270BC86
:1056100070470125C7E790F868324FF4D0554FF432
:105620000054A0F82A52A0F84A422BB9B0F96A22D5
:10563000B2F5485218BF01224FF4485547F248547A
:1056400046F68433A0F82C42A0F86A52A0F84C32F7
:105650004D880B886D08B5F5E04F4FEAA30338BFBE
:1056600005F50075C3F5AB4103F5AB434FF00104FD
:1056700040F6FE7634BFADB24FF4E445703170337E
:1056800080F8284280F84842C0F81862A0F890528A
:1056900080F86822C0F88812C0F88C3270BC70475D
:1056A000012A70B40B8855D0A3F500431BB2C3EB9D
:1056B000C303C3F30F2390F8042803F5D05503F573
:1056C000005403F54853A0F8C657A0F8E6479BB22C
:1056D000002A3DD1B0F806585D1B18BF0125A0F87F
:1056E00006380B8843F2F054A3F500439BB2A0F8B0
:1056F0003838A0F83A384B8847F2F0525B08B3F5D7
:10570000E04F3ABF03F500739BB24FF4E443C0F897
:105710002448C0F8282847F2485446F68432A0F8B6
:105720002C38A0F8C847A0F8E8278A880123A0F8F9
:105730002E28C98840F6FE7280F80458A0F8301868
:1057400080F8C43780F8E437C0F8B42770BC7047DD
:105750000125C4E7A3F500431BB2C3EBC303C3F3A6
:105760000F2390F8044803F5D05603F5005503F5D0
:105770004853A0F8C667A0F8E6579BB224B9B0F822
:1057800006289A1A18BF0122A0F806380B8847F29B
:105790004855A3F500439BB246F68434A0F8383848
:1057A000A0F83A38A0F8C857A0F8E847498801237C
:1057B000D940B1F5E04F38BF01F5007140F6FE76F3
:1057C00043F2F05547F2F05434BF89B24FF4E4414C
:1057D000C0F8B467C0F82458C0F8284880F80428F6
:1057E00080F8C43780F8E437A0F82C1870BC7047F4
:1057F000F8B57E4E05460F46002407E0E35805EB5A
:10580000600018349847B4F5227F0ED033195868D9
:10581000764BC207F2D54010E3582A581834284472
:10582000D3589847B4F5227FF0D105F5B87001F050
:105830003FFE7C1E674205F5EC70674103F096F869
:1058400005F5257002F09CFE05F53D7085F8F072B7
:1058500002F0BCF905F5657002F0AEFC644840F654
:10586000FF7200232821C5F81825C5F82035C5F892
:105870001415C5F81C0585F8947305F1680004F04B
:105880004DFD05F1240005F09BF905F56F7006F05C
:1058900065FC05F5996006F077FB05F22E5305F2DD
:1058A0003652002423F8024B9A42FAD1042385F899
:1058B0002C3505F5A76085F82D4585F8364505F0AA
:1058C00085FF85F8707505F2B45005F02DFE494A44
:1058D00049481168494B00FB01F10B4403F00107F3
:1058E00001210820A5F84418C5F84838A5F8400853
:1058F000A5F8424805F5B960A5F8464885F84D4831
:10590000A5F8544885F8564885F84C78136005F09A
:1059100037FA05F20C6005F017FB05F5CA6005F0D3
:10592000FDFB05F2946005F0D9FC05F2FC6001F086
:1059300049FF05F2747003F06BFB05F65A0205F699
:105940006A01002322F8023B91421C46F9D1082249
:1059500085F8593885F86A3885F8582805F66C00B6
:1059600004F0E6FD214F05F50C6004F0F9FE05F1A9
:105970000C0605F6141005F001F80FCF2C706C70B2
:1059800085F8784085F89A4885F8E64885F83449DE
:105990000FC697E8030086E803002869C10717D4FB
:1059A000EB6805EB600098472B6ADA0719D55B10A6
:1059B000E958EA69E8188E58AC1C214615F80A2BFC
:1059C000B0474FF4004324F8023BA542F9D1F8BD9B
:1059D00040102A58EB682844D35898472B6ADA07B6
:1059E000E5D405EB6300EE69E6E700BF60CE000892
:1059F00000C0FF3F000100200D6619005FF36E3C00
:105A00002DE9F047064696F8611190F8600196F886
:105A10006231082286F8641186F8630186F86531E0
:105A200006F5BE711AB106F5B37007F069F9B6F85C
:105A30007491344C09EB89094FEA8909324A4C4484
:105A40000023944286F86F3186F8703186F8713100
:105A500086F8723106F2631536D9A6F8743106F06D
:105A6000A3FE2A4C204606F0DFFE294B04F5806495
:105A70009C42F7D1274FDFF8A480DFF890A054466E
:105A8000C4EB05090AF1100A204659F80410043441
:105A900006F0ECFE5445F7D106F27312002115F81A
:105AA000013B1944954289B2F9D1384606F00EFF00
:105AB0004046B6F8741106F009FFB6F874310133A8
:105AC000A6F87431BDE8F08706F06EFE124B24F4A0
:105AD0007F704B4423F47F7320F0030023F0030313
:105AE00009F1006A83420AF5E03ADFF83080094F95
:105AF00004D006F099FEC8444F44C0E7C8444F4460
:105B0000BDE700BF14C00108FFFF010800C0010885
:105B10000000020810C00108FFBF010812C0010800
:105B20002DE9F04FDFF8109300F5AA78D9F800308E
:105B30000446013383B04046C9F8003001F01CFC34
:105B40002646002518F8017B802F30D0002F4AD13F
:105B5000336B1BB1EAB2012A40F2B2800135042D49
:105B600006F10406EED194F89031002B40F09680B7
:105B700094F86031D9F80020022BC2F3C212AE496A
:105B80004FD0032B40F0CF80012A02D0D61E7242A4
:105B90007241D9F8001084F85121CD0540F1CE8032
:105BA00094F86221032A68D894F861114BE0D4F884
:105BB0004C3104F14801581C01EBC30200274FF09F
:105BC000040E00F01F0001F833E055805760C4F860
:105BD0004C01D9F80030D9F800206364326318F81A
:105BE000017C002FB4D07F2FB8D1336B002BB5D000
:105BF000D9F80010D4F84C21013104F14800571CA9
:105C0000CB1A4FF0040E00EBC20107F01F0700F89B
:105C100032E04B604D80C4F84C71D9F800306364B9
:105C20009CE7571E7A4209687A4184F85121CA05D7
:105C300040F1898094F8611103291FD8032B0CBF10
:105C400094F862210A46043A132A00F2B381DFE88D
:105C500012F0970193017F01830187018F01830176
:105C600077017B018B0193018F0173018B01870108
:105C70009B017F017B0177017301114604391329D0
:105C800000F24F81DFE801F0969696969663636383
:105C90006363A2A2A2A2A2A29C9C9C9C00230F21AF
:105CA000012284F8501184F8512184F8523184F88B
:105CB000533104F5A87001F0F3FA03B0BDE8F08F9A
:105CC000D9F800005C49C31AB3F5167F7FF746AFD9
:105CD000C2F10102D2B2224492F854216AB994F876
:105CE0007B3167630133DBB2032B276384F87B319D
:105CF00000F0A88018F8017C75E7D4F84C2104F175
:105D0000480E02F1010C0EEBC2004FF0040A0CF039
:105D10001F0C0EF832A043604580C4F84CC10B68DC
:105D200063643763E6E70A6803F00101D00584F88D
:105D300051113FF57FAF94F861117FE794F861113D
:105D400094F862217FE794F861110A467BE7022309
:105D500094F8611184F850312346002201AD0139D5
:105D6000C9B2162938D8012000FA01F13348084099
:105D700000283CD147F60370084000284FD1890322
:105D80002AD5B3F876114911A95402335AB32C4BD2
:105D90005A780B2A33D09DF804209DF8053084F8FA
:105DA000522184F8533104F5A87001F079FA03B058
:105DB000BDE8F08F012384F8503194F86111CBE7EE
:105DC000082384F8503194F86111C5E7042394F84E
:105DD000611184F85031BFE7B3F976110233C9116C
:105DE000A954002AD3D194F862110122B7E7B3F97C
:105DF00076110029B8BF49420912A954C5E793F8A2
:105E0000801F93F848254A4084F8502193F8712563
:105E100093F8A93F52425B42D2B2DBB2BFE7B3F97B
:105E2000761140F2991000FB01F1091201F50041D1
:105E3000A1F30821A954A8E76C1900200400580018
:105E4000FC040020DFF888A1DFF88CC10AF10C0EF9
:105E5000BCE80F00AEE80F009CE80300DAF8103051
:105E60000B228AF80120DA0784F87B718AF87870AF
:105E70008AF89A788AF8E6788AF834798EE8030006
:105E800055D55B1053F80A10DAF80C2003EB0A0022
:105E90008A589047DAF820204D4BD70740F181808F
:105EA0005210D758D969D0187B58DFF824B19AF826
:105EB00000200BF102019847DFF81CE10BF64427A4
:105EC000BEE80F000FC79EE80300DAF8483A87E8FB
:105ED00003000B2000218AF8390AD80787F87E18BA
:105EE0008AF8B01A87F8CA1887F8181950D40BF630
:105EF0003827DBF8442A07EB63009047DAF8583A72
:105F0000334AD90751D55B10D2F8542AF958F818FA
:105F100051F802C09AF8382A2E49E04718F8017C57
:105F200061E6102384F8503194F8611114E70AEB0C
:105F30006300DAF80C20ACE70C2384F850310BE74F
:105F40000A2384F8503107E70B2384F8503103E724
:105F5000092384F85031FFE6072384F85031FBE62B
:105F60000D2384F85031F7E60E2384F85031F3E620
:105F7000062384F85031EFE6052384F85031EBE630
:105F8000032384F85031E7E60F2384F85031E3E629
:105F90005B100BF63827DBF8442AF958F8188A58B2
:105FA000ABE703EB6200DB697FE7D2F854CA07EB8B
:105FB0006300AFE7032B0CBF94F862310B4603F08C
:105FC0000303012202FA03F384F85031C4E600BF50
:105FD000FC040020360F002068CF0008F0B590F8D0
:105FE0006031056944698169C26983B0012BADF8EC
:105FF0000050ADF80240ADF80410ADF8062063D0B3
:1060000033B34B4C0023206A2370C1071CD54010CA
:106010000259E3692044D358002246499847D4F8EE
:10602000580A0023C20784F8383A414B3AD503F6A0
:10603000382240108158D3F8543A1044CB583E4986
:106040000022984703B0F0BD04EB6000E369E3E78A
:10605000384A6E46941E276A6D4603CE1060516022
:1060600003CDFD0702F8023CC2F8380AC2F83C1A18
:106070001FD57F103959E26938198D5800222D49F2
:10608000A847D4F8582A0023D00784F8383A284B78
:1060900013D503F638215210D3F8543A54585018F7
:1060A000E358CCE703F6382202EB6000D3F8543A09
:1060B000C5E704EB6700E569E0E703F6382000EB8D
:1060C0006200D3F8543ABAE71A4A0098941E216A3B
:1060D00010600198CF0702F8023CC2F8380A1BD5BD
:1060E00049100D59E2690819AD5801221149A84714
:1060F000D4F8582A0123D60784F8383A0C4B0FD528
:1061000003F638215210D3F8543A54585018E35833
:1061100009490122984795E704EB6100E569E4E746
:1061200003F6382000EB6200D3F8543AF0E700BFE2
:10613000FC040020FE040020360F00202DE9F04F63
:1061400090F8603183B0012B06460F46144640F2AA
:10615000C58040F6382808FB01F85D4907EB42038B
:10616000DFF8749111F803E008EB0905C31995F8FD
:10617000782083F86141BEF102035842584185F806
:1061800001E0CAB9C0B105F18003C5F8482103F1A7
:106190008002002143F8041B9A42FAD105F592735C
:1061A000002142F8041B9342FAD105F5A4710022A4
:1061B00043F8042B9942FAD1BEF1170CDCF100012F
:1061C00051EB0C01BEF1190ADAF1000252EB0A029E
:1061D00095F83439BEF11A0B85F89A18DBF10001F5
:1061E00085F8780085F8E62851EB0B01CBB9C1B1F1
:1061F000C5F8043A05F6BC1205F63C13002043F836
:10620000040B9A42FAD105F51E63002042F8040BF4
:106210009342FAD105F60420002243F8042B984259
:10622000FAD12C4B0EEB4E0A03EBCA0A05F10C0C0B
:1062300085F83419BAE80F00ACE80F009AE80300BB
:10624000BEF1020F8CE803000AD0BEF11A0F07D08E
:106250002869C20700F17981EB6805EB6000984777
:10626000286AC30724D540102A58EB692844D3581C
:10627000A91C19F808209847172C26D8DFE814F035
:106280008F018F018F018F018301830183018301BE
:106290008301770177017701770177016B016B014A
:1062A0006B016B016B016B011C001C001C001C00CE
:1062B00005EB6000EB69DBE796F86031012B8CBFE2
:1062C000F61986F89A4186F8994103B0BDE8F08F37
:1062D000809C010860CE0008FC040020DFF82493B5
:1062E000C44D19F812E095F87830BEF1020BDBF1DD
:1062F000000086F8622186F8612185F801E050EB04
:106300000B00CBB9C0B1C5F8483105F5807105F176
:106310008003002243F8042B8B42FAD103F12401BD
:10632000002243F8042B8B42FAD103F1240100220E
:1063300043F8042B8B42FAD1BEF1170CDCF10001BB
:1063400051EB0C01BEF11908D8F1000252EB080222
:10635000BEF11A0A85F8E62895F83439DAF1000218
:1063600052EB0A0285F89A1885F87800A149019243
:10637000D3B9019AC2B1C1F8043A01F63C1301F64F
:10638000BC11002243F8042B8B42FAD103F1240103
:10639000002243F8042B8B42FAD103F1240100229E
:1063A00043F8042B8B42FAD1DFF85C82DFF844B269
:1063B0000EEB4E0A08EBCA0A0BF10C0CBAE80F0000
:1063C000ACE80F009AE80300019BBEF1020F85F8CC
:1063D00034398CE803000CD0BEF11A0F09D0DBF879
:1063E0001000C30700F1F480DBF80C300BEB600009
:1063F0009847286A7F4BC10740F1DD804010C158A3
:10640000DA69184451F802C07B4B09EB440913F8D0
:10641000022C1946A3F1020AE04799F801E095F829
:10642000B03ABEF10202504285F839EA5041CBB988
:10643000C0B1CAF8803B0AF638310AF6B823002208
:1064400043F8042B8B42FAD103F12401002243F8D4
:10645000042B8B42FAD103F12401002243F8042BD0
:106460008B42FAD1BEF1170ADAF1000959EB0A0999
:10647000BEF1190B41F26C33DBF10001EA5C51EB28
:106480000B0141F21E3341F2D22CE954BEF11A0342
:1064900005F80C90D3F1000C85F8B00A5CEB030C06
:1064A0005448E2B9BCF1000F19D0544B41F23C49B9
:1064B00003F1800140F80920002243F8042B8B42AD
:1064C000FAD103F12401002243F8042B8B42FAD1C4
:1064D00003F12401002243F8042B8B42FAD1DFF8A8
:1064E00014A10EEB4E0308EBC3080AF64429B8E8E2
:1064F0000F00A9E80F0098E8030041F26C33BEF1E9
:10650000020F89E8030005F803C05ED0BEF11A0F40
:106510005BD0DAF8480AC10762D40AF63828DAF8FC
:10652000443A08EB60009847D5F8580A314BC20747
:1065300046D5401058F80020D3F8543A4044D35878
:1065400095F8382A2E49984796E640102A58EB6865
:106550002844D35883E696F86031012B8CBFF61996
:1065600086F8984186F8974103B0BDE8F08F96F819
:106570006031012B8CBFF61986F8964186F895415B
:1065800003B0BDE8F08F96F86031012B8CBFF6198F
:1065900086F8944186F8934103B0BDE8F08F96F8F1
:1065A0006031012B8CBFF61986F8924186F8914133
:1065B00003B0BDE8F08F03EB6000D3F81CC023E705
:1065C000D3F8543A08EB6000BAE70AF63828ABE78C
:1065D000401050F80B20DBF80C305844D35807E734
:1065E00040100AF6382858F80020DAF8443A4044B7
:1065F000D35898E7FC040020FE0400207018002007
:10660000360F0020809C010860CE00082DE9F84F6D
:10661000C0F88C11074600F5A87000F0DDFD07F505
:10662000AA7000F075FE07F5AC7000F0DBFC86493F
:106630003A46086807F1100301300860002142F86B
:10664000041B9342FAD107F12008002243F8042BDF
:106650009845FAD107F130094346002243F8042B4C
:106660009945FAD107F2851B5B4607F2891A002289
:1066700003F8012B5345FAD187F87A2173484FF478
:10668000804106F099F9D0F1010038BF0020704D2B
:1066900087F8900107F2631640F2323E07F2731456
:1066A000AC46BCE80F00B260F36030607160334606
:1066B000002213F8011B0A44A34292B2F9D12B8A9B
:1066C000698A93424BD0634B143D9D420EF1FF3ECD
:1066D000E6D10023A7F8743187F8603187F861317B
:1066E00087F8623187F86E3158484FF4005106F050
:1066F00063F940B997F86E31384683F0010387F8A3
:106700006E31FFF77DF93846FFF768FC3846002107
:1067100097F86121FFF712FD3846012197F86221B1
:10672000FFF70CFD0023042409200E21142287F812
:106730007B3187F8923187F8913187F8944187F857
:10674000934187F8960187F8950187F8981187F8A3
:10675000971187F89A2187F89921BDE8F88F71453C
:10676000B1D197F8651197F8633197F864010EF18C
:10677000010E082287F86211A7F874E187F86031EA
:1067800087F8610107F5B371002A47D1023BDBB2FC
:10679000012BA9D84FF4807348F8043BC145F9D1C7
:1067A00000230BF8013BD345FAD12B4C1E4604F6CF
:1067B000382A3D4695F87C3104EB06091B02A9F8FE
:1067C0000230226A244BD10739D5521052F803E027
:1067D000D969D0185EF80130DFF87C80227808F1A2
:1067E0000201984795F880311B02A9F83A3AD4F88B
:1067F000583ADA071ED55B10D8F8542A5AF8031015
:106800000AEB030051F802C00236144994F8382A02
:10681000E047082E05F10105CCD165E707F5BE700C
:1068200006F06EFA97F86031023BDBB2012B3FF6BF
:106830005BAFAFE7D8F854CA0AEB6300E4E703EBB9
:106840006200DB69C8E700BF6C190020001001403E
:10685000E8FF0108ECBF0108FC040020360F00200F
:1068600090F890312DE9F04704461BB14D8845B1B1
:10687000BDE8F0874B88032BFAD8DFE803F0244EFD
:10688000676CD0F88C01FDF75BFC204684F8605102
:1068900084F8615184F8625184F86E51FFF7B0F8C2
:1068A0002046FFF79BFB2046294694F86121FFF71D
:1068B00045FC2046012194F86221FFF73FFC84F853
:1068C0009051BDE8F0874B68B3F5167F68DC90F80F
:1068D0006031012B40F2AD8103F00103C3F10303EA
:1068E00080F8603100F1300100F120034FF4807234
:1068F00043F8042B9942F9D104F2851304F289116B
:10690000002203F8012B8B42FAD12046FFF766FBE9
:106910002046BDE8F047FFF773B890F8603149684A
:10692000032B0CBF90F8622190F86121B1F5167F1E
:1069300016DD032A2CD9082A00F28881012B8ABF90
:10694000C21890F8952192F8932113E0002380F863
:106950004030BDE8F087002380F84130BDE8F08783
:10696000032A11D9082A00F269810132D2B2092A18
:1069700008BF0422991E2046C9B2FFF7DFFB20465C
:10698000BDE8F047FFF73CB8013202F00302F1E73F
:10699000012B8ABFC21890F8932192F89121E9E760
:1069A00090F86231C74F90F86011C74D17F813E0A7
:1069B0000231BEF1020A01F0030195F8782080F857
:1069C000601180F86131DAF1000085F801E050EBE8
:1069D0000A00CAB9C0B1C5F8482105F1800305F520
:1069E0008071002243F8042B8B42FAD103F1240179
:1069F000002243F8042B8B42FAD103F12401002238
:106A000043F8042B8B42FAD1BEF117067142714153
:106A1000BEF1190CDCF1000252EB0C0295F834398E
:106A2000BEF11A09D9F1000885F89A1885F878009E
:106A300085F8E628A44958EB0908DBB9B8F1000F3E
:106A400018D0C1F8043A01F63C1301F6BC1100223B
:106A500043F8042B8B42FAD103F12401002243F8BE
:106A6000042B8B42FAD103F12401002243F8042BBA
:106A70008B42FAD1954EDFF850A20EEB4E0906EB91
:106A8000C9090AF10C0CB9E80F00ACE80F0099E84D
:106A90000300BEF1020F85F834898CE803000CD0A6
:106AA000BEF11A0F09D0DAF81030D80700F1E580EE
:106AB000DAF80C200AEB630090472A6A824BD10770
:106AC00040F1D380521052F803E0D969D0185EF833
:106AD00001C07F4B13F8022C1946A3F10208E047CE
:106AE00094F8613195F8B02A07EB43077F78BB1E15
:106AF000584285F8397A5841CAB9C0B1C8F8802BD4
:106B000008F6B82308F63831002243F8042B8B42EC
:106B1000FAD103F12401002243F8042B8B42FAD16D
:106B200003F12401002243F8042B8B42FAD1B7F180
:106B30001708D8F1000C5CEB080CB7F1190941F209
:106B40006C33D9F10001EA5C51EB090141F2D22E1C
:106B5000B7F11A0A41F21E3305F80EC0DAF1000C43
:106B600085F8B00AE95458485CEB0A0CE2B9BCF16C
:106B7000000F19D0574B41F23C4E03F1800140F811
:106B80000E20002243F8042B8B42FAD103F124019A
:106B9000002243F8042B8B42FAD103F12401002296
:106BA00043F8042B8B42FAD1DFF81C8107EB470333
:106BB00006EBC30608F6442E0FCEAEE80F0096E8AB
:106BC000030041F26C33022F8EE8030005F803C086
:106BD00050D01A2F4ED0D8F8483AD80756D408F6D5
:106BE0003826D8F8442A06EB63009047D5F8583A7F
:106BF000354AD90734D55B10D2F8542AF158F01829
:106C00008F58354995F8382AB84704F1200304F124
:106C100030014FF4807243F8042B9942F9D104F209
:106C2000851304F28911002203F8012B8B42FAD15B
:106C30006BE6C3F1010380F8603166E60D2A2ED8B9
:106C40000132D2B20E2A08BF092293E60D2A2ED8AD
:106C5000012B8ABFC21890F8972192F8952189E6F6
:106C6000D2F8547A06EB6300CBE703EB6200D3F86B
:106C70001CC02EE708F63826B8E75B1053F80A1058
:106C8000DAF80C2003EB0A008A5815E75B1008F6C7
:106C90003826D8F8442AF158F0188A58A5E7132A5C
:106CA0001CD80132D2B2142A08BF0E2262E6132A7F
:106CB0001DD8012B8ABFC21890F8992192F897210C
:106CC00058E600BF809C0108FC04002060CE00084C
:106CD000FE04002070180020360F0020172A3FF60F
:106CE00049AE0132D2B2182A08BF142242E6012B63
:106CF0008ABFC21890F8912192F88F213AE600BF1E
:106D00002DE9F84390F8903104460D46FBB14B88CD
:106D10004A680344121283F87C2190F87D3190F880
:106D20007C21803B5B10803A03EBC202D0F88C31AF
:106D300052421A8090F87F1190F87E2180394910D4
:106D4000803A01EBC20252425A80BDE8F88390F8C3
:106D50006031032B4CD8DFE803F04D8002024888F5
:106D6000023B5FFA80FC0CEB8306F6B226444F68C8
:106D700096F87C9140F63822A9EB27291FFA89F969
:106D80001FFA89F802FB03F318F4004F18BFC9F18A
:106D90000008544A94F86E9103EB020118BF1FFAE1
:106DA00088F8B9F1000F08D0204490F8850120B987
:106DB0000FFA88F8B8F1020F1ADC086A01EB4C0CE4
:106DC000ACF80270C7076CD5401051F800C0D1F87C
:106DD0001CE008445CF80E70D25C0231B8476B6866
:106DE00001221B1286F87C316B881C4484F88521B3
:106DF000BDE8F8833B4E8A784B68306A06EB420266
:106E00005380C20748D540108259F369304452F884
:106E100003C0354B194613F8022C9F1EE047A97892
:106E20006B68D6F8582A06EB4101A1F83A3AD30725
:106E30002BD507F638235210D7F8541AD758D01844
:106E40007B5896F8382A294998476A886B68144411
:106E50001B1284F87C31BDE8F8834B88012B2BD9B9
:106E6000204E023BDBB24968D6F8582A06EB4303B2
:106E7000A3F83A1AD30718D506F638235210D75874
:106E8000D6F8541AD0187B58DBE707F6382000EB09
:106E90006200D7F8543AD4E706EB6000D6F81CC07D
:106EA000B7E701EB6000CF6996E706F6382000EB04
:106EB0006200D6F8543AC4E70A4A4868116A02EBFD
:106EC00043035880C80709D549108E58D3698818DC
:106ED000F358054911F8022C9847B6E702EB610018
:106EE000D369F6E7FC040020FE040020360F0020E2
:106EF0002DE9F041804682B000F5AB7704460026CC
:106F0000236837F8021FC3EBC3052269236A0D44C7
:106F1000ED1099188D42C3EB0202256002DA95420A
:106F200000DD4BB940466946ADF802600195FFF7B8
:106F3000E7FE4023256123620136042E04F1040498
:106F4000DED102B0BDE8F08130B5D0F84C21D0F8E8
:106F5000483183B0D31ADA06044618BF6D4608D10B
:106F60002AE022B3D4F84C21D4F84831D31ADB06F6
:106F700022D0D4F8483104EBC302483292E803002F
:106F800085E803009DF80020013303F01F03042A65
:106F9000C4F84831E5D1019BCBB9BDF80230022BD2
:106FA0001AD0032BDED1012384F84130DAE72046E2
:106FB0006946FFF7A5FED5E7094B626C19688A1A86
:106FC000B2F57A7F01D91B68636403B030BD2046F7
:106FD0006946FFF745FCC5E7012384F84030C1E767
:106FE0006C1900202DE9F04393B0012400250F23F4
:106FF00001A907463C48ADF804308DF806408DF8ED
:107000000750DFF8F09005F07DFC384805F022FBD2
:1070100004264FF4807C4FF4806E20224FF40053FE
:10702000324807A94FF08008CDF834C0CDF838E0D9
:107030000F921093089709950B951195CDF81C9018
:107040000A96CDF8308005F085FB2146274805F0EB
:10705000A1FB274805F024FA4FF460224FF40063A7
:10706000234802A90492059302958DF80C408DF8EF
:107070000D408DF8186005F049FA22461C4803219E
:10708000072305F099FA02210A461948072305F05B
:1070900093FA214616480322072305F08DFA294664
:1070A00032461348072305F087FA1148214605F0B8
:1070B00051FA0F4805F062FA0D4805F065FA00280C
:1070C000FAD10B4805F064FA094805F067FA002880
:1070D000FAD10748012105F047FA0548012105F0DA
:1070E00061FA13B0BDE8F0830008014008000240D7
:1070F000002401404C2401402DE9F041234C86B08E
:107100008046694620464FF4805202271023204EC5
:10711000ADF800208DF8033001258DF8027005F0E0
:10712000F1FB204669464FF4204218230024ADF8B5
:1071300000208DF803308DF8025005F0E3FB4FF48A
:10714000827C4FF4006E4FF400720723304601A991
:10715000ADF806C0ADF808E0ADF80E20ADF814307B
:10716000ADF80A70ADF80440ADF80C40ADF8104031
:10717000ADF8124005F096FC3046294605F0B2FC09
:1071800088F8044006B0BDE8F08100BF000C014063
:107190000038004030B583B001A94FF48053022578
:1071A00048240B48ADF804308DF806508DF80740A0
:1071B00005F0A8FB4FF4006301A906488DF80650BE
:1071C0008DF80740ADF8043005F09CFB03B030BDEE
:1071D00000080140000C0140F0B52E4E89B0022598
:1071E0006946F02310272C482C4CADF800308DF860
:1071F00002508DF8037005F085FB694630464FF468
:1072000080638DF802508DF80370ADF8003005F002
:1072100079FB0322694630461823ADF80020082682
:107220008DF802508DF80330002505F06BFB3F23ED
:107230002046ADF80830ADF80460ADF80A50ADF85E
:1072400006508DF80C5005F015FD204601A905F0FB
:1072500057FC01276023204604A9ADF81030ADF893
:107260001650ADF81850ADF8127005F06DFC2046C0
:10727000314605F007FD204604A905F0ADFC204687
:10728000314605F007FD2046394605F0DBFC09B024
:10729000F0BD00BF000C01400008014000040040A8
:1072A00038B5194DC17804468908284605F0FCFC1C
:1072B000A1782846890805F0F9FC627813484FF454
:1072C000806105F07FFB227805F58235284602F0C3
:1072D0000102102105F076FB2278284602F0020216
:1072E000202105F06FFB2278284602F0040240219D
:1072F00005F068FB2278284602F008028021BDE8EC
:10730000384005F05FBB00BF00040040000C0140A6
:1073100030B5042283B0FF2105F058FD0225482432
:1073200001A910231148ADF804308DF806508DF8EE
:10733000074005F0E7FA01A94FF480730C48ADF857
:1073400004308DF806508DF8074005F0DBFA4FF455
:10735000C04301A907488DF806508DF80740ADF8E5
:10736000043005F0CFFA03B030BD00BF000C01407F
:107370000008014000100140F8B510210446C5780E
:10738000134805F019FB6D00EDB22843E0704FF48F
:1073900080711048A77805F00FFB7F000E4DFFB2FB
:1073A0003843A0704FF400512846267805F004FBBE
:1073B0007600F6B26378304320704FF4804128465F
:1073C0005D0005F0F9FAEDB228436070F8BD00BF2A
:1073D000000C0140000801400010014030B5144687
:1073E00085B00D4604F094FF2CB14FF000604FF4CF
:1073F000804105F04BF844F61D20012105F02EFBDD
:1074000044F20200012105F035FB0120014605F0A0
:1074100019FB0121174805F0DBFA4FF4404005F055
:1074200007FB00241448ADF80850ADF80440ADF84F
:107430000A40ADF806408DF80C4005F01BFC01A990
:107440000D4805F05DFB01210B4805F0FBFB4FF4F7
:10745000A06004F0D9FF1922012368468DF801408D
:107460008DF802408DF800208DF8033004F0D6FF2F
:1074700005B030BD00013000002C014070B4084B55
:10748000084A0948F0265A60002580F8236007243E
:1074900001219D600A461C60044870BC05F0E0BBF9
:1074A00010E000E03F19010000ED00E0002C014079
:1074B0002DE9F00F002340F6FD7B4FF4845A4FF086
:1074C000010940F60C584FF44067C0264FF4786528
:1074D00047F281744FF0300C4FF44851FF22C0F84E
:1074E0002CB0A0F83EA080F83C90C0F804808761E2
:1074F0008662C565A0F84040C0F814C001664264C9
:1075000003608360C360C361036203634363036515
:1075100043654366BDE8F00F704700BF2DE9F00FEB
:107520008CB002910492002B00F03C81076E466EF5
:107530000897476CB0F85C200396C66A0597029FCF
:1075400007920A96426886691F440992016D426D4E
:10755000C568046A0B960697DEE0C669D0F8089005
:10756000D0F81080D0F824C0076B099BB9F1000F48
:1075700005FB03F54FEA1535C56009DD09F1FF3359
:1075800083602BB988EAE873A3EBE8731D44C560F8
:107590000B9BB8F1000F03FB04F4B4BFC5F1000866
:1075A000A846240B002E04620BD008F5804808DDA5
:1075B000013EC6612EB98CEAEC76A6EBEC7634443B
:1075C0000462436B0A9EBCF1000F03FB06F3B4BFD9
:1075D000C4F1000CA446C4441E0B002FCDF804C017
:1075E000466340F3C480013F0763002F40F0C18031
:1075F000876B002FB8BF7F42374447634FF00009C5
:10760000079F90F83C60B9441FFA89F9002E00F0FA
:10761000A1800FFA89FCB0F94080654F654E4FEAB2
:107620004848A0F83E904FEA4C4C4FEA186907F1E1
:10763000020A3AF819A037F8197006F1020B4FEA5E
:107640001C6936F819603BF819904FEA18284FEA80
:107650001C2CC7EB0A0AC6EB09091FFA88F81FFAA7
:107660008CFC0CFB09FC08FB0AF806EB1C4607EB3C
:107670001847019BBFB2B6B24FF0000BC7648664D7
:1076800080F83CB04FEA231C059B7BB1B1F5805FCD
:1076900040F38380A1F500694FEAE9094FEA211818
:1076A000059B4F4408FB03F806EB682602FB06F82F
:1076B00002FB07F701EBE831DFF8FC80019B414555
:1076C000A3EBE73762DAC0F8508041467F1A07FB28
:1076D00006F6394B02EBE6329A4250DA43651A4617
:1076E000039E0CEB0203089F9B1B07FB03F306EBB7
:1076F000E33313F5004F43663EDDB3F5004FA8BFFB
:1077000047F6FF7652DB049F27F8026B0497029E30
:10771000069FBE4246D00393029E16F8013B9B078C
:1077200002967FF51AAF0768836A4669DFF88C8096
:10773000DFF88CC007F1010901365F1C44F2506389
:10774000C0F80890C6610763C0F81080C0F824C074
:1077500083630AE7B0F93E600FFA89FC66457FF45F
:107760005AAF019EC76C4FEA261C866C8CE73FF42B
:1077700045AF4FF4086943E748F20106C3E7B2F5A5
:10778000004FA8BF47F6FF724265A9E7B1F5004F69
:10779000A8BF47F6FF71016598E74FF000094FF069
:1077A00080087DE70CB0BDE8F00F70479EB2AAE7F5
:1077B000C86A0108789801080180FFFF333304008C
:1077C0003DCAFFFF2DE9F00F40F6FD734FF4845BD7
:1077D0004FF0010A40F60C594FF03008C0274FF423
:1077E00078664FF4004547F281744FF4406C4FF4D3
:1077F0004851FF22C3620023A0F83EB080F83CA0AD
:10780000C0F80490C0F814808762C6654567A0F888
:107810004040C0F818C00166426403608360C360E2
:10782000C36103620363436303654365A0F86E307D
:107830004366BDE8F00F70472DE9F00F8CB003915F
:107840000492002B00F0AD814768466F0997C76826
:10785000426E01978769046E751005F57F550B9789
:10786000039F02923F35C26A0794446C1F4405EBA4
:10787000A6050A920594016D426D046A0697089563
:10788000DEE0036BC66990F83CA08768D0F81090E2
:10789000D0F824B0B0F85CC00093019D099B002F84
:1078A00005FB03F84FEA18350195C56009DD013F76
:1078B000876037B989EAE977A7EBE9773D44019515
:1078C000C5600B9DB9F1000F05FB04F4B6BF019B29
:1078D000019F5F42240B002E04620BD007F5804706
:1078E00008DD013EC6612EB98BEAEB76A6EBEB769E
:1078F00034440462466B0A9B009D06FB03F6BBF111
:10790000000FB4BFC4F10008A046360B002D474459
:10791000466340F31281013D0563002D40F00F8165
:10792000856B002DB8BF6D42354445630025AC44DE
:107930001FFA8CFCBAF1000F00F0F3800FFA8CF6FE
:10794000B0F94080994D9A4B4FEA4848A0F83EC0A4
:1079500076044FEA186C05F1020939F81C9035F8E5
:107960001C5003F1020A4FEA166C33F81C303AF847
:107970001CC04FEA1828360AC5EB0909C3EB0C0CEA
:107980001FFA88F8B6B208FB09F806FB0CF605EBFF
:10799000184503EB1643ADB29BB24FF0000AC56425
:1079A000836480F83CA04FEA2719059E7EB1B1F5AB
:1079B000805F40F3D580A1F500684FEAE8084FEA00
:1079C000211C059E45440CFB06FC03EB6C2302FBCB
:1079D00003FC02FB05F501EBEC31DFF8D8C1A7EBA6
:1079E000E535614580F2B580C0F850C061466D1A3A
:1079F00005FB03F36F4F02EBE332BA4280F2A28041
:107A000047653A46029F079B09EB0206F61B03FBFC
:107A100006F6089D07EBE63705FB07F31B1413F585
:107A2000004F049ECCBF9BB248F201034766029709
:107A300026F8023B039F069B04969F4200F0B1800C
:107A4000039D15F8013B9B0703957FF51AAFDFF8FF
:107A50007081594ED8F80030584D06FB03F3B0F84A
:107A600068701D44002DB0F96EC04FEAA70780F280
:107A70008C800CEB070303F5FF467F364FF6FE794B
:107A80004E4572D9C7EB0C0313F5004F6DDC4FF474
:107A9000406CE14648F2010B474E484B06FB05F5AA
:107AA000B0F86A702B441D1407FB05F7B0F870603E
:107AB0004FF6377506EBA746AE42B8BF354625EA06
:107AC000E575C5F57F45FF3505FB05FA4FEA1A4A0E
:107AD00005FB0AFA07684669856A4FEA9A4AC0F8C0
:107AE0005C90A0F86EB0DFF8DC90DFF8DCB0CAF58F
:107AF000FF4A0135C8F8003001370123013644F24E
:107B00005068A0F840A000958760C6610563C0F882
:107B10001090C0F824B080F83C309A46C0F8388005
:107B2000BBE6B0F93E300FFA8CF6B3427FF408AFF3
:107B30004FEA2719C56C836C37E73FF4F7AE4FF473
:107B40000865F4E6B2F5004FA8BF47F6FF7242653C
:107B500058E7B1F5004FA8BF47F6FF71016546E74A
:107B60004FF000084FF0800C2BE747F6FF7B5B459A
:107B7000B8BF9B46CBEBCB094FEA292909F57869B9
:107B80001FFA8BFB1FFA89FC86E7C7EB0C0303F592
:107B9000FF467F364FF6FE794E45E6D90CEB0703DC
:107BA00072E70CB0BDE8F00F704700BFC86A01086B
:107BB000789801080180FFFF0D6619005FF36E3CA5
:107BC00000010020333304003DCAFFFF70B40023DE
:107BD00001224FF452544FF45C5640F6FD7545F6C1
:107BE000C051A0F842604566448044844365836583
:107BF0008364A0F8443003668366C366436183618F
:107C0000836043638363836280F84020027080F85E
:107C100020208180818470BC704700BF2DE9F00F67
:107C20009CB00D910F92002B00F0A782284A294D9D
:107C3000294E1492294C13951896D0F88850D0F8F4
:107C40008C60274F274A17941697D0F88440D0F8B5
:107C5000907015920A95D0F89420D0F89C5009960F
:107C6000D0F880600B940897D0F898408768059208
:107C70000795826A456B1A96466E416FD0F878B0C8
:107C800006941097446911920295D0F818A0826B5F
:107C90001B96876C456D12970D9F03951F44179D8A
:107CA000149BC66E0B440D4404961997139E189F9F
:107CB00014931795169B159D0B440E440F440D44C9
:107CC000169313965B4618971595A3465FE100BF80
:107CD0002F48A002FD3FF40161C2FB02C54403042A
:107CE0004059B1031A9A5805876E016F0C970E918F
:107CF00003F1DF4303F5D803AE4908338B428367B2
:107D000008D80B9CAC49AD4D01FB04F10D440B951B
:107D1000C0F884500A9E149F0999179C3E44214440
:107D200009910A96089DF10F139E059C354408950C
:107D3000189D099F2C44059401EBD771169C069F52
:107D4000089E27440697059D159F069C01EBD6715A
:107D5000079E01EBD5713E4401EBD47107960A9D55
:107D6000089F01EBD671099EC0F88850C0F88C605E
:107D7000C0F89070059D069E0478079F89B2C0F8F0
:107D80009450C0F898600903C0F89C70002C40F033
:107D90005B810469C768109D7DB1BBF5805F40F3CE
:107DA000E481ABF500664FEAE60C4FEA2B15109E16
:107DB000644405FB06F507EB65270AFB07F50AFB9C
:107DC00004F40BEBE53B7E4DA1EBE434AB4580F2D4
:107DD0006C814561AB46CBEB040404FB07F7784E9E
:107DE0000AEBE73AB24580F22081B0F87C10866158
:107DF000A1F5FF41B2467F390B9F90F820503C0C13
:107E0000A4F5004464100194002D40F0DB80056B64
:107E1000C66A119C7CB1029FB7F5805F40F3A981CF
:107E2000A7F5006C4FEAEC0C3C11119F654404FB74
:107E300007F406EB642602FB06F7029C02FB05F53D
:107E400004EBE7345E4FDDF80490BC420294A9EBEA
:107E5000E53580F2428147630297029FED1B05FBE7
:107E600006F6574F02EBE632BA4280F22F81876363
:107E70003A46049D1B9E0C9F05FB06F4002F4FEA1B
:107E800014340494C4660ADD7C1E84663CB90E9CDE
:107E9000049D002CB8BF644225440495C5660E9E1F
:107EA000474D002EB6BF049F049E7E42361101FB53
:107EB00006F102FB06F6CC13AC424FEAE631C0F203
:107EC000FE8047F6FF75AC42A8BF2C463C4DA94248
:107ED000C0F2FA8047F6FF75A942A8BF29461A9D4D
:107EE000091B05FB01F190F8405004EBE1310C91C6
:107EF000002D40F0FC80046DC56C129E7EB1039F86
:107F0000B7F5805F40F32E81A7F50067F910039F56
:107F10003E11129F0C4406FB07F605EB6625866DA5
:107F2000039905FB06FC04FB06F401EBEC31DDF8DC
:107F300030900391224FA9EBE431039CBC4280F2C4
:107F4000078147650397039C091B01FB05F51C4C42
:107F500006EBE535A54206DBB5F5004FA8BF47F6B1
:107F6000FF74C0F20E81846511F5004F1FDDB1F57D
:107F7000004FA8BF47F6FF71C0F212810F9D0D9E02
:107F8000199F25F8021BBE420F9500F0F6800D9E4A
:107F900016F8011B89070D967FF5A6AE016E4FF40A
:107FA000F02401310C91816604670E94A0E648F23A
:107FB0000101E3E70700EC6F0D6619005FF36E3C0B
:107FC0000180FFFFB0F922C0764E4FEA4C4CB0F969
:107FD00024704FEA1C6806F1020939F818407F0442
:107FE000DFF8D091704D36F818604FEA176835F811
:107FF000185039F818804FEA1C2C3F0AC6EB0409C8
:10800000C5EB08081FFA8CFCBFB207FB08F70CFB96
:1080100009FC05EB174506EB1C46B6B2ADB20027CE
:10802000C662056380F82070F3E6BAF5004FC0F22F
:10803000AA8047F6FF715D4C81618A4647F6FF7161
:108040008C42B8BF2146D7E6B0F90270554DB0F961
:108050000460554C7F044FEA176C760405F1020862
:1080600038F81C8035F81C5004F102094FEA166CF0
:1080700034F81C4039F81CC03F0A360AC4EB0C0C1B
:10808000BFB2C5EB0808B6B207FB08F706FB0CF653
:1080900005EB174704EB1644BFB2A4B24FF000093A
:1080A000C760046180F8009075E6BBF5004FA9BF7A
:1080B00047F6FF71C0F814B041618B468BE62C4641
:1080C0003B4DA942BFF606AF294608E7B2F5004F7F
:1080D000A8BF47F6FF728263CBE6029CB4F5004F5F
:1080E000A9BF47F6FF74446344630294B5E6B0F950
:1080F00042702C4DB0F944602B4C7F044FEA176C52
:10810000760405F1020838F81C8035F81C5004F19B
:1081100002094FEA166C34F81C4039F81CC03F0ABB
:10812000360AC5EB0808C4EB0C0CBFB2B6B207FBAD
:1081300008F706FB0CF605EB174504EB1644ADB249
:10814000A4B24FF00009C564046580F84090D4E6FD
:10815000039FB7F5004FA9BF47F6FF744765446515
:108160000394F0E600218026D3E64FF0000C802532
:108170001DE64FF0000C802457E61CB0BDE8F00F60
:1081800070478565F0E6B0F87C104FEA8A04A1F5E7
:10819000FF417F39A142C0F818A03FF72DAE4DE74F
:1081A00089B2EBE678980108C86A0108FCFF010073
:1081B0000180FFFFCA6A010800224FF0FF334261CD
:1081C00002828361C36170472DE9F0078B13077842
:1081D0003E4D3F4C1B01002F0CBF2F46274603F19D
:1081E000100903F1080803F1180C8900B944B844D8
:1081F000BC4483B01F4489B20023FE5A38F80350B0
:1082000039F803403CF803A0A41BC5EB0A0A01FBA4
:1082100004F401FB0AFA06EB244405EB2A45A4B258
:10822000ADB22D1B02FB05F504EB25442DF80340F0
:108230000233082BE1D1BDF80030B3F5804F2CD8C4
:108240004FF480624280BDF80420BDF8021003EBB9
:10825000C3039D09541089109210BDF8063002F531
:10826000005201EB410105F54065C1F38D0104F5B4
:10827000804442811A048580C180048116D4C3F5EC
:10828000FF437F3303FB03F30022C3F38F33828169
:10829000C38103B0BDE8F0077047B3F5004F9ABF44
:1082A0001A11C2F5006200224280CCE7A3F5004318
:1082B00003FB03F3C3F34D4303EB830383810023E9
:1082C000C38103B0BDE8F007704700BF009D0108FF
:1082D000B09C010843F6FF739942A8BF1946B1F557
:1082E000685310B44FF0000004D513F5C06300F1DB
:1082F0000100FAD41911094A4C1C52F8244052F8D2
:10830000212003F00F03A11A03FB01F302EB231258
:1083100022FA00F05DF8044B704700BFF0940108AA
:108320002DE9F04FB0F808C0478904464FEA2C26E3
:1083300089483D1205F1010906F1010850F8255060
:1083400050F8266050F8288050F82900C8EB06083D
:10835000281A5FFA8CFCFFB20CFB08FC07FB00F745
:1083600087B00291616AA5EB1727A6EB1C2C059735
:108370000392CDF804C06769D4F81880E669256ACD
:10838000049103F1FF39002B00F0DB80DFF8E4A15A
:10839000BCE0E788DDF81480C7EB87376F4D3F14EA
:1083A00000266F4B9D4298BF4FF0FF3519F0030F29
:1083B00036D16C4B4FEA186233F812003AF81210BB
:1083C0002A0E33F812303AF81220401AC8F30F2E52
:1083D0000EFB00F09B1AC5F30F2E0EFB03F301EB0F
:1083E000104102EB134289B2E08892B2C1F57F419D
:1083F000FF31C2F57F43B4F802C000FB01F2FF3346
:10840000B4F910E00CFB03F3A08800EBAE1000EB16
:10841000124202EBD33109B22046FFF75BFF049012
:1084200004990F445049BB0D31F81320023131F942
:1084300013B013B2C3EB0B0BC7F38F1303FB0BFB90
:10844000A38902EB2B4B1FFA8BFBB3B1DFF828C1DA
:10845000464ADCF80000C3F57F4102FB00F0444AC5
:108460000FFA8BFB0244101400FB03F3FF3101FBF6
:108470000B3BCCF800204FEA1B4B019AB61857D2A1
:10848000310E49008A1CC6F30F233AF801C03AF8AE
:1084900002000FFA8BFBCCEB000003FB00F00CEBAF
:1084A000104082B2C2F57F42FF320BFB02F2E38939
:1084B000120C0BB312B2100400F10040DFF8BCB094
:1084C0004FEA905C3BF81C100BF1020B3BF91CC00F
:1084D00080090FFA81FB80B2CBEB0C0C00FB0CFC8B
:1084E00001EB2C4C0FFA8CFC0CFB03FCC3F57F4317
:1084F000FF3303FB02C2120C039B09F1FF392282F6
:10850000B9F1FF3F23F8022B03931AD0029A12F815
:10851000013B9B0702923FF53CAF059B05F14415DB
:1085200018EB030805F5884528BF4FF0FF3838E7FA
:108530004FF6FF734FF400724FF4FF714FF0FF36A8
:10854000A3E704996761C4F81880E6612562616257
:1085500007B0BDE8F08F00BFD06E0108444444006E
:1085600043444400DA7A0108E07E01080D661900F0
:108570005FF36E3CD87A010800010020EC8C010802
:1085800030B4002301254FF4525445F6C05140F653
:10859000FD72057044808180426243618361836023
:1085A00003628362C36230BC704700BF2DE9F00FE5
:1085B00090B00A910B92002B00F0C481826C9D490F
:1085C000D0F83CB001FB03214569D0F83480D0F8E5
:1085D000449083680E91C66A816B04955D460D9345
:1085E000C3464B46046CD0F818A005968946A846A9
:1085F000FDE090F85C5015B9890600F1FF808E4EC1
:108600008E4F31688E4D07FB01F1B0F84C700D4470
:10861000002DB0F856C04FEAA70780F269810CEB35
:108620000701B1F5803FC0F06A81BCEB070140F162
:10863000668101784FF0000C43F28127CDF81CC011
:10864000002940F06E814188B7EB010C18BF4FF054
:10865000010C7A4980F800C001FB05F57849478094
:1086600029443160079D0029B0F84E10A0F85650FB
:10867000B0F85A604FEAA10180F22C817518B5F567
:10868000803FC0F02C81751A40F14E8140F6E177B1
:1086900009970025016A099F4FF4F0260131A0F8DF
:1086A0005A500791476265468162066308960BF14E
:1086B000387B0BF5A33B09F188690BF5D77B09F5EE
:1086C000882908F10D7809F2444908F59F3804F12A
:1086D0004F744FEADB7108F5BE7804F5414403F1AD
:1086E0007C7301EBD971E03403F5163302F1B36208
:1086F00001EBD871BF3302F5CC3201EBD47102F239
:10870000991201EBD37101EBD27189B20903C0F860
:1087100034B0C0F83890C0F83C800464436482648C
:108720000391002D40F090800569C6680D9F7FB1D0
:108730000499B1F5805F40F3C980A1F5006C4FEA60
:10874000EC0C09110D9F654401FB07F106EB612656
:108750000AFB06F704990AFB05F501EBE731394FEF
:10876000DDF80CC0B9420491ACEBE53558DA47614D
:108770000497049FED1B05FB06F6324F0AEBE63A21
:10878000BA4543DA8761BA460025059E099F06FB74
:1087900007F1090B0591C162079900290ADD01392A
:1087A000816239B90899059E0029B8BF49420E4433
:1087B0000596C662089F002FB6BF059E05997142B7
:1087C000091105FB01F1891311F5004F7BDDB1F5AE
:1087D000004FA8BF47F6FF71C0F2B8800B9FDDF8CD
:1087E00038C027F8021B62450B9700F0AB800A9F48
:1087F00017F8011B8D070A973FF5FBAE416A866AA1
:10880000076B057809910796089750E7BAF5004F6E
:10881000C0F29E8047F6FF718A4681610D46B4E73B
:108820000499B1F5004FA9BF47F6FF71416141615D
:1088300004919EE799999905000100200D661900A1
:108840005FF36E3C0180FFFFB0F902C0434E4FEA78
:108850004C414FEA116C36F81C60B0F90470029676
:108860003F4E7F0436F81C603E4D0C963E4E4FEA5C
:10887000176C35F81C5036F81C604FEA112C1FFAA3
:108880008CFC0F96CDF804C0029EDDF830C03F0A84
:10889000C6EB0C01DDF83CC0019EC5EB0C0CCDF81D
:1088A00030C006FB01FC0C99BFB207FB01F702992F
:1088B00005EB174501EB1C46B6B2ADB20027C6600A
:1088C0000561077032E748F2010187E74FF0000CBD
:1088D000802137E7751AB5F5803F00D37518B5F5D7
:1088E000803F21DB40F6FF7109914FF6FF75D1E61D
:1088F000C7EB0C01B1F5803F01D30CEB07014FF63C
:10890000FF7C6145A8BF6146C1F5FF477F3789B24B
:10891000BF1107910178C7F55257BFB200293FF444
:1089200092AE4FF0010C94E6E91201F6E17189B2C2
:10893000B1F5805F08BF40F6FF76ADB20CBF099677
:108940000991A7E610B0BDE8F00F704789B245E77E
:10895000C0F818A08AF30F0517E700BF7898010840
:108960007A980108C86A0108CA6A01082DE9F00F5F
:108970004FF4C0674FF440664FF4966500233024EF
:1089800001224FF4FA6B4FF4844A47F2485946F6F5
:10899000843845F2F051476086614FF4D0574FF468
:1089A0000056C56240F6FE7C4FF44855A0F894B0DE
:1089B000A0F8B8A0A0F85490A0F874804461846234
:1089C00003608360C360C361036203634363C36383
:1089D00043648364436683668365C0F88430C0F86B
:1089E00088308367C0F8A430C0F8A830C0F8983049
:1089F00080F8502080F8702080F89020C0F8B010E7
:108A0000C0F8B410A0F85270A0F87260A0F89250AC
:108A1000C0F840C0BDE8F00F704700BF2DE9F00F6F
:108A20009AB083460B910D92002B00F0DC82DBF8AC
:108A30000440DBF81850DBF858601D49DBF82C7057
:108A4000096816941795DBF88440DBF89850109667
:108A5000DBF8A460D0F8B000DBF8B4200F911897D1
:108A6000DBF87810DBF84070039412950496DBF87D
:108A70000C40DBF82050DBF8346014901592DBF8E2
:108A80006400DBF8682011911997DBF88810DBF897
:108A9000A8A0059406950796DDF82CC0DBF8487071
:108AA0009C440897CDF84CC08146904681E100BFB8
:108AB00000010020DBF83860DBF844700996DBF831
:108AC0004C60DBF80840DBF81020DBF81C00DBF81A
:108AD0002450DBF830300A970C96059E169F002C28
:108AE00006FB07FC4FEA1C360596CBF80C600BDD45
:108AF000013CCBF808403CB982EAE274A4EBE27492
:108B000026440596CBF80C60002AB8BF059F069E48
:108B1000B8BF7C42179FA8BF059C06FB07F2002840
:108B20004FEA12320692CBF820200CDD0138CBF848
:108B30001C0040B9069E85EAE572A2EBE572164478
:108B40000696CBF82060002DB6BF069F069A7A42A3
:108B500040F63D2500289BF85000224408BF002520
:108B60002A44002840F05881DBF86000DBF85C60A4
:108B7000109C74B1B9F5805F40F33282A9F50065AD
:108B8000ED104FEA2914109F284404FB07F406EB6C
:108B9000642608FB06F508FB00F0C04C09EBE5393C
:108BA000A145A2EBE03006DBB9F5004FA8BF47F6C0
:108BB000FF74C0F21C82CBF86440A146C9EB0000F0
:108BC00000FB06F6B54D08EBE638A84580F2C881F3
:108BD000CBF86850A846079C189D08EB221204FBAE
:108BE00005F0002B4FEA10300790CBF834000E92BE
:108BF0000BDD013BCBF830303BB9099A002AB8BFF6
:108C0000524210440790CBF83400099E43F23332AD
:108C1000002EB6BF079F07987842002B9BF8703054
:108C200008BF00220244002B40F0A581DBF8803011
:108C3000DBF87C50119878B1039CB4F5805F40F369
:108C4000C881039EA4F50064E4103011119F2344F1
:108C500000FB07F005EB602501FB05F4039E01FB1B
:108C600003F38E4806EBE43686420396A2EBE33329
:108C700007DB039FB7F5004FA8BF47F6FF70C0F2B0
:108C8000BB81CBF8840003900398844C1B1A03FB30
:108C900005F501EBE531A14280F25A81CBF888401D
:108CA00021460F9C7E487F4B00FB04F07E4D9BF8D5
:108CB0009040034401EB22122B601814002C40F06A
:108CC0000981DBF8A040DBF89C70129D85B1049E01
:108CD000B6F5805F40F38081A6F500664FEAE60CAA
:108CE000049E3511129E644405FB06F507EB6527CB
:108CF0000AFB07F5049E0AFB04F406EBE536674D14
:108D00000496AE42A0EBE43480F2D880CBF8A450B5
:108D10000495049D614E641B04FB07F70AEBE73AD8
:108D2000B24580F2B080CBF8A860B246089E199F89
:108D300006FB07F0000B0890CBF848000A980028C3
:108D40000CDD0138CBF8440040B90C98089C002891
:108D5000B8BF404204440894CBF848400C9D159F8E
:108D6000002DB8BF089E149DB8BF74420E9EA8BFC8
:108D7000089C07FB02F205FB06F00AFB04F4D21381
:108D800002EBE03202EBE43212F5004F41DDB2F5C6
:108D9000004FA8BF47F6FF72C0F22C810D9FDDF88F
:108DA0002CC0139827F8022B84450D9700F01B81E7
:108DB0000F930B9810F8013B9B070B907FF57AAE51
:108DC000DBF83C20BBF8B87001320A920C970A9F7E
:108DD000DBF80040DBF81400DBF82830334DCBF82B
:108DE00044700C9F43F233360134013001334FF4A9
:108DF000F022CBF80840CBF81C00CBF83030CBF891
:108E00002450CBF84C70CBF81020CBF83860099682
:108E100063E648F20102C1E7BBF95260244C7604D4
:108E2000370E04F1020C3CF817C0BBF95450CDF8D2
:108E300038C06D04DFF880C01E48360A34F8174089
:108E4000B6B22F0E30F8170001963CF817700E9E40
:108E50002D0ADDF804C0361BADB202973F1A0E96FC
:108E600000950CFB06F605FB07F504EB164600EB38
:108E70001540B6B280B20024CBF85C60CBF860003D
:108E80008BF8504074E6BAF5004FA9BF47F6FF7063
:108E9000CBF8A8A0CBF8A800824647E70180FFFFE7
:108EA0000D6619005FF36E3C000100200080FFFF9B
:108EB00078980108C86A0108CA6A01080498B0F5E0
:108EC000004FA9BF47F6FF70CBF8A400CBF8A40071
:108ED00004901EE7BBF99270494D7F044FEA176C6E
:108EE00035F81C50BBF994600F95464D760435F863
:108EF0001CC0454C454DCDF824C04FEA166C34F8E3
:108F00001C4035F81CC00F9DCDF808C0DDF824C00A
:108F10003F0AC5EB0C0C029DCDF824C0360AC4EB09
:108F2000050C099DBFB2B6B207FB05F706FB0CF6B0
:108F3000DDF83CC004EB16440CEB1747BFB2A4B2FB
:108F40000025CBF89C70CBF8A0408BF89050BCE685
:108F5000B1F5004FA8BF47F6FF71CBF88810A0E627
:108F6000B8F5004FA9BF47F6FF70CBF86880CBF883
:108F7000680080462FE6BBF972502148BBF9744067
:108F8000214B6D042E0E6404871C37F8167030F8E0
:108F9000160003F1020C260E33F816303CF816606A
:108FA0002D0A240AF61AADB23F1AA4B205FB07F542
:108FB00004FB06F400EB154503EB1443ADB29BB282
:108FC0004FF0000CCBF87C50CBF880308BF870C0A1
:108FD00030E60024802039E64FF0000C802581E641
:108FE00000258024CFE51AB0BDE8F00F7047CBF81C
:108FF0006490E3E592B2D1E6CBF8847044E600BF1A
:10900000789801087A980108C86A0108CA6A0108B4
:109010002DE9F00F4FF4406C4FF4C0684FF49667A1
:109020004FF4FA664FF4844500233024012247F2BE
:10903000485B46F6843A45F2F05140F6FE79C0F8B6
:109040000480C0F818C04FF4D058C762A0F89460EC
:109050004FF448574FF40046A0F8B8504FF4005C66
:109060004FF6FF75A0F854B0A0F874A04461846274
:1090700003608360C360C361036203634363C363CC
:1090800043648364436683668365C0F88430C0F8B4
:1090900088308367C0F8A430C0F8A830C0F8983092
:1090A00080F8502080F8702080F89020C0F8B01030
:1090B000C0F8B410C0F84090A0F85280A0F89270A8
:1090C000A0F8C860C0F8C050A0F8C430A0F8C630FE
:1090D000A0F872C0BDE8F00F704700BF2DE9F00F97
:1090E0009CB006460B911092002B00F0B7834068AD
:1090F000B269B46D756EF76A154919901A92B06F1E
:10910000D6F8842015940295D6F89840D6F8A45045
:109110001B97F768DDF82C80D1F800901690B16E9F
:1091200003921794D6F888200495D6F8A84005979E
:10913000306A756BB76C9844CDF828900690079507
:109140000897CDF8608089469346A24687E100BF24
:1091500000010020D6F8C040D6F8B000B26B96F8F7
:1091600070301190601000F57F5001920E9396F8C8
:109170009020336CD6F8B4103F3000EBA40013926B
:109180000F93726CF36C14901291B7683069F569A3
:10919000716A96F85080346B09920D93059A199B69
:1091A000002F02FB03FC4FEA1C320592F26009DD3E
:1091B000013FB76037B980EAE077A7EBE0773A4440
:1091C0000592F2600028B8BF059B069AB8BF5842C6
:1091D0001A9BA8BF059802FB03F7002D4FEA17372B
:1091E000069737620ADD013DF5613DB9069A81EACD
:1091F000E177A7EBE1773A44069232620029B6BFE5
:10920000069B06995942002D40F63D2508440CBFA7
:109210004FF0000CAC468444B8F1000F40F0FA81E6
:10922000326EF56D159F7FB10298B0F5805F40F307
:10923000BA82029BA0F50060C0101911159F02446C
:1092400001FB07F105EB612509FB05F0029B09FB1A
:1092500002F2BD4903EBE0338B420293ACEBE23206
:1092600007DB029FB7F5004FA8BF47F6FF71C0F2BA
:10927000F982716602910298121A02FB05F5B24852
:1092800009EBE539814580F25082B0668146079945
:109290001B9B09EB2C1C01FB03F2002C4FEA123242
:1092A00007927263CDF830C00ADD013C34633CB9EB
:1092B000019A079D002AB8BF52421544079575636D
:1092C000019F43F23331002FB6BF0798079B4342FB
:1092D0000E9A002C08BF00211944002A40F02F826A
:1092E000D6F88030F46F169D75B1039FB7F5805F97
:1092F00040F35682A7F50060C0103A11169D034452
:1093000002FB05F204EB62240BFB04F0039F0BFB52
:1093100003F38D4A07EBE03797420397A1EBE33362
:1093200007DB0398B0F5004FA8BF47F6FF72C0F205
:109330009B82C6F884200392039A83489B1A03FBFE
:1093400004F40BEBE43B834580F2E481C6F888002B
:1093500083467E4B0A9C7E4D03FB04F27D4B139F9C
:1093600013440BEB21112B601A14002F40F0958150
:10937000D6F8A000D6F89C70179C84B1049DB5F572
:10938000805F40F30982A5F500654FEAE50C049D76
:109390002C11179D604404FB05F407EB64270AFBBE
:1093A00007F4049D0AFB00F005EBE435664C0495D8
:1093B000A542A2EBE03080F26481C6F8A440049498
:1093C000049C614D001B00FB07F70AEBE73AAA4536
:1093D00080F24C81C6F8A850AA46089F0F98099AB7
:1093E00007FB00F5002A4FEA15350895B56409DD3D
:1093F000501E706430B90D9A002AB8BF524215440D
:109400000895B5640D9C129F002CB8BF089D119C57
:10941000B8BF6A420C9DA8BF089A07FB01F104FB84
:1094200005F00AFB02F2C91301EBE031149F01EBD6
:10943000E23207FB02F0001410F5004FDDF8408027
:10944000CCBF80B248F2010028F8020BDDF82CC036
:109450001898CDF84080844500F000820A93DDF82A
:109460002CC01CF8013B9B07CDF82CC07FF572AED9
:109470000A9C364B374A03FB04F3B6F8BA001A4489
:10948000002AB6F9C6404FEAA00080F2B281231844
:1094900003F5FF417F314FF6FE75A94240F29581F9
:1094A000231A13F5004F00F390814FF43A514FF413
:1094B000E4534FF4B45048F2010496F85050002D94
:1094C00040F08181B6F85270C71B18BF012796F88B
:1094D000705086F85070A6F85200002D40F066815A
:1094E000B6F8725096F890005D1B18BF012586F8FB
:1094F0007050A6F87230002840F06281B6F89230C1
:10950000CB1A18BF01231393104BA6F8921003FB3C
:1095100002F2104BB6F8BC1013441A1401FB02F20D
:10952000B6F8C810139FDFF8288011EB224286F8A6
:109530009070A6F8C640C8F8003000F17B81B2F503
:10954000803F80F2608107E00180FFFF0D66190017
:10955000000100205FF36E3CC2F34F1101F5CF47CD
:10956000501001F5E24800F57F5095130437941030
:10957000BFB208F148083F3005F6FC751FFA88F8BD
:10958000C4F5AB4C04F5AB410C972018AFB2CDF845
:109590002880C6F8C02014900CF1700C70310F9721
:1095A0001FFA82F8B06AB6F8B84001220D94841808
:1095B000F06B37681044099075690C98A6F8C8805C
:1095C000DDF82880174415440E92C6F8B410A6F8AA
:1095D0005480A6F8740012910F98099986F85020CB
:1095E00086F870209046A24A0A930D9B30647164FD
:1095F000726211464FF4F02043F23332C6F8B0C025
:10960000CDF844C0B760F5613463F3643061B26390
:109610000192C3E5B6F952509649B6F954006D046B
:109620002F0E400401F10208934A944B31F81710B1
:1096300038F81780070E32F8172033F817702D0A04
:10964000000AC1EB0808BF1AADB280B205FB08F5ED
:1096500000FB07F001EB154502EB1042ADB292B2F0
:109660000021F565326686F85010DBE5BAF5004F4B
:10967000A9BF47F6FF72C6F8A8A0C6F8A820924670
:10968000ABE6049AB2F5004FA9BF47F6FF72C6F8E1
:10969000A420C6F8A420049292E6B6F99270754C04
:1096A0007F044FEA176C04F1020838F81C80B6F901
:1096B0009450CDF828806D04DFF8C0816E4834F8EE
:1096C0001C404FEA156C30F81C0038F81CC02D0AFD
:1096D000CDF838C0DDF828C0ADB23F0AC4EB0C08A5
:1096E000BFB20A950E9D139707FB08F7DDF8288097
:1096F000C0EB050C08FB0CF504EB174700EB15401D
:10970000BFB280B20024C6F89C70C6F8A00086F8EC
:10971000904031E6BBF5004FA9BF47F6FF73C6F88E
:1097200088B0C6F888309B4613E6B9F5004FA9BF4C
:1097300047F6FF72C6F86890B2669146A7E5B6F99B
:1097400072404C4AB6F974004B4B6404250E400439
:10975000971C37F8157032F8152003F1020C050E2E
:1097600033F815303CF81550240A000AED1AA4B25B
:10977000BF1A80B204FB07F400FB05F002EB1444AF
:1097800003EB1043A4B29BB24FF0000CF467C6F891
:10979000803086F870C0A6E54FF0000C8024F8E514
:1097A00000208022AAE50020802147E596F890005D
:1097B000012586F87050A6F8723000283FF49EAE5E
:1097C00001251395A0E6012781E647F6FF74A34221
:1097D000B8BF1C46C4EBC401C1F30F2101F5D05042
:1097E00001F5005501F54851A4B280B2ABB289B27F
:1097F00063E6231A03F5FF417F314FF6FE75A94258
:10980000E3D923184DE64FF6FF724FF6FD7C46F67E
:109810008371C6F8C020904640F6FF7047F64712A5
:10982000CDF850C00C910F900A9249F2EF5141F2DD
:10983000F15CB7E6002245F2F051C6F8C020904630
:1098400043F6FF7040F6FC7246F2847447F2481506
:109850008C4614900F920C940A95A3E61CB0BDE8B8
:10986000F00F7047776606E5C6F8840064E500BF30
:109870000080FFFF78980108C86A0108CA6A0108D9
:10988000D0F8E420F0B42D4C930D34F813100234CA
:1098900034F913400BB2E41AC2F38F1303FB04F440
:1098A000B0F9043001EB244189B2002B8CB224DDE5
:1098B000C3EB4310C3EBC020C01324B200F500601B
:1098C00000FB04F01E4E00F10040850D36F8152017
:1098D000023636F9156015B2751BC0F38F1000FB08
:1098E00005F002EB204212B2141B03FB04F3F0BCA0
:1098F00001EBE33188B200B2704712F1804254BFED
:1099000052006FEA42020F4F960D37F81650023799
:1099100037F9166028B2301AC2F38F1202FB00F238
:1099200005EB22452DB224B22C1B5B4203FB04F352
:10993000F0BC01EBE33188B200B27047E07E010871
:10994000E8D00008D47201088388B0F8FC2030B455
:10995000934233D0A3F5004292B2012A31D94FF09D
:109960000061C2F5803591FBF2F491FBF5F1C0F88E
:10997000F840C0F8F4101204C0F8F020A0F8FC3051
:10998000D0F8E430934210D2D0F8F8201B0B02FB41
:1099900003F330BCD80B002BB6BFC0F5FF40A0F5D9
:1099A00000407F3080B200B270479B1AD0F8F410AC
:1099B0001B0B01FB03F303F10043EAE7D0F8F020AF
:1099C000DEE74FF000644FF40061C0F8F840C0F8E3
:1099D000F410D0E7B0F90420D0F8E83002F50042E6
:1099E00012045B009A4204D3D1438B428CBFDB4309
:1099F0001346D0F8E40048F2010147F6FF728342B3
:109A000094BF0846104600B2704700BFB0F904305A
:109A1000D0F8E42003F50043C3EB03131B14023317
:109A20009BB24FF6FF70002A03F1FF3190FBF1F17A
:109A3000ACBF50006FEA4200000C03FB00F089B29B
:109A4000000C00FB01F0A0F5004000B2704700BF21
:109A5000D0F8E420D0F8E810F0B48A42D0F80051F1
:109A6000D0F804312AD31C462B46E41A550C05FBCA
:109A700004F5B0F90410ED13002905EB03002BDB0E
:109A80001B4E170EB51C35F817C036F81750C2F329
:109A90000F22C5EB0C0602FB06F205EB1245C5F3DF
:109AA0004E0505FB04F403EBE4331B1A01FB03F141
:109AB000F0BC00EBE13080B200B270470D4D0E4EAD
:109AC0002C680E4906FB04F421440C14C0F8003144
:109AD0002960C0F80441C8E701F5FF417F3101FB6F
