:020000040800F2
:100000000C040020351B00081D0100080D0100082C
:100010001101000815010008190100080000000086
:1000200000000000000000000000000021010008A6
:100030002501000800000000290100082D0100082A
:100040007D1B00087D1B00087D1B00087D1B000830
:100050007D1B00087D1B00087D1B00087D1B000820
:100060007D1B00087D1B00087D1B0008C5080008DB
:100070007D1B00087D1B00087D1B00087D1B000800
:100080007D1B00087D1B00087D1B00087D1B0008F0
:100090007D1B00087D1B00087D1B00087D1B0008E0
:1000A0007D1B00087D1B00087D1B00087D1B0008D0
:1000B000B10200087D1B00087D1B00087D1B0008A5
:1000C0007D1B00087D1B00087D1B00087D1B0008B0
:1000D0007D1B00087D1B00087D1B00087D1B0008A0
:1000E0007D1B00087D1B00087D1B00080000000030
:1000F0000000000000000000000000000000000000
:1001000000000000000000005FF808F1FEE700BFFB
:10011000FEE700BFFEE700BFFEE700BF704700BF7D
:10012000704700BF704700BF704700BF70B5564AA8
:1001300013780133DBB213709A0700D070BD534CB3
:10014000534D23682846013323602368013323601D
:1001500000F0BCFC2B787F2B7CD04E4D4E4E2846B9
:1001600000F080FAEB884D48DB12336000F04AFC67
:10017000EB893268A3F5004302FB03F3484A1B11E5
:100180001168002BB8BF5B429942A1BFC1EB0303CA
:1001900003EB831343F390335B181360414ADB1185
:1001A00032F9133013F5005311D4B3F5004F25DAAB
:1001B0005B00B3F5404F64DAB3F5004F374A4DDAD0
:1001C000B3F5804F55DA9B110021D373D171364BB3
:1001D0001B78032B0ED8DFE803F02F251E022F4BD0
:1001E0000021FF22197059709970D9701A725A72D1
:1001F0009A72DA72294800F015FC70BDFF20274B77
:10020000FF220021187119739971D9715A715A73AB
:100210009A73DA73DBE72168204B41F30021C9B2FE
:100220000022DFE723681D4AC3F3C1130024D1185D
:10023000FF20D4540872DDE723681B06DAD5174B7C
:10024000FF221A701A725A705A729A709A72DA7081
:10025000DA72CFE7154B01221A707EE7C3F38713DA
:100260000020FF21537153739071D0719173D1733A
:10027000ADE700219B09FF209373D0739171D17179
:10028000A5E7C3F38710BAE75C110020941600209D
:1002900060110020240400204004002010040020ED
:1002A00064150020001D00080C04002084160020A6
:1002B00008B54FF08040012101F02CFC00B908BDC9
:1002C0004FF08040012101F031FC164B1A882ABB07
:1002D000154A164BD1891B68A1F5004103FB01F1BA
:1002E000134B0912D3F8882CD3F88C0C013A01F582
:1002F0000061121A81F30C01C2F3090289B20AB932
:1003000004221A70D3F88C2C501CC0F3090003EBA4
:100310004202C3F88C0CA2F8881408BD013A1A8076
:1003200008BD00BF0000002024040020400400207D
:1003300044040020F8B50A4D07460E4601F04AFA7B
:10034000286801F087FA56B128680024395901F06D
:10035000A3FA2B680434181DA6422860F6D8F8BD0D
:100360008816002070B5114D114C2846002100F070
:10037000CBFB104E00231A4601212046336000F0CB
:1003800091F90D4800F07CFB0C4800F0FBFA284680
:1003900000F00CFC204600F045F9BDE8704001215A
:1003A0000A464FF0804001F0A3BB00BF6815002053
:1003B0002404002094160020601100201004002066
:1003C000F8B5164D164C4FF47A712846002200F00D
:1003D000B9FE0822134620464FF0005100F062FC9F
:1003E000D4F8883C0F4EC4F88C3CD4F8107D0E48ED
:1003F0000E4A0F494FF0100C002385F80CC1C4F8C9
:10040000147DA4F88434A3602370A36123612B704E
:10041000A5F80E31338003701160F8BD6C15002013
:10042000440400208C1600200C04002088160020B4
:10043000004000082DE9F04F83B0FFF793FFFFF76E
:10044000BFFF6E48202101F0B1FAD0B96C4C6D4F5E
:100450002278DFF8CC81042A6B4D694B2CD14FF008
:10046000010A0026D4F8142DD4F8103DDFF890E1ED
:10047000D31A5B060ED0BAF1000F0ED16348002EDE
:1004800038D0634800F0DCF800F0A4FB614800F0CD
:10049000DBFBFEE7BAF1000F08D0022200233A701E
:1004A0002B702B78002BFCD0FFF78AFF002EE8D1B1
:1004B0002278534B042AD2D0D3F88C2CD3F8883C22
:1004C000D31AC3F309031F2B40F29480D4F88C1C79
:1004D000D4F8882C4A4B8A1AC2F309021846002A1B
:1004E00000F088801A78002A7CD0012A7ED000F0A3
:1004F000EFFCEBE7DEF8103D0EEB0302013303F0F7
:100500007F0392F8901CCEF8103D00F07DFE02387B
:100510000328A7D8DFE800F0043D3D020126A1E74B
:10052000B8F800C03C4BDFF8E4900CF0030003EB9C
:1005300000204FF0010B4FF4807209F1010187F8A0
:1005400000B0CDF804C001F01BFBDDF804C02D4B5A
:100550000CEB0B0292B2A8F8002012F003021BD0A1
:100560002E49D4F8103D00224FF0100E0320C4F89D
:10057000143DC4F87814C4F8741489F80020A9F85C
:100580000E21C4F87C24A4F8842489F80CE120709E
:1005900068E74FF0010A65E74FF0030E1E484FF47D
:1005A000806183F800E08DE80C00FFF7C3FED4F80B
:1005B000881C009AC4F88C1CD4F810ED019B102004
:1005C0000221C4F814ED89F80020A9F80E21A4F83E
:1005D0008424A260A261226189F80C0183F800B032
:1005E00021703FE7184600F011FC6FE7184600F055
:1005F0003BFC6BE74FF0000A33E700BF000C014003
:10060000440400200C040020841600206C150020F7
:1006100024040020004000086411002000FCFFFFBB
:100620008C16002010B5054C0121204600F090FFEB
:1006300020460121BDE8104000F0A8BF0024014081
:1006400010B5074C0021204600F0A0FF20460021F5
:1006500000F07EFF20460021BDE8104000F06EBF94
:100660000024014010B50D490379CC6C5A1CD2B25C
:1006700000EB4301CC80042A4371094B08BF0022E0
:10068000995C027107230548012200F089FFBDE84B
:1006900010400248012100F079BF00BF002801404E
:1006A000040000202DE9F04F054693B0894608204C
:1006B0000121904601F0C6F90420012101F0C2F9A0
:1006C0004FF40070012101F0BDF94FF48060012169
:1006D00001F0B8F90120014601F0A8F94FF40040FB
:1006E00001F09AF900260124FF2301A96E48ADF814
:1006F00004308DF806408DF80760032701F0FCF800
:1007000001A96A488DF806408DF80760ADF80470BD
:1007100001F0F2F8664800F091FFB1450CBF0620E9
:10072000204605F10E01DFF898B120224FF4005366
:100730004FF4807C4FF4806E0A9008915C4807A9C2
:100740004FF0800A0F921093CDF834C0CDF838E006
:1007500009960B961196CDF81CB0CDF830A000F09C
:10076000EDFF2146524801F009F8524800F08CFE96
:100770004FF460224FF4006302968DF80C408DF820
:100780000D4004920593B9F1000F5FD002AE3146DF
:1007900048488DF8184000F0ADFE22464548082133
:1007A000062300F0FDFEB8F1000F04D040480221FE
:1007B000012200F0EDFF404800F066FE0124002316
:1007C00031464FF400623C484FF4602602938DF8A6
:1007D0000C308DF80D30059204968DF8184000F01D
:1007E00089FE3448214600F0A9FE324800F0BAFEE6
:1007F000304800F0BDFE0028FAD12E4800F0BCFEC3
:100800002C4800F0BFFE0028FAD12B48012100F04F
:1008100095FE294800F0A6FE274800F0A9FE002812
:10082000FAD1254800F0A8FE234800F0ABFE0028CE
:10083000FAD1224A0323687115602B71C5F8008034
:100840002846FFF70FFF13B0BDE8F08F02AE4FF060
:100850000609314617488DF8189000F04BFE2246E5
:100860004B461448082100F09BFE12480721022243
:10087000052300F095FE3A463B460E48042100F061
:100880008FFE49464B460B48042200F089FE0522A4
:1008900013460848092100F083FE4A463B460548B6
:1008A000052100F07DFE7EE700080140000C0140BC
:1008B000080002400024014000280140901600205A
:1008C0004C24014008B5022000F06CFF012800D044
:1008D00008BD00F075FF044B18680368002BF7D0C3
:1008E0000E30984708BD00BF90160020244B802092
:1008F00030B4586108204023214C4FF400656561F5
:1009000013F0800F4FF4806514BF256165610138D5
:100910001B4C5B004FF4006510F0FF00DBB225615B
:10092000EAD1082316484FF4006444610D064FF4E1
:1009300080644CBF04614461013B114849004FF49D
:10094000006413F0FF03C9B20461EBD108230C4922
:100950004FF40060486114064FF480604CBF08619A
:100960004861013B064952004FF4006013F0FF0359
:10097000D2B20861EBD130BC80230B61704700BF5D
:10098000000C014070B51E4C82B0054601210820C4
:1009900001F058F84FF4486603221023204601A9BD
:1009A0008DF806208DF80730ADF8046000F0A4FF44
:1009B000802323612A4605F10803002102F8011B68
:1009C0009A42FAD105F11002002403F8014B934238
:1009D000FAD12846214622462C74FFF787FF284685
:1009E00022460121FFF782FF284622460221FFF717
:1009F0007DFF284622460321FFF778FF02B070BD35
:100A0000000C0140024600F10803002102F8011B1E
:100A10009A42FAD11030002203F8012B8342FAD116
:100A2000704700BF38B50546007C00232030C0B2B7
:100A300028741C469AB2032A94BF1A1DC3F10702F8
:100A4000D2B2A918AA5CA4000133A4B21AB1904290
:100A500098BF44F001040A7A1AB1904298BF44F05A
:100A60000204082BE6D12846220A1221FFF73EFF96
:100A70002846E2B21321BDE83840FFF737BF00BF78
:100A800030B5012183B00446082000F0DBFF0D489B
:100A9000012100F091FF7025012248230A4801A995
:100AA0008DF80620ADF804508DF8073000F024FFD3
:100AB0002046E21CFF2300F8013B9042FAD103B02C
:100AC00030BD00BF00013000000C014070B50C4B80
:100AD00005469A88186882B00090ADF8042000247A
:100AE0003DF8141007482E5D00F060FF7600F6B266
:100AF000304328550134032CF2D102B070BD00BF41
:100B0000041F0008000C014010B50C4684B000F032
:100B1000F3FB84BB4FF4A06000F06AFC01200146A7
:100B200000F09CFF40F2DB534FF08040ADF80830FE
:100B3000ADF80440ADF80A40ADF806408DF80C4021
:100B400000F0E0FF01A94FF0804000F09FFF01217D
:100B50004FF0804000F0BEFF1C22012368468DF854
:100B600001408DF802408DF800208DF8033000F030
:100B700049FC04B010BD4FF480414FF0006000F01C
:100B800079FC4FF4A06000F033FC00230B2101221C
:100B900001A88DF804108DF805308DF806308DF819
:100BA000072000F02FFC04B010BD00BF30B4074B8D
:100BB000074844F24F65F0245D60002180F823402F
:100BC0000722996030BC1A60704700BF10E000E057
:100BD00000ED00E0164A174810B4174B4FF0FF31F4
:100BE0000424C2F88010C2F88410C2F88011C2F840
:100BF000841104601968114A41F0010119601468F8
:100C00000F491048214011601968002421F08471B7
:100C100021F480311960196821F48021196013686A
:100C200023F4FE03136004605DF8044B704700BFBB
:100C300000E100E010E000E000100240A0100240DF
:100C40000000FFF84011024010B54468006800F051
:100C50004FFBA04710BD00BF70B51C2604463246AE
:100C60000021383001F002F84FF4007532460021BF
:100C700004F1540000F0FAFF2A46002104F170004C
:100C800000F0F4FF2A4604F51C70002100F0EEFF8E
:100C9000B4F880240023A4F882242361A361A4F87B
:100CA000703470BD70B4104C064654F822003446BF
:100CB0000022855E02320E2AE56104F10404F8D1B7
:100CC00000224FF40020C6F88C2C7060C6F8882CE7
:100CD000A6F88034C6F8142D71613046C6F8102D80
:100CE00070BCFFF7B9BF00BF4C1F00082DE9F0072B
:100CF000B0F88094B0F8708409F1FF3708F5807C73
:100D00000024012F1FFA8CFC25460FDD0123C3EBC5
:100D10000C02D2B200EB42020133B2F970609BB216
:100D2000B2F97022BB4235441444F0DB002944D0B0
:100D3000C9EB0C0C1FFA8CFC0CF1020200EB48030F
:100D4000D2B23832B3F97070B3F970A230F91260D0
:100D500085EAE579A9EBE57984EAE471A1EBE47130
:100D60002F44A244BF1B4944C6EB0A0686EAE67933
:100D7000A9EBE6790CF1010208F1FF0387EAE77CB1
:100D8000ACEBE77C01EB8101CC44D2B2DBB2890849
:100D900000EB420200EB43038C45B2F87090B2F8CE
:100DA0007082B3F87020B3F8703210D9B0F8823482
:100DB000344601333D46A0F88234002DACBF0220FA
:100DC0000020002CA8BF0130BDE8F00770470FFAE3
:100DD00089F90FFA88F8A944A04412B21BB2C2EBF9
:100DE0000902C3EB080382EAE277A7EBE27783EA22
:100DF000E376A6EBE3763E448E42DED9B0F8821469
:100E00001C464B1E1546A0F88234D6E710B416E0F7
:100E1000D0F8881C426800EB4103B3F8884483682B
:100E200024B201330131A4EB2224C1F3090122448D
:100E3000B3F5805FC0F8881C426083600BD2D0F8A5
:100E40008C2CD0F8883CD31AC3F30903002BDFD1D4
:100E50005DF8044B7047002301228360C360027079
:100E60005DF8044B704700BF70B41CE0D0F8884CAC
:100E7000416800EB4403B3F8883482681BB2A3EBEB
:100E8000212303FB03F6C56801320134C4F30904CE
:100E90000B4405EB2615B2F5805FC0F8884C436023
:100EA000C56082600AD2D0F88C2CD0F8883CD31A66
:100EB000C3F30903002BD9D170BC70470023B5F5EB
:100EC000F03F8360C360EED302230370F4E700BFFA
:100ED0002DE9F0410446D4F88C2CD4F8883CD31A80
:100EE000C3F30903002B00F0FB80D4F814C027697A
:100EF000D4F8881C67443D0E914805F1400204EB8C
:100F00004103B3F88834D2B230F91280626830F904
:100F100015601BB2A3EB2223C8F1000803FB08F8FD
:100F200006FB03F601311344C1F3090100224FEA25
:100F3000282836126360C4F8881CC4F85480A6635D
:100F400015461046234602E0D3F854809E6BD969BB
:100F500004321C2A08FB010006FB015503F10403BF
:100F6000F2D1234600229E6ED96C043A12F1180F7A
:100F7000DE661965A3F10403F5D100282378ACBF20
:100F80004FF001084FF0FF38002DACBF01224FF0A9
:100F9000FF32022B1CBF08FB05F802FB1088A66974
:100FA00008BFC5EB000806EB4606B4F8702406EB54
:100FB00008018E100CEBE10C2D1204EB4201001223
:100FC00007EBC6072761A661C4F814C0A1F87050EA
:100FD000A1F87002B4F8821401320139D2B289B298
:100FE000A4F87024A4F8821449B9B4F88024032B1F
:100FF000A4F8822425D0052B13D0022B03D0032B79
:101000007FF469AF28E02046FFF770FE38B9B4F8E6
:10101000843401339BB2202BA4F8843462D023782B
:10102000EDE720460121FFF761FED4F8143DE218F8
:10103000013382F8900C03F07F02C4F8142D23785A
:10104000DDE7D4F8143D04215A1C02F07F0223444A
:1010500083F8901CC4F8142DB4F87064B4F880546C
:1010600006F58076B6B26F00002D67D000221346D9
:101070001146B21AD2B204EB42029D42B2F970C0DC
:1010800094BF01204FF0FF300CFB001103F101036E
:10109000B2F970229BB294BF4FF0FF300120BB42E7
:1010A00000FB02111A46E4DBD4F87C348B42B8BF53
:1010B000C4F87C140029BCBF0023C4F87C34D4F8E5
:1010C00074348B4207DDD4F87824934203DDD4F8DE
:1010D0007C24934217D0C4F87834C4F87414FAE628
:1010E000BDE8F081D4F8101DA3F584630322C4F891
:1010F0007C04A4F88404C4F8141DC4F87834C4F83B
:1011000074342270A8E7A6EB5502D2B204EB420277
:10111000B2F970000028DEDAB2F97022002ADADDB6
:10112000B4F88424013D013292B2042AA4F8842444
:1011300004BF05222270A4F88254CCE73946B3E7F5
:1011400008000020002310B4102480F80C41A0F8FF
:10115000101180F812210370A0F80E31A0F80A31A6
:10116000C0F814315DF8044B704700BF90F80C31A3
:101170000B41DB0706D504290AD8DFE801F0283C3B
:1011800006321400032303707047022380F80C31E9
:1011900090F80D3133B90122A0F806314370A0F860
:1011A000083102707047B0F80E31B0F810210133E9
:1011B0009BB29A42A0F80E3102D8B0F80A3103BBB4
:1011C0001622102380F80C2180F80D31704790F81A
:1011D0000D310822013BDBB280F80D3180F80C2183
:1011E000D8E790F80D310122013BDBB280F80D31D8
:1011F00080F80C21CEE70C2380F80C3190F80D31EB
:10120000C8E7052303707047037870B50A460446A3
:101210009BB1012B0FD1B0F80651B0F8080161194C
:101220004E78013080B2324304284A70A4F8080195
:1012300008D092004A70184670BDFFF797FF2378D8
:10124000184670BD0135ADB20022B5F5827FA4F815
:101250000651A4F8082102D02C446270EBE7214D1E
:10126000621C04F201104FF0FF3312F8011B5940C9
:10127000C9B255F82110824281EA1323F5D194F8BE
:10128000021194F80101090494F8042141EA006074
:1012900094F803110243DB4342EA01229A4207D049
:1012A00004232370B4F80A210132A4F80A21C2E70A
:1012B00094F812310222227093B1D4F81431002232
:1012C0000948A1184D7800FB03F085EA1365013247
:1012D000064BB2F5807F4D700344F1D1C4F8143150
:1012E0000223DFE7B01F00080D6619005FF36E3CB4
:1012F00080F30888704700BF3A4B10B419683A4A27
:1013000041F0010119605C6883B022405A601A689C
:10131000002122F0847222F480321A601A684FF49D
:101320001F0022F480221A605A6822F4FE025A60DA
:101330009860009101911A6842F480321A6003E0CB
:10134000009BB3F5A06F0AD0264B1B6803F4003353
:101350000193009B01330093019B002BF0D0214BA4
:101360001B6813F4003318BF01230193019B012B69
:1013700000D0FEE71D4A1B4B116841F010011160BF
:10138000116821F003011160116841F00201116040
:101390005A685A605A685A605A6842F480625A60C1
:1013A0005A6822F47C125A605A6842F4E8125A6071
:1013B0001A6842F080721A600A4B1A689201FBD5D3
:1013C0005A6822F003025A605A6842F002025A60D8
:1013D000044B5B6803F00C03082BF9D103B05DF8F4
:1013E000044B7047001002400000FFF8002002404C
:1013F00040F0BF60024B40F40030D860704700BF3F
:1014000000ED00E0C37830B45BB90378012103F04C
:101410001F02914030BC5B09144A203342F823106C
:101420007047134B4478DB680F22DB43C3F302237E
:10143000C3F1040122FA03F38C408578017803EAB2
:101440000502224301F160431201D2B203F5614368
:1014500083F800230378012103F01F02914030BC80
:10146000024A5B0942F82310704700BF00E100E028
:1014700000ED00E021F0604121F07F01014B0843C5
:101480009860704700ED00E008B5174B984212D005
:10149000164B98421BD0164B984200D008BD4FF413
:1014A0000040012100F0E6FABDE808404FF400409A
:1014B000002100F0DFBA4FF40070012100F0DAFAE9
:1014C000BDE808404FF40070002100F0D3BA4FF49B
:1014D0008060012100F0CEFABDE808404FF4806042
:1014E000002100F0C7BA00BF0024014000280140DD
:1014F000003C014043680A6823F4702330B423F4AD
:1015000080730C79134343EA0423436085688C6835
:10151000CA68094B22432B404D79134343EA4503E4
:1015200083600B7CC26A013BDBB222F4700242EAA8
:101530000353C36230BC7047FDF7F1FF836819B9EC
:1015400023F001038360704743F001038360704719
:10155000836819B923F480738360704743F4807300
:1015600083607047836843F008038360704700BF5F
:101570008068C0F3C0007047836843F00403836051
:10158000704700BF8068C0F380007047836819B956
:1015900023F4A0038360704743F4A0038360704783
:1015A000092970B41FD9A1F10A0404EB44040726E9
:1015B000A64003FA04F4C568062A25EA060343EAAE
:1015C0000403C3601DD90C2A29D970BC0D3A02EB63
:1015D00082021F23934001FA02F2C16A21EA030347
:1015E0001A43C262704701EB41040726A64003FA82
:1015F00004F40569062A25EA060343EA04030361A5
:10160000E1D870BC013A02EB82021F23934001FA39
:1016100002F2416B21EA03031A4342637047073A1F
:1016200002EB82021F23934070BC01FA02F2016BAD
:1016300021EA03031A430263704700BF0168324A7C
:10164000002321F001019042016003604360836048
:10165000C36044D02D4B984225D02D4B984230D0BA
:101660002C4B984234D02C4B984223D02B4B984291
:101670003BD02B4B98420FD02A4B98423CD02A4B60
:10168000984210D0294B98421BD0294B98421FD02A
:10169000284B98420ED0704753F87C2C42F0706271
:1016A00043F87C2C704753F8182C42F0F00243F8B2
:1016B000182C704753F8542C42F4702243F8542CE1
:1016C000704753F82C2C42F4706243F82C2C70476E
:1016D00053F8402C42F4704243F8402C7047164BAC
:1016E0005A6842F00F025A60704753F8682C42F46F
:1016F000700243F8682C704753F8042C42F00F0234
:1017000043F8042C704700BF080002401C00024050
:101710003000024044000240580002406C00024089
:1017200080000240080402401C04024030040240D1
:101730004404024058040240000002408A68F0B4A9
:101740000C6A0B6914434A691C438B69CE692243B6
:1017500007684D6A13438C6A1E43354327F4FF43E1
:10176000CE680F684A682C4323F07003234303605C
:1017700046608760C260F0BC704700BF036819B95B
:1017800023F001030360704743F0010303607047D7
:1017900003681AB923EA0101016070471943016027
:1017A000704700BFC3004CBF034B044B1B68034290
:1017B0000CBF0020012070470004024000000240DE
:1017C000C3004CBF014B024B5860704700040240FD
:1017D00000000240024B0349034A59605A607047B7
:1017E0000020024023016745AB89EFCD084BDA6842
:1017F000D1070BD4DA68520701D502207047DB68A5
:1018000013F0100F0CBF0420032070470120704715
:101810000020024010B582B00446FFF7E7FF012820
:1018200012D1A4B1FF23002201920193019B2BB19D
:10183000019B013B0193019B002BF9D1FFF7D6FFE0
:10184000012804F1FF34ECD00CB102B010BD05202A
:1018500002B010BD38B5054640F6FF70FFF7DAFF5D
:10186000042800D038BD0B4C40F6FF70236943F0CC
:10187000020323616561236943F040032361FFF79D
:10188000C9FF0528EED0226941F6FD73134023619C
:1018900038BD00BF0020024070B5002382B005466D
:1018A0000F200C460193FFF7B5FF042801D002B0CA
:1018B00070BD104EA3B232690F2042F001023261B6
:1018C0002B80FFF7A7FF042808D00528EFD0326946
:1018D00041F6FE731340336102B070BD02350195CD
:1018E000019B240C1C800F20FFF794FF0528EED1EC
:1018F000DDE700BF00200240F0B4CD78EB0648BF22
:101900008B78098805F00F0648BF1E4311F0FF0FC2
:1019100020D00768002302E00133082B19D00122F0
:101920009A4002EA01049442F6D19A004FF00F0C5B
:101930000CFA02FC06FA02F227EA0C07282D47EA05
:10194000020731D0482D03F1010308BF0461082BC1
:10195000E5D10760FF2923D94768002302E001335E
:10196000082B1CD0012403F1080204FA02F202EA57
:1019700001049442F3D19A004FF00F0C0CFA02FCD0
:1019800006FA02F227EA0C07282D47EA020709D0D7
:10199000482D03F1010308BF0461082BE2D1476021
:1019A000F0BC70474461DAE74461B5E783681942E7
:1019B0000CBF00200120704730B4164A00F44014D8
:1019C000B4F5401F85B253681CD0C20211D5C0F3D4
:1019D0000342032404FA02F223EA020343F0706391
:1019E00019B1400D000185402B430A4A30BC5360B9
:1019F0007047420D120105FA02F223EA020343F096
:101A00007063EDE7546823F0706324F070645460F1
:101A1000E6E700BF00000140034B5A6822F4404251
:101A200010435860704700BF00100240044B5A69D1
:101A300019B922EA00005861704710435861704795
:101A400000100240044B9A6919B922EA000098611B
:101A5000704710439861704700100240044BDA69E8
:101A600019B922EA0000D86170471043D861704765
:101A700000100240044BDA6819B922EA0000D8606D
:101A800070471043D860704700100240038830B49C
:101A900003F08F0303800588CA884B88ADB21543D5
:101AA0001D430B4B8C880A88ADB298420580848513
:101AB000028507D003F50063984203D030BC0123B0
:101AC000838270470B7A30BC038601238382704780
:101AD000002C0140038829B923F001039B059B0DCD
:101AE000038070479BB243F001030380704700BF3F
:101AF00083899BB21AB923EA010181817047194396
:101B000081817047038923F007031B041B0C0381A9
:101B1000704700BF038A828911EA030092B203D0A2
:101B200011420CBF00200120704700BFC94389B299
:101B300001827047002100F004B80B4B5B58435002
:101B400004310A480A4B42189A42FFF4F6AF094A98
:101B500000F003B8002342F8043B074B9A42FFF41D
:101B6000F9AFFEF767FC7047C823000800000020AB
:101B70000C0200200C04002098160020FFF7FEBF86
:101B8000844641EA000313F0030349D1403A23D3CA
:101B90000B6803604B6843608B688360CB68C360ED
:101BA0000B6903614B6943618B698361CB69C361D5
:101BB0000B6A03624B6A43628B6A8362CB6AC362BD
:101BC0000B6B03634B6B43638B6B8363CB6BC363A5
:101BD00040304031403ADBD230320BD30B680360E7
:101BE0004B6843608B688360CB68C36010301031F2
:101BF000103AF3D20C3205D351F8043B40F8043BC1
:101C0000043AF9D2043208D0D2071CBF11F8013BC4
:101C100000F8013B01D30B8803806046704700BF8A
:101C2000082A13D38B07B1D010F00303AED0C3F151
:101C30000403D21ADB071CBF11F8013B00F8013B7B
:101C4000A4D331F8023B20F8023B9FE7043AD9D3F2
:101C5000013A11F8013B00F8013BF9D20B7803700F
:101C60004B7843708B78837060467047F0B484077C
:101C700043D0541E002A3ED0CDB2034603E0621E7C
:101C8000002C38D0144603F8015B9A07F7D1032CD7
:101C90002AD9CDB245EA05250F2C45EA054515D9C7
:101CA000A4F110073F0903F1100606EB07161A46C8
:101CB000156055609560D5601032B242F8D104F0DD
:101CC0000F040137032C03EB07130DD91E462246E0
:101CD000043A032A46F8045BFAD8221F22F00302D2
:101CE0000432134404F003042CB1C9B21C4403F8B9
:101CF000011BA342FBD1F0BC704714460346C6E764
:101D00000080008000A0B9B200C04ECAB9D2D6D9B6
:101D100000E071E54EEAB4EEB9F26BF6D6F906FDD5
:101D20000000CC027005EF074D0A8D0CB30EC110F8
:101D3000B8129A146A162818D519741B051D881E26
:101D400000206B21CC2223247025B326EF272229E3
:101D50004D2A712B8D2CA32DB32EBD2FC130BF3139
:101D6000B832AB339A3484356A364B372838003969
:101D7000D539A73A743B3E3C053DC83D883E453FBA
:101D80000040B7406B411D42CC4279432344CA44D2
:101D900070451346B3465247EF4789482249B84930
:101DA0004D4AE04A714B004C8D4C194DA34D2C4EC1
:101DB000B34E394FBD4F3F50C1504051BF513C52BF
:101DC000B8523253AB5323549A5410558455F75597
:101DD0006A56DB564B57BA572858945800596B59D6
:101DE000D5593E5AA75A0E5B745BDA5B3E5CA25C27
:101DF000055D675DC85D295E885EE75E455FA35F40
:101E000000605B60B76011616B61C4611D627562E7
:101E1000CC6223637963CE6323647764CA641D65EF
:101E20007065C16513666366B36603675267A16731
:101E3000EF673C688968D66822696D69B869036A8A
:101E40004D6A966AE06A286B716BB86B006C476CE0
:101E50008D6CD46C196D5F6DA36DE86D2C6E706E1A
:101E6000B36EF66E396F7B6FBD6FFE6F3F70807023
:101E7000C170017140718071BF71FD713C727A72E5
:101E8000B872F57232736F73AB73E77323745F7458
:101E90009A74D57410754A758475BE75F775317668
:101EA0006A76A276DB7613774B778277BA77F1770B
:101EB00028785E789478CB78007936796B79A07938
:101EC000D5790A7A3E7A737AA77ADA7A0E7B417BE1
:101ED000747BA77BDA7B0C7C3E7C707CA27CD37C01
:101EE000057D367D677D987DC87DF87D297E597E8C
:101EF000887EB87EE77E167F457F747FA37FD17F83
:101F0000D17F00002000100040000000ECFF2800FE
:101F1000C9FF4000FF004000C9FF2800EBFFCDFFD4
:101F20007B00FF007B00CDFFEBFF0000BAFF190034
:101F3000B400FF00B4001900BAFF0000DDFF550037
:101F4000CD00FF00CD005500DDFF000000000000C7
:101F500000000000000000000C1F00081C1F00080B
:101F6000000000002C1F0008000000003C1F0008BB
:101F7000000000000000000000000000901F0008AA
:101F8000000000000000000000000000A01F00088A
:101F90002D009500E300FF00E30095002D000000F8
:101FA00000006200B400EC00FF00EC00B40062002E
:101FB00000000000963007772C610EEEBA510999A7
:101FC00019C46D078FF46A7035A563E9A395649E03
:101FD0003288DB0EA4B8DC791EE9D5E088D9D29727
:101FE0002B4CB609BD7CB17E072DB8E7911DBF9083
:101FF0006410B71DF220B06A4871B9F3DE41BE84A7
:102000007DD4DA1AEBE4DD6D51B5D4F4C785D38302
:1020100056986C13C0A86B647AF962FDECC9658AA6
:102020004F5C0114D96C0663633D0FFAF50D088D02
:10203000C8206E3B5E10694CE44160D5727167A2A6
:10204000D1E4033C47D4044BFD850DD26BB50AA502
:10205000FAA8B5356C98B242D6C9BBDB40F9BCAC26
:10206000E36CD832755CDF45CF0DD6DC593DD1AB82
:10207000AC30D9263A00DE518051D7C81661D0BFA6
:10208000B5F4B42123C4B3569995BACF0FA5BDB802
:102090009EB802280888055FB2D90CC624E90BB1A6
:1020A000877C6F2F114C6858AB1D61C13D2D66B602
:1020B0009041DC760671DB01BC20D2982A10D5EF66
:1020C0008985B1711FB5B606A5E4BF9F33D4B8E8C2
:1020D000A2C9077834F9000F8EA8099618980EE166
:1020E000BB0D6A7F2D3D6D08976C6491015C63E6C2
:1020F000F4516B6B62616C1CD83065854E0062F2E6
:10210000ED95066C7BA5011BC1F4088257C40FF541
:10211000C6D9B06550E9B712EAB8BE8B7C88B9FC65
:10212000DF1DDD62492DDA15F37CD38C654CD4FBC1
:102130005861B24DCE51B53A7400BCA3E230BBD465
:1021400041A5DF4AD795D83D6DC4D1A4FBF4D6D3C1
:102150006AE96943FCD96E34468867ADD0B860DA65
:10216000732D0444E51D03335F4C0AAAC97C0DDDC1
:102170003C710550AA41022710100BBE86200CC9E5
:1021800025B56857B3856F2009D466B99FE461CE41
:102190000EF9DE5E98C9D9292298D0B0B4A8D7C765
:1021A000173DB359810DB42E3B5CBDB7AD6CBAC0C1
:1021B0002083B8EDB6B3BF9A0CE2B6039AD2B174DD
:1021C0003947D5EAAF77D29D1526DB048316DC7339
:1021D000120B63E3843B64943E6A6D0DA85A6A7ADD
:1021E0000BCF0EE49DFF099327AE000AB19E077D39
:1021F00044930FF0D2A3088768F2011EFEC206695D
:102200005D5762F7CB67658071366C19E7066B6EB8
:10221000761BD4FEE02BD3895A7ADA10CC4ADD67DC
:102220006FDFB9F9F9EFBE8E43BEB717D58EB06038
:10223000E8A3D6D67E93D1A1C4C2D83852F2DF4FDC
:10224000F167BBD16757BCA6DD06B53F4B36B24838
:10225000DA2B0DD84C1B0AAFF64A0336607A0441DC
:10226000C3EF60DF55DF67A8EF8E6E3179BE694638
:102270008CB361CB1A8366BCA0D26F2536E268525C
:1022800095770CCC03470BBBB91602222F260555B8
:10229000BE3BBAC5280BBDB2925AB42B046AB35CDC
:1022A000A7FFD7C231CFD0B58B9ED92C1DAEDE5B38
:1022B000B0C2649B26F263EC9CA36A750A936D021C
:1022C000A906099C3F360EEB856707721357000578
:1022D000824ABF95147AB8E2AE2BB17B381BB60C9C
:1022E0009B8ED2920DBED5E5B7EFDC7C21DFDB0BF8
:1022F000D4D2D38642E2D4F1F8B3DD686E83DA1F1C
:10230000CD16BE815B26B9F6E177B06F7747B71877
:10231000E65A0888706A0FFFCA3B06665C0B01111B
:10232000FF9E658F69AE62F8D3FF6B6145CF6C1677
:1023300078E20AA0EED20DD75483044EC2B303391B
:10234000612667A7F71660D04D476949DB776E3E77
:102350004A6AD1AEDC5AD6D9660BDF40F03BD8379B
:1023600053AEBCA9C59EBBDE7FCFB247E9FFB530F7
:102370001CF2BDBD8AC2BACA3093B353A6A3B4241B
:102380000536D0BA9306D7CD2957DE54BF67D92377
:102390002E7A66B3B84A61C4021B685D942B6F2A1B
:1023A00037BE0BB4A18E0CC31BDF055A8DEF022D77
:1023B000F8B500BFF8BC08BC9E467047F8B500BF32
:0823C000F8BC08BC9E46704702
:1023C800401F000002030100000032006400960074
:1023D800C800FA002C015E018F01C001F101220240
:1023E80052028202B102E1020F033D036B0398031C
:1023F800C503F1031C04470471049B04C304EB04E4
:10240800130539055F058405A805CB05ED050E06FE
:102418002F064E066C068A06A606C206DC06F506D8
:102428000E0725073B0750076407760788079807B4
:10243800A707B507C207CE07D807E107E907F007DE
:10244800F607FA07FD07FF070008FF07FD07FA0769
:10245800F607F007E907E107D807CE07C207B5076F
:10246800A707980788077607640750073B072507DB
:102478000E07F506DC06C206A6068A066C064E0698
:102488002F060E06ED05CB05A80584055F05390561
:102498001305EB04C3049B04710447041C04F103F3
:1024A800C50398036B033D030F03E102B1028202E7
:1024B80052022202F101C0018F015E012C01FA00D3
:1024C800C8009600640032000000CEFF9CFF6AFF3F
:1024D80038FF06FFD4FEA2FE71FE40FE0FFEDEFDB1
:1024E800AEFD7EFD4FFD1FFDF1FCC3FC95FC68FCB5
:1024F8003BFC0FFCE4FBB9FB8FFB65FB3DFB15FBCD
:10250800EDFAC7FAA1FA7CFA58FA35FA13FAF2F991
:10251800D1F9B2F994F976F95AF93EF924F90BF997
:10252800F2F8DBF8C5F8B0F89CF88AF878F868F89B
:1025380059F84BF83EF832F828F81FF817F810F851
:102548000AF806F803F801F800F801F803F806F8A5
:102558000AF810F817F81FF828F832F83EF84BF880
:1025680059F868F878F88AF89CF8B0F8C5F8DBF8F4
:10257800F2F80BF924F93EF95AF976F994F9B2F917
:10258800D1F9F2F913FA35FA58FA7CFAA1FAC7FA2E
:10259800EDFA15FB3DFB65FB8FFBB9FBE4FB0FFC7C
:1025A8003BFC68FC95FCC3FCF1FC1FFD4FFD7EFD68
:1025B800AEFDDEFD0FFE40FE71FEA2FED4FE06FF5C
:0C25C80038FF6AFF9CFFCEFF00000000FF
:0400000508000000EF
:00000001FF
