:020000040800F2
:1040000028020020057B00089D5300088D530008FE
:1040100091530008955300089953000800000000D0
:10402000000000000000000000000000A153000894
:10403000A553000800000000A9530008AD53000874
:104040004D7B00084D7B00084D7B00084D7B000830
:104050004D7B00084D7B00084D7B00084D7B000820
:104060004D7B00084D7B00084D7B0008A16C0008CB
:104070004D7B00084D7B00084D7B00084D7B000800
:104080004D7B00084D7B00084D7B00084D7B0008F0
:104090004D7B00084D7B00084D7B00084D7B0008E0
:1040A0004D7B00084D7B00084D7B00084D7B0008D0
:1040B0004D7B00084D7B00084D7B00084D7B0008C0
:1040C0004D7B00084D7B00084D7B00084D7B0008B0
:1040D0004D7B00084D7B00084D7B00084D7B0008A0
:1040E0004D7B00084D7B00084D7B00080000000060
:1040F00000000000000000000000000000000000C0
:1041000000000000000000005FF808F1002200231A
:10411000C0E90823704700BF002830B44FF0000406
:104120003EDDB0F5007F0ADB4010B0F5007F04F5FE
:104130008034F9DAFF2804DC4000A4F58034FF283D
:10414000FADD1A4DA0F5807055F82000204440108B
:10415000A0F57020411A25D402FB01F04FF6FE7441
:10416000A1EB2020A04202DD30BC40427047022B70
:10417000FAD102120E4B511C33F8114033F81220C1
:10418000C1B2A31A01FB03F1C0F57F4302EB212268
:10419000FF33121A5B1003FB02F300EBE330E3E79B
:1041A0000120C9E7002030BC704700BFF88F00082D
:1041B000089A00082DE9F04FD0E90A8902FB02F4C1
:1041C000E51726462F46B6EB080667EB0907824639
:1041D000012E77F1000085B093469C465ADBCAE970
:1041E0000A45A046A946B8F5801F79F1000203DA16
:1041F00001FB01F10C46CD1726462F46DAE90823CC
:10420000B61A67EB0307012E77F1000059DBDAE9F4
:104210000489B9F1FF3F08BFB8F1FF3F0DD006FB9D
:1042200009F4A6FB080108FB07484144C40F44EA0F
:104230004104CD17A41845EB0305DAF800209AF8DD
:104240000C30DAF80410CAE908452046CDF804C05D
:10425000FFF762FFDAF8082040F2DE33024403FB86
:1042600002F31B1403F5FF437F334FF6FF72DDF8B3
:1042700004C09342A8BF1346C010CAF83000ACF87F
:1042800000309AF80C30012B27D00E9B1A8005B015
:10429000BDE8F08F43F25E70A6FB002300FB073001
:1042A000CDE9022303900298C20F039842EA40022C
:1042B00018EB02084FEAE07349EB0309CAE90A89DF
:1042C00091E7DAF81C10DAF8184006FB01F5A4FBB8
:1042D000060104FB07563144A8E70E990BF5FF4B86
:1042E0000BF17F0BA1F800B005B0BDE8F08F00BF67
:1042F00070B40446104D44F8041B06460FCD7060A0
:104300006160E360A260288806F11401002314F8BC
:10431000012B13448C429BB2F9D1984209D04FF43F
:10432000004340F26722B3803381F3807381B2810E
:10433000F28170BC704700BF00FC01080368DA8995
:10434000A2F5E04292B2B2F5005F17D81A8AA2F540
:10435000E04292B2B2F5005F10D89A8AA2F5E0422C
:1043600092B2B2F5005F09D8D88AA0F5E04080B2D9
:10437000B0F5005F8CBF002001207047002070471F
:10438000036810B4198ADC899A8ADB8A84800181E7
:10439000C28043815DF8044B704700BFF8B5074603
:1043A00003F030F90E4803F06DF93D1D0C4C2E461C
:1043B000204656F8041B03F087F90A4B04349C424C
:1043C000F6D107F11400002115F8013B194485428C
:1043D00089B2F9D10348BDE8F84003F0A5B900BFA0
:1043E00000FC010810FC010830B400F1220200F1C9
:1043F0002A01002302F8013B8A42FAD1022247F641
:10440000FF754FF4005401218580848243874380E7
:10441000C380438280F82230036343638385C3856E
:1044200043658365037080F85130A0F84C30A0F8E4
:104430004E300287428580F8231030BC704700BFA1
:104440002DE9F00F816C446C056CC66BC1EB050C5B
:10445000361B057884B004EB262601EB2C2C019644
:1044600003934664C0F848C0EDB943F255539A42ED
:1044700040F3C080B0F83890B0F92A3001214B45A4
:1044800080F85150017000F0B780C58D00210B46B7
:1044900085854185016300910F46846D4FF0020BC5
:1044A0004FF0010A22E041F6A9239A4240F38B80A3
:1044B000836DD41A03EB24248465016B436B99420A
:1044C00080F08980468D002133B200EB4303013632
:1044D0009D88B6B237B2B0F838900B4685854685D0
:1044E00007F1010A016300914FF0020BB0F83A8026
:1044F000B8F1000F02D0B84500F094804F4500F0AD
:10450000978000EB4708B8F81290DFF85C814FEA1B
:10451000292958F8296002964FEAD619074497F8D6
:104520002280504F00EB4A0A57F82870DDF80080CF
:1045300037F80BB037F80860BAF902A0C6EB0B0BDE
:1045400003FB0BF32FB206EB1343C3F34E03C7EB8E
:104550000A0703FB07F705EBE735ADB22BB2C3F54E
:10456000FF467F3606FB06F6F61306FB06F6F71344
:10457000C7F5FF477F37FF1A04FB07F7466D43F285
:10458000555A5245D8BF0022921B06EB223603EB48
:10459000E737029BE410F21104F5E04809FB02340E
:1045A00007FB08F390F850202144C585DB134665CE
:1045B0000163446312B3012A3FD0022A1ED004B023
:1045C000BDE8F00F704700230370016B436B846DEF
:1045D0009942FFF477AF0E0EB0F92A70760000967C
:1045E00006F1020B07F1010AB0F83890858DC1F38E
:1045F0000F237BE7846D60E7458847E7019EDDF880
:104600000C8003FB06F20C9903EB032343F3102306
:104610000CEBE23CA8F80030A1F800C004B0BDE803
:10462000F00F704790F80080B8F1000F3FF466AFCC
:104630004FF00009CDF8089070E7019EC3F5FF43E5
:104640007F3303FB06F3DDF80C800C9920220CEB82
:10465000E33CA8F80020A1F800C004B0BDE8F00FCA
:10466000704700BF00000020E07B000870B50646E0
:10467000002500F0EBFE01244FF4B4533046738064
:10468000B58000F81C4B00F0E1FE4FF42C5335844C
:104690003477F38331467019043500240022002357
:1046A0000C2DCC638C63C1E91423C1E9262301F1ED
:1046B0000801C0F8B040EED1C6F8BC4070BD00BFE4
:1046C0002DE9F04FD0F8C810D0F8C460D0F8C05031
:1046D000D0F8CC40491BA41B06EB242405EB212574
:1046E00095B080461146C0F8C440C0F8C0500F9342
:1046F00000F0BCFE08F11C00D8F8181000F0B6FE5F
:10470000D8F82C3098F8D4001293089011AB40469A
:104710000993C66B836BD8F81010D8F834204FF08B
:10472000000AB3421191139208F1500BC446CDF820
:104730001CA0CDF818A05746CDF8388001FB01F138
:104740006DDAB14240F3CD80DBE900450A46CB1774
:1047500094429D41C0F2ED80B14240F3C280DBE95A
:104760000045CDE90445D0E92645DDE90423121BC7
:1047700063EB0503C163012A73F100018663C0F294
:104780009780C16E866E02FB01F106FB0311A6FB4A
:1047900002230B44D10F41EA43010091D917019143
:1047A000DDE90023A41845EB0305C0E92645089B75
:1047B0004FEA543848EAC548022B474469D0DDE93E
:1047C0000423DCF8B010521A63EBE173940A44EA54
:1047D000835529449C1202950394CCF8B0104B10D9
:1047E0000AFB03F3079A069C0AF1010A02EB214235
:1047F00004EB2344BAF1030F0792069400F108007A
:104800000CF1040C0BF1080B0FD0099D836BC66BE8
:1048100055F8041FB342099501FB01F191DB9BDDC3
:10482000DBE90023CDE904239DE74D4B87F310021C
:104830001204110E981C33F8113030F81110120ABE
:10484000C91A92B202FB01F2069903EB1243079ACE
:10485000C3F34E03C803511C9AB2B2F5805FDDF872
:10486000388090FBF1F143D9C8F8BC10089C002CAB
:104870004BD0089901295FD0089D022D06D11E98C2
:104880000F9C02884FF6FF732280038015B0BDE8AD
:10489000F08FDCF8B010641A65EBE175A20942EA0A
:1048A00085631944AA110A930B92CCF8B01096E7CD
:1048B000D0F88410D0F8806002FB01F106FB0311F0
:1048C000A6FB02230B44D10F41EA43010C91D917F7
:1048D0000D91DDE90C23A41845EB0305C0E926453D
:1048E00065E73246F317CDE90423CBE900233AE725
:1048F000B2F5006FBAD9D8F8BC20089C891A02EB2F
:104900002122C8F8BC20002CB3D1D8F8C400D8F8B4
:10491000BC20D8F8C01000FB02F20F9D1E98C3EB1C
:10492000C333DB1301EBE2322B80028015B0BDE80C
:10493000F08FCBE900230FE7D8F8C420C3F5FF437D
:104940007F3302FB03F3D8F8C0000F9A1E9C20218E
:1049500000EBE3331180238015B0BDE8F08F00BF7A
:104960000C9C0008034A002380E80C00836003616C
:1049700043617047999919002DE9F00F8668016825
:104980004FF0E0540025A41B65EBE67501FB05F82C
:10499000CF1704FB0788C768D0F810C007EB2222A6
:1049A000476886698CB0A1FB04ABC5697C1AB2F577
:1049B000807FA8BF4FF4807247690292CCEB060655
:1049C0004FF02062ED1B0CEB262C84FB0267CDE937
:1049D00004674769C34407EB25250195DDF8088086
:1049E000019A8568DFF8F8903C4E426128EAE87742
:1049F000C0F810C085FB094556F827604768CDE927
:104A0000084581FB07894FEA1A6444EA0B244FEA00
:104A10002B65CDE90689B4EB070865EBE779CDE9AD
:104A20000A89DDF82890B246A9FB0A89049ACDE9E3
:104A30000289059C089E4FEA1268069A099F48EA77
:104A400004284FEA2469340E160E079A44EA072414
:104A50003D1646EA02261716361B67EB0507039D2F
:104A60000B9C0AFB04540394A8FB0A450AFB095556
:104A7000A6FB0A89029A0AFB0799160E039A4FEAC7
:104A8000146A46EA022642684AEA052A16444FEAB0
:104A900018648268514444EA092490F82050144470
:104AA0008F1380E84200846007F50041A413149836
:104AB00015B90D4621462C46A4F57F44019DFF3CC7
:104AC00004FB0CF405FB01F2E413013CD2131A8041
:104AD00004800CB0BDE8F00F704700BF109E0008C6
:104AE000AAAAAA022DE9F001002B54D01C6840F2BA
:104AF00063159A6805FB04F41212E3329E88B3F83A
:104B00000CC092B2240C304B361206EB860653F8DA
:104B1000244053F82220A6F5A06636020025074659
:104B2000002300F5E0781CF4004FE7E96E45C8E982
:104B30000023C0F8AC6180F8B41110D1BDE8F001D9
:104B4000CCF5FF4C214B0CF17F0C4FEAEC1C33F8F9
:104B50001C200023C0F8A821C0F8B0317047ACF584
:104B6000004C1FFA8CFC40F2553303FB0CF3DB11B5
:104B7000C0F8B031F3181BD47642C0F8B061002100
:104B80004FF0FF324FF0FF33C0F8A811C7E9002300
:104B9000BDE8F0017047022940F217131688B2F8F9
:104BA00004C00CBF282401240CBFEC221A46AAE73B
:104BB00013F5805FE3DC361293FBF6F3C0F8A831FF
:104BC000BDE8F001704700BF14A20008F48D000892
:104BD0000023C0F8EC31C0F8E83170475368A3F502
:104BE000004101FB01F1B3F5004F4FEAE131B8BFDD
:104BF0004942C0F8E0111368C0F8E431704700BFC3
:104C000013681B12C0F8FC31516847F6FF72C1F5FA
:104C10007F43FF339342D4BFC0F80832C0F8082264
:104C20009142D4BFC0F80C12C0F80C22704700BFEC
:104C300000F5F870FFF7A0BE00F5F870FFF792BE20
:104C400000F5D470FFF7B6BA00F5D470FFF75EBA7E
:104C5000D030FFF735BD00BFD030FFF707BD00BF34
:104C6000983001F0F5BC00BF983001F0E9BC00BFFE
:104C70003C30FFF7E5BB00BF3C30FFF7B5BB00BFE2
:104C800070B4D0F8E011D0F8E851D0F8EC41491BED
:104C900005EB2121D0F8E46102FB01F2361B04EBA5
:104CA0002624039D04EBA232002682F31002C0F8F2
:104CB000EC41C0F8E8111E802A8070BC704700BF2C
:104CC0002DE9F001002B60D09C6840F2631606FBD2
:104CD00004F61F6853683F12361480378036B3F5E8
:104CE000004FBFB2B6B23CDBA3F500435B00C3F597
:104CF0007F42FF32C0F89C30C0F898201546A7F1DB
:104D000080084C4CA6F1800C54F827700229C0F89A
:104D1000A87054F82870C0F8B07054F8266008BF26
:104D20003F01C0F8AC6018BF761054F82C400CBF9F
:104D3000C0F8B070C0F8AC60B5F5005FA8BF4FF424
:104D400000559542A8BF15462B44551BC0F8B440EA
:104D5000C0F8985080F8CD10C0F89C30BDE8F00144
:104D60007047C3F5FF437F3303FB03F3DA13C2F548
:104D7000FF427F3252000023C0F89820A7F180083C
:104D8000C0F89C304FF6FF75BBE792E83000B5F5F0
:104D9000004F17DBA5F500435B00C3F57F45FF35EA
:104DA000C0F89C30C0F898502A4614F4004FA4B2C2
:104DB00019D1C42606FB04F6F613E3364FF00008BB
:104DC00080279EE7C5F5FF457F3505FB05F5EA130E
:104DD000C2F5FF427F325200C0F89820C0F89C30E4
:104DE0004FF6FF75E1E74CF26716B44212D8A4F50E
:104DF0000044A4B2592606FB04F6E32707FB04F798
:104E0000F613C6F5D376FF1301368037B6B2A7F195
:104E1000800876E704F57A541834A4B2E711C7F590
:104E2000B1770137240ABFB2C4F5C076B6B2A7F194
:104E3000800866E714A200082DE9F00F84B0002B6B
:104E40006AD09D6852682D121C688035B2F5004FFB
:104E5000ADB2C4F30F244FDBA2F500425200C2F5FD
:104E60007F43FF33C0F89821C0F89C31474B04F1D1
:104E7000270753F8277005F1130C04F1130605F109
:104E80002702633553F8222053F8266053F8244054
:104E900053F82CA0B84653F825C04FF0000900F590
:104EA0009C73C3E900890023CDE9002300F5A07BB2
:104EB00062460027002500F5A4790023CBE90067AE
:104EC000CDE90223DDE90023C9E9004500F5A87812
:104ED0004FF0000B00F5AC7600F5B074C8E9002384
:104EE000DDE90223C6E900ABC4E9002380F8A41180
:104EF00004B0BDE8F00F7047C2F5FF427F3202FBFD
:104F000002F2D213C2F5FF427F3252000023C0F8F2
:104F10009C21C0F89831A9E7156815F4004FADB28F
:104F200026D105EB8504C5EBC4042D0AC4F3CF34A8
:104F300080355368B3F5004F0ADBA3F500435B00EF
:104F4000C3F57F42FF32C0F89831C0F89C218DE74D
:104F5000C3F5FF437F3303FB03F3DB13C3F5FF43C9
:104F60007F335B000022C0F89C31C0F898217DE7B8
:104F7000A5F50044A4B204EB8405C4EBC505ED130C
:104F800005F58075240AADB22734D2E714A20008D3
:104F900070B4002B4ED052681C88B2F5004F1D89AA
:104FA0002EDBA2F500425200C2F57F43FF33C267F9
:104FB0008367B0F88830A34233D00229A0F8884034
:104FC000A0F88A5080F88C105DD00023022647F6A6
:104FD000FF710122A0F84E40A0F85050A0F8746074
:104FE000A0F87630C387A0F8423080F85E30A0F891
:104FF000401080F85F20012380F88D3070BC70472E
:10500000C2F5FF427F3202FB02F20023D213C2F547
:10501000FF42C367B0F888307F325200A3428267F4
:10502000CBD1B0F88A30AB42C7D190F88C308B42EC
:10503000C3D1E3E790F88C40002C3AD01468B4F563
:10504000004F66DBB4F5404F6CDBA4F540439B108A
:10505000A4F50044C3EB83356410A4EB8404C3EBD4
:105060008503651EA3F50044ADB2A4B25368B3F541
:10507000004F37DBA3F500435B00C3F57F42FF32EF
:10508000C367826795E70023012647F6FF72A0F801
:105090007410A0F84E40A0F85050A0F87660C38776
:1050A000A0F8423080F85E3080F85F30A0F84020F1
:1050B000A1E71368B3F5004F22DBB3F5404F3BDBAC
:1050C000A3F54044A410A3F50043C4EB84355B1062
:1050D000C4EB8504A3EB83035D1EA4F50044ADB2CD
:1050E000A4B2C3E7C3F5FF437F3303FB03F3DB1332
:1050F000C3F5FF437F335B0000228367C26758E735
:10510000DB1003EB430503EB850303F54055ADB21C
:10511000ACE7E41004EB4404A50005F5C055ADB2BE
:105120001C46A3E7A4F500446510A5EB8505013DE9
:105130006400ADB2A4B299E7A3F500435D10A5EBFE
:105140008505013D5B00ADB29CB28FE7F8B5284FF5
:1051500005460E46002406E0E35805EB60001834CF
:105160009847902C0DD03B195868214BC207F3D5B6
:105170004010E3582A5818342844D3589847902CA4
:10518000F1D1002301222A71EB70AB7005F1080206
:1051900005F110034FF4004042F8040B9342F9D19B
:1051A00005F120014FF4004243F8042B9942F9D154
:1051B0000F4F4FF0000E05F124040FCF85F801E0EA
:1051C0000FC497E8030084E80300A86AC3070AD560
:1051D00040102A586B6A2844D3589847012385F811
:1051E00010622B71F8BD05EB60006B6AF5E700BF3C
:1051F000507B00082DE9F04F00255D4CDFF880A1C1
:10520000DFF880B1DFF8809185B02F464FF00108BC
:10521000DAF800300AEB050603EB48023189D2893F
:1052200000208A1A12F5004F4FF6FF71ADF80C00FE
:10523000ADF80E1078DDB2F5004FA8BF47F6FF714C
:10524000C0F291807A003A4403EB4203DB89B288D2
:10525000D31A13F5004F5DDDB3F5004FA8BF47F635
:10526000FF72C0F28280206BC30758D5401054F8FB
:1052700000E0E36A20445EF803C00DF10E030093E2
:1052800009B212B203ABE047BDF80C30BDF80E1006
:105290009BF8BB2023846184002A31D1C94389B2A1
:1052A0001846B289334B10444FF6FF764FF48052C4
:1052B000B042A8BF30461A615A610212002F36D19F
:1052C00042F410522C4B92B29A812B4B1A89D2077E
:1052D000FBD5000280B2988139F80530274AC91AF7
:1052E00003EB211189B229F8051002358909042D33
:1052F00008F1030804F50674918731D0012787E788
:1053000000234FF6FF721946ADF80C301846ADF881
:105310000E20C6E7206B48F20102C307A6D404EBB7
:105320006000D4F82CC0A8E748F201018AE742F4F3
:105330008052A3F5544392B29A810F4B1A89D40735
:10534000FBD5B9F802200002891A02EB211292B2B1
:105350000A4980B294099881A9F80220A1F8404036
:1053600005B0BDE8F08F91B26CE79AB27BE700BF61
:1053700080030020000C014000380040002C014058
:10538000680300204802002064030020FEE700BFFD
:10539000FEE700BFFEE700BFFEE700BF704700BFAB
:1053A000704700BF704700BF704700BF014800F062
:1053B0003BBE00BF48020020F8B5174F174C3846D7
:1053C000174E012101F04AFE164A2046002101F045
:1053D00057FB21463046FEF78BFF134D134801F073
:1053E00073FC134801F090FD28460021FFF7AEFE44
:1053F00005F506700121FFF7A9FE32462B4621462E
:105400000C4800F0EDF8384601F07AFE2046BDE881
:10541000F84001F007BB00BF600300202C02002011
:1054200068030020F55100088003002028020020B6
:10543000640300204802002008B5FFF7BDFF0248C2
:1054400001F084F8FBE700BF4802002010B40023FD
:105450004FF484544FF480410122448081800270D3
:10546000036143615DF8044B704700BF02782DE98A
:10547000F0010ABB8468C5684269066904FB02F34F
:1054800005FB02F72D4D06EBE333AB42A1EBE73111
:105490004DDA05612B46CB1A04FB03F4274902EBD6
:1054A000E4328A4283613BDA4161244A93422EDA34
:1054B000BDE8F00182617047B0F90270B0F9046094
:1054C0001F4A204B7F0476043C0E350E02F1020881
:1054D00003F1020C32F8142033F8153038F8144078
:1054E0003CF815503F0A360AED1ABFB2A41AB6B2FC
:1054F00007FB04F406FB05F502EB144403EB15452A
:10550000A4B2ADB200238460C5600370B4E7B3F504
:10551000004FA4BF47F6FF738361BDE8F0017047F9
:10552000B2F5004FA8BF47F6FF724261BDE7B3F581
:10553000004FA8BF47F6FF730361ACE70180FFFF90
:1055400000960008FC9300082DE9F84F4FF4067B05
:105550000BFB01FB894680460027F8B2484508EB63
:10556000090108EB07034FF4067A1C4A2DD091F885
:10557000B8100AFB07FA83F8B810D8F8946006EB65
:105580000B035B78564403EB430502EBC50506F1BC
:10559000240473700FCD0FC495E8030084E8030062
:1055A000B06AC30716D540103258736A3044D358D6
:1055B0009847D8F894200123337102EB0B01C97886
:1055C00092448AF803108AF804300137022FC4D1BC
:1055D000BDE8F88F06EB6000736AE9E7507B0008CE
:1055E0002DE9F84F0746983015461E460C4601F047
:1055F0000DFC07F1A90001F0EDFCC7F88C40C7F8DD
:105600009050C7F8946007F1CC0207F1DC03002149
:1056100042F8041B9342FAD107F1EC0C002243F844
:10562000042B9C45FAD14A4D07F1BE064FF4AA7EE1
:1056300007F1C6042B4603CB00223346306071606D
:1056400013F8011B0A44A34292B2F9D12B8969894C
:10565000934261D03F4B0C3D9D420EF1FF3EE9D19C
:1056600000230322A7F8C63087F8BE3087F8C03081
:1056700087F8BF3087F8C13087F8C33087F8C22079
:10568000DFF8D89087F8BA2007F5807BBA464FF04C
:1056900000080023CCF80430CCF80830CCF80C30EB
:1056A000CCF810308CF80030D7F894209AF8C0105D
:1056B00042440123D170137197F8C320D7F8944066
:1056C0000032444418BF0122A27023719AF8BE3000
:1056D00004F1240503EB430609EBC60663700FCE05
:1056E0000FC596E8030085E80300A36ADA072BD507
:1056F0005B10E158626AE0188A5808F5067890470E
:105700000123B8F5866F23718AF8B8309A440CD01B
:10571000DC460BF1140BBCE771459BD10EF1010E79
:10572000A7F8C6E097F8C220AAE7002387F8C83098
:105730000948402102F06EF8D0F1010038BF002086
:1057400087F8BC00BDE8F88F04EB6300626AD4E719
:10575000F0FB0108F4EB0108000C0140507B00084D
:105760002DE9F04790F8BA20D0F8943080F8C220A4
:105770009A78B0F8C66080F8C3205A7806EB4606DF
:1057800080F8BE2093F81922344F80F8BF20DA78D1
:10579000B60080F8C02093F81B22314B37449F425B
:1057A000054680F8C12000F1BE0439D90023A0F8D5
:1057B000C63001F027FF2B4801F064FF2A4801F0B2
:1057C00061FF2A4801F05EFF294801F05BFFDFF826
:1057D000AC80DFF8AC90274FDFF888A0D5F8BE107A
:1057E000504601F071FFD5F8C210404601F06CFF41
:1057F00005F1C602002114F8013B1944944289B214
:10580000F9D1484601F090FF3846B5F8C61001F0CE
:105810008BFFB5F8C6300133A5F8C630BDE8F08778
:1058200001F0F0FE144B27F47F70334423F47F73B0
:1058300020F0030023F0030306F1006A83420AF517
:10584000F63A01D001F01EFF0A4FDFF83490DFF87E
:105850002C803744B144B044C0E700BF0CEC0108D1
:10586000FFFB010800EC010800F0010800F401084A
:1058700000F801080AEC0108FFEB010804EC01083C
:1058800008EC01082DE9F00101EB810500EB85052D
:10589000E8352C1D2669571006FB07F6002E4FEA47
:1058A0008101A66802DBB6F5805F47DBE7684FF051
:1058B000000CF61B07EBE607E760C4F808C02E797A
:1058C00036B9B7F5C87F40F39B8001272F7102E0FE
:1058D000C72F37DD0127656882EAE276A6EBE2761C
:1058E000761B002E40F2293CD8BF4FF0210C0CFB58
:1058F00006F605EBE6352261656037BB5D4AED11C2
:1059000032F91520D31816D4B3F5004F55DA5B00E1
:10591000B3F5404F80F2AB80B3F5004F72DAB3F5C8
:10592000804F80F290800331C9B208449B1180F807
:10593000987080F8A030BDE8F00170470136E76844
:10594000A660BCE700272F71C5E74B4C5B425B129A
:1059500034F81330CCB203FB02F3DB1303EB830305
:105960009B1046BF5B4201270027B3F5806F45DBE4
:10597000B3F5004FA8BF47F6FF7276DBA2F5C04231
:1059800092B20023E61811B2354681F30D01F6B24A
:10599000EDB289B206444FF0000C054441F34A18B9
:1059A000002F4BD086F8988086F8A0C0013302F50E
:1059B0000052042B92B2E5D1BDE7FF23C9B24F1CC0
:1059C0008E1CCC1CE4B2FFB2F6B207440025FF22C5
:1059D00006440144204481F8983081F8A05087F8AB
:1059E000982087F8A02086F8985086F8A02080F8A4
:1059F000985080F8A020BDE8F00170470022BDE774
:105A0000374668E7C9B24D1C8C1C0331EDB2E4B2D5
:105A1000C9B205440444C3F387130844FF2285F840
:105A2000983085F8A03084F8987084F8A02080F829
:105A3000987080F8A020BDE8F001704785F8987054
:105A400085F8A080B2E7C9B28A1C0331C9B2D2B2CC
:105A500002449B090844FF2182F8A03082F8987024
:105A600080F8987080F8A01065E79AB286E7C3F3D3
:105A70008713A3E70498000814AC000890F8BA3024
:105A8000F0B4032B6CD8DFE803F06D452C02D0F89E
:105A900094304FF4067202FB01335A78032A00F067
:105AA000A9804A00D0F890508C18E4B2661C2B688C
:105AB000F6B22A4403EB4605EE891289824D921B09
:105AC000AA4263DB47F6FF75AA42A8BF2A46023402
:105AD000E4B203EB4403DB89F0BC5B005B42FFF7FD
:105AE000D1BED0F890204B00CD1814680135EDB22E
:105AF000134404EB4502D4891A89734B121B9A4252
:105B00003FDBF0BC47F6FF739A42A8BF1A4600235A
:105B1000FFF7B8BED0F8903001EB41041A680234A8
:105B2000E3B202EB4303DB8989005B00D3F500435A
:105B300016D4B3F5004F2BD05B00B3F5404F80F285
:105B4000C080B3F5004F72DAB3F5804F3FDA03310E
:105B5000C9B208449B11002280F8A03080F8982038
:105B6000F0BC7047D0F890204B00CD181468EDB20F
:105B7000134404EB4502D4899A88534B121B9A4272
:105B8000BFDAF0BC1A460023FFF77CBE2A469EE728
:105B9000FF23C9B24E1C8D1CCF1CF6B2EDB2FFB272
:105BA000FF220644014400240544384481F898301B
:105BB00081F8A04086F8982086F8A02085F89840C3
:105BC00085F8A02080F8984080F8A020C8E7C9B2E6
:105BD0008C1CCA1CE4B2D2B29B0901191044FF24E8
:105BE000002281F8A03081F8982080F8982080F871
:105BF000A040B5E7D3F8D83189005B42002B01F112
:105C00000302ADDBB3F5004F2CDA5B00B3F5404F78
:105C100054DAB3F5004F44DAB3F5804F98DBD2B2D3
:105C2000911EC9B2033AD2B29B090144D6E7C9B268
:105C30004D1C8C1C0331EDB2E4B2C9B205440444DE
:105C4000C3F3871308440021FF2285F8983085F8B4
:105C5000A03084F8981084F8A02080F8981080F87C
:105C6000A0207DE7FF23D2B2551E941ED71EEDB2B1
:105C7000E4B2FFB286180544FF22002104443844F0
:105C800086F8983086F8A01085F8982085F8A0202E
:105C900084F8981084F8A02080F8981080F8A0204C
:105CA0005EE7D2B2551E941E033AEDB2E4B2D2B210
:105CB00005440444C3F387131044C4E7C3F38713B4
:105CC000D1E7C3F3871364E70180FFFFD0F890208A
:105CD0002DE9F00713689688D9894E4C711AA142B4
:105CE00000F1D006D0F8CC5096E8C0104BDBB1F5EF
:105CF000004FC0F28B804FF00009B2F80680998AFD
:105D0000444CC1EB0801A14266DBB1F5004F79DBE1
:105D10000021B2F808801C8AB3F812A0C4EB080472
:105D200014F5004FB3F8188054DDB4F5004FA8BF48
:105D300045F21F1462DB5289DB8AD31A13F5004F38
:105D400046DDB3F5004FA8BF45F21F1252DB90F8B5
:105D5000A930DBB990F8AA30002B47D02D4901F5C6
:105D60003F533F3345F6FE72934237D80022114627
:105D700097300023013300F8012F082B0172F9D16D
:105D8000BDE8F007704721468946B6E735442F4401
:105D9000BC44ACF5003CC9EB0C09C1EB090101EBBB
:105DA0004A0101EB480190F8AA30091B891A2BB966
:105DB00047F6FF71C1F3C7110022D9E7154B99428D
:105DC000B8BF19460FDACA43C2F3C7120021CFE7A2
:105DD000114ABCE7104CAEE721469AE70029F2DBF6
:105DE000E8D10A46C4E7B1F5004FB8DB47F6FF71CA
:105DF0000029F5E7A3F53B52203AA8E7A4F53B5468
:105E0000203C98E70CB2002C83DD81E70CB2002C1B
:105E1000BADD70E70180FFFF2151FFFFF8B50446AE
:105E2000983001F033F894F8BB30002B3ED094F852
:105E3000BD5015F001074AD1FF260023FF221A4169
:105E400012F0010104EB030203F101031ABF39460A
:105E500030460846042B82F8981082F8A000EDD155
:105E6000C5F34005002D40D0D4F890304EF2786252
:105E70001B681B8B9342CCBFFF260026CCBF00259E
:105E8000FF250023092119411A1D11F00101D2B289
:105E900003F101031ABF2946304608462244042B69
:105EA00082F8981082F8A000ECD1F8BD94F8BC50AC
:105EB000002D65D1631993F8B830E9B2012B63D096
:105EC00028D3022B13D00135022DF3D1F8BDD4F81D
:105ED00090304EF278621B685B8A9342CCBFFF26FB
:105EE0000026CCBF0027FF27A7E7FF26C9E794F8C5
:105EF000BA00FF214000C0B2431CDBB2234420445F
:105F0000002280F8981080F8A02083F8981083F879
:105F1000A020D8E7D4F894304FF4067202FB053382
:105F20009A78D878002A33D03E4A1268C2F34702E2
:105F300002EBC112D2B2160644BFD243D2B2C2EBB8
:105F4000C20242F398062036F6B206FB06F6360A7F
:105F50005A788900042AC9B23AD0032A1AD88B1871
:105F6000DBB22344002846D0012859D002280ABFBA
:105F700030460020002683F8980083F8A060A2E74E
:105F80002046FFF7A3FEF8BD2046FFF777FD9AE70E
:105F9000FF26DDE7188C5A8C031303EB83031B09E0
:105FA0001212042BA2F1800208BF0323520027D44F
:105FB0007F2AA8BF7F220B44C2EBC2125200DBB281
:105FC000511E2344FF2283F8A01083F898207AE71B
:105FD00000280CBF304600204FF0000308BF002609
:105FE000CA18D2B201332244042B82F8986082F896
:105FF000A000F5D167E783F8980083F8A060BAE7BE
:106000006FF07E000B448242B8BF02465100DBB203
:1060100023440139FF2283F8981083F8A02052E727
:106020003046A8E7B40700202DE9F04790F8143176
:1060300004460133DBB213F0030580F8143108D0B5
:106040002046FFF7EBFE04F1980000F02FFFBDE8BB
:10605000F0875A4F00F1A9063B68304601333B6098
:1060600000F0DEFF30462B46224610F8011B802947
:1060700048D000297DD1D2F8AC5035B13E68DFF868
:106080003C81751BB5F57A7F58DC0133032B02F197
:106090000402EAD1D4F88C0000F0D2FCD4F88C5081
:1060A0002346023D0021D3F8CC60D3F8DC00023552
:1060B000EA8800EB060E9645C0EB060602DD964226
:1060C00000DAC8B9D4F8880004F1040E00F1010C1C
:1060D0000EEBC0064FF000080CF00F0C0EF83080ED
:1060E00071807260C4F888C038684FF48076206090
:1060F000C3F8CC20C3F8DC600131042903F10403A8
:10610000D1D19DE7D4F88810261D01F1010E06EBD0
:10611000C1054FF004080EF00F0E4FF0000C06F80A
:1061200031806B80C5F804C0C4F888E039683D68E8
:106130002160C2F8AC5010F8011C9AE7D4F88860CE
:1061400004F1040C06F101090CEBC60E4FF0040A31
:1061500009F00F090CF836A0CEF80450AEF8023062
:10616000C4F88890D8F800502560C2F8AC1010F838
:10617000011C7F2989D1D2F8AC10002985D03E6856
:10618000D4F8885006F1010C04F1040E05F1010960
:106190000EEBC506C1EB0C0C4FF0040809F00F0123
:1061A0000EF83580C6F804C07380C4F888103968CA
:1061B00000252160C2F8AC5067E700BFB40700209B
:1061C00090F8BB3070B4DBB14B88DA0716D45B10A3
:1061D00001249C404A6840F28E3101FB02F1D0F864
:1061E0009020DBB2091402EB430201F247119181C6
:1061F00090F8BD2044EA020380F8BD3070BC7047BF
:10620000D0F8943048888A8803EB800422619D7816
:1062100041104FF4067606FB01311D71C4F82822A7
:1062200093F81A5200F001000124023083F81C5246
:1062300041F820200C7170BC704700BF38B590F851
:10624000BC5004461DB14B88022B1DD038BD90F8C0
:10625000BB202ABB4B889BB1012B2AD0022BF5D146
:10626000B0F8B81040F20110814204D040F202238D
:10627000994241D0012384F8B93084F8B83038BD50
:10628000D0F8B020CAB938BD90F8C8300133DBB2BD
:10629000042B80F8C830D9D1002380F8BC3038BD39
:1062A000D0F89000FEF77AF884F8BD5084F8BB501F
:1062B00038BDD0F8AC20002AC8D0D4F894200021F2
:1062C000C4F8B010C4F8AC1090780125684084F888
:1062D000B8109070157184F8B91082F81A0282F81B
:1062E0001C5220B1E91AC9B22046FFF72DF9204609
:1062F000BDE83840FFF734BA94F8BA300133DBB266
:10630000042B84F8BA30F2D184F8BA20EFE700BF4A
:1063100090F8BC302DE9F04104460D4613BB4A68A5
:106320008978B2F57A7F90F8C820B4BF00200220A7
:10633000014302F0030088425AD084F8C8306B68E9
:10634000B3F57A7F10DB6B88012B40F28780022B3C
:1063500008D1D4F89000FDF7F1FF84F8BB000028C5
:1063600040F0BD80BDE8F08169880129FAD8631842
:1063700093F8B820002A40F0A380D4F894304FF46A
:10638000067606FB01367378F17801330229DBB219
:1063900034BF03210521994238BF1346694903EBF5
:1063A000430201EBC20E06F124077370BEE80F0032
:1063B0000FC79EE8030087E80300B06AC30740F1F7
:1063C0009B8040103258736A3044D3589847012359
:1063D00033712046FFF7C4F96988D4F894309B786C
:1063E000002BBFD02046C9B2BDE8F041FFF7ACB8E2
:1063F0000132D2B2102A84F8C820A0D19846D4F82D
:10640000943000224344DA70D4F894704E4E4744DE
:1064100001224FF0050E07F124051A710FCE87F8FF
:1064200001E00FC596E8030085E80300B86AC107DC
:106430005ED540103A587B6A3844D35808F5067840
:1064400098470123B8F5866F3B71D8D12046FFF7F6
:1064500087F9002384F8C830BDE8F081D4F894208F
:106460004FF4067101FB0323DA784FF40676012A14
:106470009ABF0132D2B20022DA70D4F8942069882F
:10648000012006FB012618717378032B38D8601899
:106490000025C1F1010380F8B850234493F8B800F7
:1064A000022804BF012083F8B80093781BB1C9B259
:1064B0002046FFF749F82046BDE8F041FFF750B904
:1064C000C1F10102002083F8B8001346234493F879
:1064D000B820022A04BF012283F8B8207DE7D4F84F
:1064E0009000FDF74DFF002384F8BD30BDE8F0813A
:1064F00007EB60007B6AA1E706EB6000736A65E763
:10650000DFF840E04FF0000C06F12407BEE80F0072
:1065100086F801C00FC79EE8030087E80300B36A4E
:10652000DA070BD55B10F158726AF0188A58904759
:1065300001236988D4F894203371A8E706EB63003F
:10654000726AF4E7507B0008C87B0008F0B5D0F809
:106550008820D0F8843083B0D31A190704462CD091
:106560006D4607E0FAB1D4F88820D4F88430D31A05
:106570001A075AD0D4F8843004EBC302043292E8EC
:10658000030085E803009DF80020013303F00F03AA
:10659000042AC4F88430E5D1019B204669463BB902
:1065A000FFF74CFEDFE720466946FFF709FEDAE712
:1065B00020466946FFF7ACFED5E7204B0268196814
:1065C0008A1AB2F57A7F22D9B4F8B8101B6840F263
:1065D00002229142236022D00026D4F89450354400
:1065E0002B797BB1A86BC30713D46F6B05EB6000ED
:1065F000AB78E97805F108020BB105F11003B84753
:1066000000232B7106F50676B6F5866FE5D103B04B
:10661000F0BD40102A586B6B2844D758E8E7012397
:1066200084F8B93084F8B830D6E7044B226819688A
:106630008A1AB2F57A7FC7D8CEE700BFB407002028
:106640000023036243628362C3620363704700BF37
:106650002DE9F00F84680668C1684568C4EB060C34
:1066600090F835606D1A88B004EB2C2401EB2525D9
:10667000022E03940495069322EAE2728460C560B8
:1066800000F0E780D0F830C0CCEB0202002A40F3E3
:10669000AE814FF080484FF00009D51708FB05F197
:1066A000A8FB024502FB0911039F0D440499E20F68
:1066B00001EB670442EA450204F57F430CEB020755
:1066C000FF333AB2591001FB02F1C36ACB4AC3EB64
:1066D000010888FB0289026A4FEAD87444EA490437
:1066E000891A23440029076305920093C362476A0D
:1066F00040F36F81002F40F35781D0F828C0D0F8C5
:1067000010904FEAEC54C4F1FF0484FB0945A20940
:1067100042EA8562AB1112EB090243EBE973C7EB66
:10672000010909FB03FA4FEAE97502FB05AA01FB1F
:1067300003F3CD1702FB0533CDF81CA0A1FB02AB80
:10674000A9FB02899B444FEADA72059D42EA4B029B
:106750002A44B2F1805FD8BF4FEAC20A079CC8BF83
:106760004FF0004ACCEB0A0ABAF1000FA1444FEAFD
:10677000D874C8BFA24B44EA490400992744D8BF43
:1067800040F27F438AFB03AB4762CB13FF1307FB47
:1067900003F74FEADA7444EA4B047F100262644460
:1067A00017EB6202846200F11C81B2F1804F36DA8D
:1067B000B2F1005F33DAD500AB0D92485B00C1182F
:1067C000C2F38F32C5F38F1502330988C45E08B255
:1067D000231A05FB03F347F6FE7001EB23438242C5
:1067E0009BB200F21C8102FB02F2D213EEB10399BC
:1067F000C2F5FF427F3202FB01F2C3F5FF43049C66
:106800007F33069D109F03EB032343F3102304EB18
:10681000E2322B803A8008B0BDE8F00F704747F6AF
:10682000FF7347F6FE72002EE1D1039C049D02FB2C
:1068300004F2069FDDF8408003EB032343F31023AB
:1068400005EBE2323B80A8F8002008B0BDE8F00F6D
:10685000704790F83430002B40F0AB8043F2555332
:106860009A4240F3D3806849674C012300258C4647
:1068700080F8343026462F46C269436902FB07F789
:106880004FEAE27906FB097703FB05F59046CDE96F
:106890000089A2FB068905974FEAE37BA3FB046707
:1068A00004FB0B55059A9A4691444FEAD87242EA86
:1068B0004902836AF40FC2EB0C022F4444EA4704F6
:1068C000D61A091B002E0262416204DD8269144659
:1068D000D517CDE90045019D009F06FB05F2F51790
:1068E00007FB0522A6FB0767D0F82C801744F40F9E
:1068F00044EA4704C8EB010103EB040C0029C0F88B
:1069000028C003DD8669B2464FEAE67B81EAE1747E
:10691000A4EBE17404FB0BF5E3170AFB0353A4FBA0
:106920000A451D44E20F5FEA6B074FEA3A0642EA66
:10693000450292194FEAE57343EB070301FB03F6A7
:10694000CD1702FB0566A1FB02233344D40F44EAB2
:1069500043044444A11001EB41012A4D8B0D35F84D
:106960001320023535F9135013B2C1F38F11EB1A0E
:1069700001FB03F303994FEA1C4C0CFB01FC02EBF7
:106980002343049D9BB2069FDDF8408003EB032365
:1069900005EBEC3C43F31023C4623B80A8F800C035
:1069A00008B0BDE8F00F70478269D0F828C0D3174F
:1069B000B5E641F6A9239A4228DCD0F820C0416A06
:1069C000002366464FEAEC770C46CD1780F834304A
:1069D00052E7002FB4BF4269C269D0F828C0D3176C
:1069E0009DE608480022014615460223EDE643696C
:1069F0005B0098464FEAE3794FE600BF2F3C0D0459
:106A0000941B0200EC8300080000FF7FD0F820C038
:106A1000416A66464FEAEC770C46CD172CE70246F2
:106A2000E4E600BF10B5054C0121204600F0A8FCAB
:106A300020460121BDE8104000F0C0BC0024014008
:106A400010B50D490379CC6C5A1CD2B200EB43014E
:106A5000CC80042A4371094B08BF0022995C027163
:106A600007230548012200F0B3FCBDE810400248AE
:106A7000012100F0A3BC00BF002801402400002039
:106A80002DE9F04F054693B0894608200121904634
:106A900000F00CFF0420012100F008FF4FF400700B
:106AA000012100F003FF4FF48060012100F0FEFEA1
:106AB0000120014600F0EEFE4FF4004000F0E0FE41
:106AC00000260124FF2301A96E48ADF804308DF89B
:106AD00006408DF80760032700F042FE01A96A48CE
:106AE0008DF806408DF80760ADF8047000F038FEB0
:106AF000664800F0BBFCB1450CBF0620204605F1FE
:106B00000E01DFF898B120224FF400534FF4807C3F
:106B10004FF4806E0A9008915C4807A94FF0800AF4
:106B20000F921093CDF834C0CDF838E009960B964B
:106B30001196CDF81CB0CDF830A000F017FD21461D
:106B4000524800F033FD524800F0B6FB4FF460228B
:106B50004FF4006302968DF80C408DF80D400492BE
:106B60000593B9F1000F5FD002AE314648488DF869
:106B7000184000F0D7FB224645480821062300F0C4
:106B800027FCB8F1000F04D040480221012200F098
:106B900017FD404800F090FB0124002331464FF4DC
:106BA00000623C484FF4602602938DF80C308DF85B
:106BB0000D30059204968DF8184000F0B3FB344870
:106BC000214600F0D3FB324800F0E4FB304800F0EF
:106BD000E7FB0028FAD12E4800F0E6FB2C4800F035
:106BE000E9FB0028FAD12B48012100F0BFFB29481E
:106BF00000F0D0FB274800F0D3FB0028FAD125484D
:106C000000F0D2FB234800F0D5FB0028FAD1224A3D
:106C10000323687115602B71C5F800802846FFF7C3
:106C20000FFF13B0BDE8F08F02AE4FF006093146FA
:106C300017488DF8189000F075FB22464B46144813
:106C4000082100F0C5FB124807210222052300F0AD
:106C5000BFFB3A463B460E48042100F0B9FB4946CB
:106C60004B460B48042200F0B3FB052213460848AC
:106C7000092100F0ADFB4A463B460548052100F0DE
:106C8000A7FB7EE700080140000C0140080002401D
:106C90000024014000280140B00700204C2401409E
:106CA00008B5022000F096FC012800D008BD00F0D5
:106CB0009FFC044B18680368002BF7D00E309847F0
:106CC00008BD00BFB0070020F0B5082087B0012143
:106CD00000F0ECFD01200146244D00F0E7FD4FF4EB
:106CE0008040012100F0EEFD0326284669464FF45E
:106CF000805210231E4CADF800208DF802608DF8F4
:106D0000033000F02DFD284669464FF42042182339
:106D10008DF80260ADF800208DF803304FF4006765
:106D200000F01EFD022600234FF4827E072220463B
:106D300001A94FF40075ADF80430ADF80C30ADF892
:106D40001030ADF81230ADF806E0ADF81420ADF813
:106D50000870ADF80A60ADF80E5000F0CBFD20468B
:106D6000012100F0E7FD07B0F0BD00BF000C0140BD
:106D700000380040244B802030B458610820402364
:106D8000214C4FF40065656113F0800F4FF480656E
:106D900014BF2561656101381B4C5B004FF4006531
:106DA00010F0FF00DBB22561EAD1082316484FF44A
:106DB000006444610D064FF480644CBF046144617B
:106DC000013B114849004FF4006413F0FF03C9B2BE
:106DD0000461EBD108230C494FF4006048611406AC
:106DE0004FF480604CBF08614861013B0649520086
:106DF0004FF4006013F0FF03D2B20861EBD130BC56
:106E000080230B61704700BF000C014070B51E4C21
:106E100082B005460121082000F048FD4FF4486685
:106E200003221023204601A98DF806208DF8073093
:106E3000ADF8046000F094FC802323612A4605F13C
:106E40000803002102F8011B9A42FAD105F1100251
:106E5000002403F8014B9342FAD1284621462246EA
:106E60002C74FFF787FF284622460121FFF782FF97
:106E7000284622460221FFF77DFF284622460321AD
:106E8000FFF778FF02B070BD000C0140024600F130
:106E90000803002102F8011B9A42FAD110300022A7
:106EA00003F8012B8342FAD1704700BF38B505467D
:106EB000007C00232030C0B228741C469AB2032AFA
:106EC00094BF1A1DC3F10702D2B2A918AA5CA4008C
:106ED0000133A4B21AB1904298BF44F001040A7A77
:106EE0001AB1904298BF44F00204082BE6D128461C
:106EF000220A1221FFF73EFF2846E2B21321BDE825
:106F00003840FFF737BF00BFF0B5042089B001213A
:106F100000F0CCFC4FF40060012100F0C7FC012020
:106F20002A4D014600F0C2FC01264FF4406269463A
:106F3000182327480024ADF800208DF803308DF881
:106F4000026000F00DFC40F2FF332846ADF8083037
:106F5000ADF80440ADF80A40ADF806408DF80C409D
:106F600000F0B6FD284601A900F0F2FC6027284693
:106F700004A9ADF81260ADF81440ADF81640ADF8B4
:106F80001840ADF81A40ADF8107000F005FD284625
:106F9000082100F0A5FD04A92846ADF81070ADF851
:106FA0001260ADF81640ADF8184000F03DFD2846DF
:106FB000082100F09DFD2846314600F079FD284665
:106FC000314600F067FD09B0F0BD00BF002C014064
:106FD0000008014030B5012183B00446082000F0CC
:106FE00065FC0D48012100F01BFC7025012248239F
:106FF0000A4801A98DF80620ADF804508DF8073035
:1070000000F0AEFB2046E21CFF2300F8013B90425B
:10701000FAD103B030BD00BF00013000000C0140C8
:1070200070B50C4B05469A88186882B00090ADF890
:10703000042000243DF8141007482E5D00F0EAFB00
:107040007600F6B2304328550134032CF2D102B059
:1070500070BD00BF18AE0008000C014010B50C4612
:1070600084B000F061F884BB4FF4A06000F0D8F861
:107070000120014600F026FC40F2DB534FF0804037
:10708000ADF80830ADF80440ADF80A40ADF8064060
:107090008DF80C4000F01CFD01A94FF0804000F07D
:1070A00057FC01214FF0804000F0F4FC1C2201232A
:1070B00068468DF801408DF802408DF800208DF86B
:1070C000033000F0B7F804B010BD4FF480414FF02A
:1070D000006000F0E7F84FF4A06000F0A1F8002392
:1070E0000B21012201A88DF804108DF805308DF8D0
:1070F00006308DF8072000F09DF804B010BD00BFE9
:1071000030B4074B074844F24F65F0245D6000211E
:1071100080F823400722996030BC1A60704700BF96
:1071200010E000E000ED00E03A4B10B419683A4A74
:1071300041F0010119605C6883B022405A601A680E
:10714000002122F0847222F480321A601A684FF40F
:107150001F0022F480221A605A6822F4FE025A604C
:107160009860009101911A6842F480321A6003E03D
:10717000009BB3F5A06F0AD0264B1B6803F40033C5
:107180000193009B01330093019B002BF0D0214B16
:107190001B6813F4003318BF01230193019B012BDB
:1071A00000D0FEE71D4A1B4B116841F01001116031
:1071B000116821F003011160116841F002011160B2
:1071C0005A685A605A685A605A6842F480625A6033
:1071D0005A6822F47C125A605A6842F4E8125A60E3
:1071E0001A6842F080721A600A4B1A689201FBD545
:1071F0005A6822F003025A605A6842F002025A604A
:10720000044B5B6803F00C03082BF9D103B05DF865
:10721000044B7047001002400000FFF800200240BD
:1072200040F0BF60024B40F40030D860704700BFB0
:1072300000ED00E0C37830B45BB90378012103F0BE
:107240001F02914030BC5B09144A203342F82310DE
:107250007047134B4478DB680F22DB43C3F30223F0
:10726000C3F1040122FA03F38C408578017803EA24
:107270000502224301F160431201D2B203F56143DA
:1072800083F800230378012103F01F02914030BCF2
:10729000024A5B0942F82310704700BF00E100E09A
:1072A00000ED00E021F0604121F07F01014B084337
:1072B0009860704700ED00E008B5174B984212D077
:1072C000164B98421BD0164B984200D008BD4FF485
:1072D0000040012100F002FBBDE808404FF40040EF
:1072E000002100F0FBBA4FF40070012100F0F6FA23
:1072F000BDE808404FF40070002100F0EFBA4FF4F1
:107300008060012100F0EAFABDE808404FF4806097
:10731000002100F0E3BA00BF002401400028014032
:10732000003C014043680A6823F4702330B423F41E
:1073300080730C79134343EA0423436085688C68A7
:10734000CA68094B22432B404D79134343EA450356
:1073500083600B7CC26A013BDBB222F4700242EA1A
:107360000353C36230BC7047FDF7F1FF836819B95E
:1073700023F001038360704743F00103836070478B
:10738000836819B923F480738360704743F4807372
:1073900083607047836843F008038360704700BFD1
:1073A0008068C0F3C0007047836843F004038360C3
:1073B000704700BF8068C0F380007047836819B9C8
:1073C00023F4A0038360704743F4A00383607047F5
:1073D000092970B41FD9A1F10A0404EB440407265B
:1073E000A64003FA04F4C568062A25EA060343EA20
:1073F0000403C3601DD90C2A29D970BC0D3A02EBD5
:1074000082021F23934001FA02F2C16A21EA0303B8
:107410001A43C262704701EB41040726A64003FAF3
:1074200004F40569062A25EA060343EA0403036116
:10743000E1D870BC013A02EB82021F23934001FAAB
:1074400002F2416B21EA03031A4342637047073A91
:1074500002EB82021F23934070BC01FA02F2016B1F
:1074600021EA03031A430263704700BF0168324AEE
:10747000002321F0010190420160036043608360BA
:10748000C36044D02D4B984225D02D4B984230D02C
:107490002C4B984234D02C4B984223D02B4B984203
:1074A0003BD02B4B98420FD02A4B98423CD02A4BD2
:1074B000984210D0294B98421BD0294B98421FD09C
:1074C000284B98420ED0704753F87C2C42F07062E3
:1074D00043F87C2C704753F8182C42F0F00243F824
:1074E000182C704753F8542C42F4702243F8542C53
:1074F000704753F82C2C42F4706243F82C2C7047E0
:1075000053F8402C42F4704243F8402C7047164B1D
:107510005A6842F00F025A60704753F8682C42F4E0
:10752000700243F8682C704753F8042C42F00F02A5
:1075300043F8042C704700BF080002401C000240C2
:107540003000024044000240580002406C000240FB
:1075500080000240080402401C0402403004024043
:107560004404024058040240000002408A68F0B41B
:107570000C6A0B6914434A691C438B69CE69224328
:1075800007684D6A13438C6A1E43354327F4FF4353
:10759000CE680F684A682C4323F0700323430360CE
:1075A00046608760C260F0BC704700BF036819B9CD
:1075B00023F001030360704743F001030360704749
:1075C00003681AB923EA0101016070471943016099
:1075D000704700BFC3004CBF034B044B1B68034202
:1075E0000CBF002001207047000402400000024050
:1075F000C3004CBF014B024B58607047000402406F
:1076000000000240024B0349034A59605A60704728
:107610000020024023016745AB89EFCD084BDA68B3
:10762000D1070BD4DA68520701D502207047DB6816
:1076300013F0100F0CBF0420032070470120704787
:107640000020024010B582B00446FFF7E7FF012892
:1076500012D1A4B1FF23002201920193019B2BB10F
:10766000019B013B0193019B002BF9D1FFF7D6FF52
:10767000012804F1FF34ECD00CB102B010BD05209C
:1076800002B010BD38B5054640F6FF70FFF7DAFFCF
:10769000042800D038BD0B4C40F6FF70236943F03E
:1076A000020323616561236943F040032361FFF70F
:1076B000C9FF0528EED0226941F6FD73134023610E
:1076C00038BD00BF0020024070B5002382B00546DF
:1076D0000F200C460193FFF7B5FF042801D002B03C
:1076E00070BD104EA3B232690F2042F00102326128
:1076F0002B80FFF7A7FF042808D00528EFD03269B8
:1077000041F6FE731340336102B070BD023501953E
:10771000019B240C1C800F20FFF794FF0528EED15D
:10772000DDE700BF0020024070B504460F200D4683
:10773000FFF788FF042800D070BD084E0F20336982
:1077400043F0010333612580FFF77CFF0528F3D068
:10775000326941F6FE731340336170BD0020024070
:10776000F0B4CD78EB0648BF8B78098805F00F069A
:1077700048BF1E4311F0FF0F20D00768002302E02E
:107780000133082B19D001229A4002EA01049442E5
:10779000F6D19A004FF00F0C0CFA02FC06FA02F236
:1077A00027EA0C07282D47EA020731D0482D03F1BC
:1077B000010308BF0461082BE5D10760FF2923D925
:1077C0004768002302E00133082B1CD0012403F199
:1077D000080204FA02F202EA01049442F3D19A0088
:1077E0004FF00F0C0CFA02FC06FA02F227EA0C0723
:1077F000282D47EA020709D0482D03F1010308BFED
:107800000461082BE2D14760F0BC70474461DAE7BD
:107810004461B5E7836819420CBF0020012070471E
:1078200030B4164A00F44014B4F5401F85B25368D2
:107830001CD0C20211D5C0F30342032404FA02F2A1
:1078400023EA020343F0706319B1400D0001854043
:107850002B430A4A30BC53607047420D120105FAAF
:1078600002F223EA020343F07063EDE7546823F069
:10787000706324F070645460E6E700BF00000140CC
:10788000034B5A6822F4404210435860704700BFCF
:1078900000100240044B5A6919B922EA00005861ED
:1078A000704710435861704700100240044B9A69BA
:1078B00019B922EA00009861704710439861704737
:1078C00000100240044BDA6919B922EA0000D861BD
:1078D00070471043D861704700100240044BDA68CB
:1078E00019B922EA0000D86070471043D860704789
:1078F00000100240F0B40B884C888A881C43CB8867
:1079000014430A891C434B898F8922430588CE89F9
:107910001A433A43324305F4415313439BB2038065
:10792000838B0A8A23F400631B041B0C8383F0BC43
:1079300002827047038829B923F040031B041B0C03
:10794000038070479BB243F040030380704700BF41
:10795000038830B403F08F0303800588CA884B88FE
:10796000ADB215431D430B4B8C880A88ADB29842CB
:1079700005808485028507D003F50063984203D013
:1079800030BC0123838270470B7A30BC038601230D
:1079900083827047002C0140038CF0B423F4807381
:1079A0001B041B0C0384028C0D8922F40072848852
:1079B0001204838B120C42EA05224F8823F07303D2
:1079C000184D1B040E8842EA07221B0CA84292B2F3
:1079D000A4B243EA06030AD005F50065A84206D022
:1079E000C98884808383F0BC81870284704722F435
:1079F0000062B1F80AC092B244F6FF768F8942EA7B
:107A00000C2C26404FF6FF358A88CC890CEA0505F8
:107A100046EA071645EA022246EA041492B2A4B2E4
:107A2000DEE700BF002C0140038CF0B423F4805348
:107A30001B041B0C0384028C848822F40052838B69
:107A40000D89120423F4E643120C42EA05324F88F2
:107A50001B040E880E4D1B0C42EA073243EA062334
:107A6000A84292B2A4B29BB20BD005F50065A84221
:107A700007D0C98884808383F0BCA0F840100284BA
:107A800070478D89C4F30D0444EA8514A4B2F0E76D
:107A9000002C0140038829B923F001039B059B0DAD
:107AA000038070479BB243F001030380704700BF1F
:107AB000B0F8443021B9C3F30E03A0F84430704746
:107AC0006FEA43436FEA53439BB2A0F844307047D8
:107AD000038923F007031B041B0C0381704700BFBD
:107AE000838B23F008031B041B0C1943818370470D
:107AF000838B23F400631B041B0C43EA01218BB22C
:107B000083837047002100F004B80B4B5B5843504F
:107B100004310A480A4B42189A42FFF4F6AF094A68
:107B200000F003B8002342F8043B074B9A42FFF4ED
:107B3000F9AFFDF781FC704738AE00080000002067
:107B40002800002028020020B8070020FFF7FEBF11
:107B5000794C000800000000714C00080000000093
:107B6000914F000800000000694C00080000000070
:107B7000614C000800000000C14C0008000000003B
:107B8000594C000800000000514C000800000000A3
:107B9000394E000800000000494C000800000000B9
:107BA000414C000800000000E54A00080000000009
:107BB000D14B000800000000814C000800000000CC
:107BC000DD4B000800000000394C000800000000F8
:107BD000314C000800000000014C000800000000CB
:107BE000630678106E46D30DD506B10B7236F409D4
:107BF000ED0B8708D302590745735D0675928A0518
:107C00000EBBD804C3E741044351C10366255303A7
:107C10009A50F4029C54A202F7285B02D4221D025F
:107C200031E2E6014843B7010A538D010E4668016F
:107C30005871470192442A0167451001C40BF900AD
:107C4000C93EE4005192D100E4C4C0000A9EB100D4
:107C5000E8ECA3001B879700C2478C00AD0E8200A2
:107C6000B5BF78002C4270005C8068002567610019
:107C7000A5E55A00E8EC5400AC6F4F0028624A00BA
:107C8000E1B94500786D410090743D00ADC7390001
:107C900016603600C137330042493000B28F2D00E4
:107CA000A8062B0023AA2800877626008D682400CA
:107CB0003B7D2200DCB12000FB031F0059711D0039
:107CC000EBF71B00D2951A0058491900EC10180068
:107CD00020EB1600A2D615003DD21400D5DC13000F
:107CE00062F51200F51A1200AE4C1100C1891000A5
:107CF0006FD10F0009230F00ED7D0E0085E10D000F
:107D0000444D0D00ABC00C00403B0C0094BC0B007C
:107D10003F440B00E1D10A0020650A00A8FD0900DC
:107D20002B9B0900603D090003E40800D48E080085
:107D3000983D080017F007001DA60700795F0700AF
:107D4000FD1B07007EDB0600D49D0600D9620600FD
:107D50006A2A060065F40500AAC005001C8F05000C
:107D6000A05F05001A3205007306050092DC0400CE
:107D700062B40400CD8D0400C26804002B450400E9
:107D8000F92204001B02040081E203001BC403006B
:107D9000DDA60300B98A0300A16F03008B55030021
:107DA0006A3C030034240300DF0C030062F6020087
:107DB000B2E00200C7CB020098B702001FA4020085
:107DC000539102002C7F0200A66D0200B75C0200F6
:107DD0005C4C02008D3C0200452D02007F1E02001B
:107DE000351002006302020004F5010013E80100EF
:107DF0008DDB01006CCF0100AEC301004FB8010064
:107E00004BAD01009EA20100469801003F8E01008B
:107E1000878401001A7B0100F571010017690100D8
:107E20007C60010023580100095001002B4801002B
:107E3000884001001D390100E9310100E92A0100F3
:107E40001D240100821D010016170100D810010039
:107E5000C70A0100E104010024FF00008FF90000BF
:107E600021F40000D9EE0000B5E90000B5E40000FF
:107E7000D6DF000019DB00007BD60000FCD100003B
:107E80009CCD000058C9000030C5000024C100008E
:107E900032BD00005AB900009BB50000F4B10000EB
:107EA00064AE0000EBAA000088A700003BA400001D
:107EB00002A10000DD9D0000CC9A0000CE970000DA
:107EC000E2940000089200003F8F0000888C0000C0
:107ED000E089000049870000C18400004982000059
:107EE000DF7F0000837D0000357B0000F578000017
:107EF000C17600009B740000817200007270000067
:107F0000706E0000796C00008D6A0000AC680000A3
:107F1000D66600000A650000486300008F6100001B
:107F2000E15F00003B5E00009E5C00000B5B000018
:107F30007F590000FC570000825600000F550000DA
:107F4000A453000040520000E45000008F4F000096
:107F5000414E0000F94C0000B94B00007F4A000080
:107F60004B4900001D480000F6460000D4450000C3
:107F7000B8440000A2430000914200008641000086
:107F8000804000007E3F0000823E00008B3D0000EC
:107F9000993C0000AB3B0000C13A0000DC39000016
:107FA000FC3800002038000047370000733600001E
:107FB000A3350000D73400000E3400004A3300001F
:107FC00088320000CB310000113100005A3000002F
:107FD000A62F0000F62E0000492E00009F2D000065
:107FE000F82C000000000B040608F10BCD0F9A13CB
:107FF0005717061BA61E3822BB253129982CF32FB4
:1080000040338036B339D93CF33F00430146F7484B
:10801000E14BBF4E915159541657C7596E5C0B5FD7
:108020009D612564A2661669806BE16D3870867269
:10803000CB7407773A79647B857D9E7FAF81B88367
:10804000B885B187A1898A8B6C8D468F1991E4928E
:10805000A89466961C98CB99749B179DB29E48A0D5
:10806000D7A160A3E3A460A6D7A748A9B3AA19AC77
:1080700079ADD4AE29B07AB1C4B20AB44BB587B6E3
:10808000BDB7F0B81DBA45BB69BC89BDA4BEBBBFB6
:10809000CDC0DBC1E5C2EBC3ECC4EAC5E4C6DAC7B8
:1080A000CCC8BAC9A5CA8CCB6FCC4FCD2CCE05CFCE
:1080B000DACFADD07CD147D210D3D6D398D458D50F
:1080C00014D6CED685D739D8EAD898D944DAEDDA9D
:1080D00093DB37DCD8DC77DD13DEADDE45DFDADFBE
:1080E0006DE0FDE08CE118E2A2E229E3AFE333E4C6
:1080F000B4E434E5B1E52DE6A7E61FE795E709E826
:108100007BE8ECE85BE9C8E933EA9DEA05EB6BEB59
:10811000D0EB34EC96ECF6EC55EDB2ED0EEE68EEED
:10812000C1EE19EF6FEFC4EF18F06AF0BCF00BF17D
:108130005AF1A7F1F3F13EF288F2D1F219F35FF3AD
:10814000A4F3E9F32CF46EF4AFF4EFF42FF56DF52E
:10815000AAF5E6F522F65CF695F6CEF606F73DF7BB
:1081600073F7A8F7DCF710F842F874F8A6F8D6F819
:1081700006F935F963F990F9BDF9E9F915FA3FFA0D
:1081800069FA93FABCFAE4FA0BFB32FB58FB7EFB6C
:10819000A3FBC8FBECFB0FFC32FC54FC76FC98FC08
:1081A000B8FCD9FCF8FC18FD36FD55FD73FD90FDBB
:1081B000ADFDC9FDE5FD01FE1CFE37FE51FE6BFE67
:1081C00085FE9EFEB6FECFFEE7FEFEFE16FF2CFFEE
:1081D00043FF59FF6FFF84FF9AFFAEFFC3FFD7FF36
:1081E000EBFFFFFFFFFF000000000101020203039D
:1081F0000404050506060707080809090A0A0B0B07
:108200000C0C0D0D0E0E0F0F101011111212131376
:108210001414151516161717181819191A1A1B1BE6
:108220001C1C1D1D1E1E1F1F202021212222232356
:108230002424252526262727282829292A2A2B2BC6
:108240002C2C2D2D2E2E2F2F303031313232333336
:108250003434353536363737383839393A3A3B3BA6
:108260003C3C3D3D3E3E3F3F404041414242434316
:108270004444454546464747484849494A4A4B4B86
:108280004C4C4D4D4E4E4F4F5050515152525353F6
:108290005454555556565757585859595A5A5B5B66
:1082A0005C5C5D5D5E5E5F5F6060616162626363D6
:1082B0006464656566666767686869696A6A6B6B46
:1082C0006C6C6D6D6E6E6F6F7070717172727373B6
:1082D0007474757576767777787879797A7A7B7B26
:1082E0007C7C7D7D7E7E7F7F808081818282838396
:1082F0008484858586868787888889898A8A8B8B06
:108300008C8C8D8D8E8E8F8F909091919292939375
:108310009494959596969797989899999A9A9B9BE5
:108320009C9C9D9D9E9E9F9FA0A0A1A1A2A2A3A355
:10833000A4A4A5A5A6A6A7A7A8A8A9A9AAAAABABC5
:10834000ACACADADAEAEAFAFB0B0B1B1B2B2B3B335
:10835000B4B4B5B5B6B6B7B7B8B8B9B9BABABBBBA5
:10836000BCBCBDBDBEBEBFBFC0C0C1C1C2C2C3C315
:10837000C4C4C5C5C6C6C7C7C8C8C9C9CACACBCB85
:10838000CCCCCDCDCECECFCFD0D0D1D1D2D2D3D3F5
:10839000D4D4D5D5D6D6D7D7D8D8D9D9DADADBDB65
:1083A000DCDCDDDDDEDEDFDFE0E0E1E1E2E2E3E3D5
:1083B000E4E4E5E5E6E6E7E7E8E8E9E9EAEAEBEB45
:1083C000ECECEDEDEEEEEFEFF0F0F1F1F2F2F3F3B5
:1083D000F4F4F5F5F6F6F7F7F8F8F9F9FAFAFBFB25
:1083E000FCFCFDFDFEFEFFFFFFFF000000000C0097
:1083F0001800240030003C004800540060006C006D
:108400007800840090009C00A800B300BF00CB005F
:10841000D700E300EE00FA00060112011E012A0156
:10842000360143014F015C016801750182018F0132
:108430009C01AA01B701C501D301E101F001FF01CF
:108440000E021E022E023E024F02600271028302E1
:108450009602A902BC02D002E502FA021003270329
:108460003E0356036E038703A203BC03D803F50340
:1084700012043004500470049104B304D604FB04C5
:10848000200546056E059605C005EB051706450651
:108490007306A306D50607073B077007A707DF0784
:1084A000180853088F08CC080B094C098E09D1090C
:1084B000160A5C0AA40AEE0A390B850BD30B220CB0
:1084C000730CC60C1A0D6F0DC60D1F0E790ED40E4F
:1084D000310F900FF00F5110B41019117F11E611E8
:1084E0004E12B91224139113FF136F14E014521596
:1084F000C6153A16B0162817A0171A18951811198C
:108500008E190C1A8C1A0C1B8D1B101C931C181D19
:108510009D1D231EAA1E321FBB1F4520CF205A219E
:10852000E621732200238E231C24AB243B25CB257C
:108530005C26ED267E271028A3283629C9295C2A27
:10854000F02A842B182CAC2C412DD62D6A2EFF2E10
:10855000952F2A30BF305431E9317E321333A8339E
:108560003D34D2346635FB358F362337B7374A383A
:10857000DE387139033A953A273BB93B4A3CDB3C3C
:108580006B3DFB3D8B3E1A3FA83F3640C4405141F6
:10859000DD416942F54280430A4493441C45A545A8
:1085A0002C46B3463A47BF474448C9484C49CF498F
:1085B000524AD34A544BD44B534CD24C504DCD4DD0
:1085C000494EC54E3F4FB94F3250AB502251995191
:1085D0000F528452F9526C53DF535154C2543255E6
:1085E000A25510567E56EB565757C2572D589758DE
:1085F000FF586759CF59355A9B5AFF5A635BC65B80
:10860000285C8A5CEA5C4A5DA95D075E655EC15EC6
:108610001D5F785FD25F2B608460DB6032618961AF
:10862000DE6133628662D9622C637D63CE631E6431
:108630006D64BC6409655665A365EE65396683663D
:10864000CC6615675D67A467EB6730687568BA68C4
:10865000FE6841698369C569066A466A866AC56AB1
:10866000036B416B7E6BBB6BF76B326C6C6CA66CF7
:10867000E06C196D516D896DC06DF66D2C6E616E7B
:10868000966ECA6EFE6E316F636F956FC66FF76F31
:10869000287057708770B570E47011713F716B71FD
:1086A0009871C371EF71197244726E729772C072D1
:1086B000E872107338735F738673AC73D273F77399
:1086C0001C74407464748874AB74CE74F174137544
:1086D0003575567577759775B875D775F7751676BC
:1086E0003576537671768F76AC76C976E6760277F4
:1086F0001E773977557770778A77A577BF77D977DF
:10870000F2770B7824783D7855786D7885789C7869
:10871000B378CA78E178F7780D79237938794E798A
:10872000637978798C79A079B479C879DC79EF7933
:10873000027A157A287A3A7A4C7A5E7A707A827A54
:10874000937AA47AB57AC67AD67AE77AF77A077BEB
:10875000167B267B357B447B537B627B717B7F7BE7
:108760008E7B9C7BAA7BB77BC57BD27BE07BED7B42
:10877000FA7B067C137C1F7C2C7C387C447C507CF0
:108780005C7C677C737C7E7C897C947C9F7CAA7CEF
:10879000B47CBF7CC97CD37CDE7CE87CF17CFB7C38
:1087A000057D0E7D187D217D2A7D337D3C7D457DB7
:1087B0004E7D567D5F7D677D6F7D787D807D887D78
:1087C000907D977D9F7DA77DAE7DB67DBD7DC47D6F
:1087D000CB7DD27DD97DE07DE77DEE7DF47DFB7D97
:1087E000017E087E0E7E147E1A7E207E267E2C7EE2
:1087F000327E387E3E7E437E497E4E7E547E597E5A
:108800005E7E647E697E6E7E737E787E7D7E827EF5
:10881000867E8B7E907E947E997E9D7EA27EA67EB5
:10882000AB7EAF7EB37EB77EBB7EBF7EC37EC77E90
:10883000CB7ECF7ED37ED77EDB7EDE7EE27EE57E84
:10884000E97EEC7EF07EF37EF77EFA7EFD7E017F90
:10885000047F077F0A7F0D7F107F137F167F197FAC
:108860001C7F1F7F227F247F277F2A7F2D7F2F7FE2
:10887000327F347F377F397F3C7F3E7F417F437F2C
:10888000467F487F4A7F4C7F4F7F517F537F557F84
:10889000577F5A7F5C7F5E7F607F627F647F667FE9
:1088A000687F6A7F6B7F6D7F6F7F717F737F747F5F
:1088B000767F787F7A7F7B7F7D7F7F7F807F827FDF
:1088C000837F857F877F887F8A7F8B7F8C7F8E7F6A
:1088D0008F7F917F927F947F957F967F987F997FFE
:1088E0009A7F9B7F9D7F9E7F9F7FA07FA27FA37F9C
:1088F000A47FA57FA67FA77FA87FAA7FAB7FAC7F41
:10890000AD7FAE7FAF7FB07FB17FB27FB37FB47FEB
:10891000B57FB67FB77FB77FB87FB97FBA7FBB7FA0
:10892000BC7FBD7FBE7FBE7FBF7FC07FC17FC27F58
:10893000C27FC37FC47FC57FC57FC67FC77FC87F17
:10894000C87FC97FCA7FCA7FCB7FCC7FCC7FCD7FDA
:10895000CE7FCE7FCF7FCF7FD07FD17FD17FD27FA1
:10896000D27FD37FD37FD47FD57FD57FD67FD67F6D
:10897000D77FD77FD87FD87FD97FD97FDA7FDA7F3B
:10898000DB7FDB7FDB7FDC7FDC7FDD7FDD7FDE7F0E
:10899000DE7FDF7FDF7FDF7FE07FE07FE17FE17FE2
:1089A000E17FE27FE27FE27FE37FE37FE37FE47FBB
:1089B000E47FE57FE57FE57FE67FE67FE67FE67F94
:1089C000E77FE77FE77FE87FE87FE87FE97FE97F70
:1089D000E97FE97FEA7FEA7FEA7FEB7FEB7FEB7F4E
:1089E000EB7FEC7FEC7FEC7FEC7FED7FED7FED7F2D
:1089F000ED7FED7FEE7FEE7FEE7FEE7FEF7FEF7F0F
:108A0000EF7FEF7FEF7FF07FF07FF07FF07FF07FF1
:108A1000F17FF17FF17FF17FF17FF17FF27FF27FD4
:108A2000F27FF27FF27FF27FF37FF37FF37FF37FBA
:108A3000F37FF37FF47FF47FF47FF47FF47FF47FA0
:108A4000F47FF57FF57FF57FF57FF57FF57FF57F87
:108A5000F57FF67FF67FF67FF67FF67FF67FF67F6F
:108A6000F67FF67FF77FF77FF77FF77FF77FF77F58
:108A7000F77FF77FF77FF87FF87FF87FF87FF87F41
:108A8000F87FF87FF87FF87FF87FF87FF97FF97F2C
:108A9000F97FF97FF97FF97FF97FF97FF97FF97F16
:108AA000F97FF97FF97FFA7FFA7FFA7FFA7FFA7F01
:108AB000FA7FFA7FFA7FFA7FFA7FFA7FFA7FFA7FEE
:108AC000FA7FFA7FFB7FFB7FFB7FFB7FFB7FFB7FD8
:108AD000FB7FFB7FFB7FFB7FFB7FFB7FFB7FFB7FC6
:108AE000FB7FFB7FFB7FFB7FFB7FFC7FFC7FFC7FB3
:108AF000FC7FFC7FFC7FFC7FFC7FFC7FFC7FFC7F9E
:108B0000FC7FFC7FFC7FFC7FFC7FFC7FFC7FFC7F8D
:108B1000FC7FFC7FFC7FFC7FFC7FFD7FFD7FFD7F7A
:108B2000FD7FFD7FFD7FFD7FFD7FFD7FFD7FFD7F65
:108B3000FD7FFD7FFD7FFD7FFD7FFD7FFD7FFD7F55
:108B4000FD7FFD7FFD7FFD7FFD7FFD7FFD7FFD7F45
:108B5000FD7FFD7FFD7FFD7FFD7FFD7FFD7FFD7F35
:108B6000FD7FFD7FFE7FFE7FFE7FFE7FFE7FFE7F1F
:108B7000FE7FFE7FFE7FFE7FFE7FFE7FFE7FFE7F0D
:108B8000FE7FFE7FFE7FFE7FFE7FFE7FFE7FFE7FFD
:108B9000FE7FFE7FFE7FFE7FFE7FFE7FFE7FFE7FED
:108BA000FE7FFE7FFE7FFE7FFE7FFE7FFE7FFE7FDD
:108BB000FE7FFE7FFE7FFE7FFE7FFE7FFE7FFE7FCD
:108BC000FE7FFE7FFE7FFE7FFE7FFE7FFE7FFE7FBD
:108BD000FE7FFE7FFE7FFE7FFE7FFE7FFE7FFE7FAD
:108BE000FE7FFE7FFE7FFE7FFE7FFE7FFF7F000019
:108BF0000000000000000000000000000000000075
:108C00000000000001000100020003000400050054
:108C10000600080009000B000E00100013001600EB
:108C200019001D00210025002A00300035003B00FE
:108C3000420049005100590062006B00750080003D
:108C40008B009700A400B100BF00CE00DE00EE0054
:108C500000011201250139014E0163017A019201DF
:108C6000AB01C501E001FC0119023702570277028E
:108C70009902BC02E10207032E0356038003AB03F3
:108C8000D8030604350467049904CE0403053B05A4
:108C90007405AF05EB0529066906AB06EF06340738
:108CA0007C07C50710085D08AC08FE085109A60935
:108CB000FD09570AB30A110B710BD30B380C9F0C2B
:108CC000080D740DE20D530EC60E3B0FB30F2E10A0
:108CD000AB102B11AD113212BA124513D21362141C
:108CE000F5148B152416C0165F170018A5184D191A
:108CF000F819A61A571B0B1CC31C7E1D3C1EFD1E1B
:108D0000C21F8A2056212522F722CD23A72484259D
:108D10006526492731281D290D2A002BF72BF32C16
:108D2000F12DF42EFB2F0631153228333F345A35FE
:108D300079369D37C438F039213B553C8E3DCC3EC9
:108D40000D4054419E42EE4342459A46F7475949E9
:108D5000C04A2B4C9C4D114F8A5009528D531555CA
:108D6000A3563658CE596B5B0D5DB45E60601262DF
:108D7000C963866548670F69DB6AAD6C856E627092
:108D800045722E741C760F78097A087C0E7E198045
:108D9000298240845D868088A98AD88C0D8F48916D
:108DA0008993D1951F98739ACE9C2F9F96A104A466
:108DB00079A6F3A875ABFDAD8CB021B3BEB561B893
:108DC0000ABBBBBD73C031C3F6C5C3C896CB71CE59
:108DD00053D13CD42CD723DA22DD28E035E34AE610
:108DE00066E989ECB4EFE7F222F663F9ADFCFFFF28
:108DF000FFFF00000001FF00FF00FF00FE00FD007C
:108E0000FC00FB00FA00F800F600F500F300F100AA
:108E1000EE00EC00EA00E700E400E200DF00DC0026
:108E2000D900D600D300D000CD00CA00C600C300D0
:108E3000C000BD00BA00B700B300B000AD00AA008A
:108E4000A700A400A1009E009B009800950092003E
:108E500090008D008A0088008500830080007E00DD
:108E60007B00790077007400720070006E006C0067
:108E70006A00680066006400620060005F005D00D8
:108E80005B00590058005600550053005200500036
:108E90004F004D004C004B00490048004700460081
:108EA000450043004200410040003F003E003D00BD
:108EB0003C003B003A0039003800370036003600ED
:108EC00035003400330032003200310030002F0012
:108ED0002F002E002D002D002C002B002B002A002F
:108EE0002900290028002800270027002600260046
:108EF0002500250024002400230023002200220056
:108F0000210021002000200020001F001F001E0063
:108F10001E001E001D001D001D001C001C001C006A
:108F20001B001B001B001A001A001A001900190070
:108F30001900180018001800180017001700170073
:108F40001700160016001600160015001500150073
:108F50001500140014001400140014001300130072
:108F6000130013001300120012001200120012006E
:108F7000120011001100110011001100100010006A
:108F8000100010001000100010000F000F000F0064
:108F90000F000F000F000F000E000E000E000E005D
:108FA0000E000E000E000E000D000D000D000D0055
:108FB0000D000D000D000D000C000C000C000C004D
:108FC0000C000C000C000C000C000C000B000B0043
:108FD0000B000B000B000B000B000B000B000B0039
:108FE0000B000A000A000A000A000A000A000A0030
:108FF0000A000A000A0000000000080070010800D2
:10900000DF0208004D040800B90508002407080025
:109010008E080800F60908005D0B0800C20C080065
:10902000260E0800890F0800EB1008004B120800FC
:10903000AA1308000715080063160800BE170800E9
:1090400018190800711A0800C81B08001E1D080026
:10905000721E0800C61F08001821080069220800B7
:10906000B92308000825080055260800A227080093
:10907000ED280800372A0800802B0800C72C0800BC
:109080000E2E0800532F080098300800DB3108002E
:109090001D3308005E3408009E350800DD360800E8
:1090A0001B38080058390800933A0800CE3B0800E6
:1090B000083D0800403E0800783F0800AE40080028
:1090C000E4410800184308004C4408007E450800AD
:1090D000B0460800E0470800104908003E4A080072
:1090E0006C4B0800984C0800C44D0800EF4E080077
:1090F00019500800415108006952080090530800B7
:10910000B6540800DC550800005708002358080032
:1091100046590800675A0800885B0800A85C0800E8
:10912000C75D0800E55E0800026008001E610800D7
:109130003A620800556308006E64080087650800FD
:10914000A0660800B7670800CD680800E36908005A
:10915000F86A08000C6C08001F6D0800326E0800E9
:10916000436F0800547008006471080074720800AE
:1091700082730800907408009D750800A9760800A5
:10918000B4770800BF780800C9790800D27A0800CF
:10919000DB7B0800E37C0800EA7D0800F07E080025
:1091A000F57F0800FA800800FE81080002830800AD
:1091B000048408000685080008860800088708005F
:1091C0000888080007890800068A0800048B080040
:1091D000018C0800FD8C0800F98D0800F48E080051
:1091E000EF8F0800E8900800E2910800DA9208008A
:1091F000D2930800C9940800C0950800B6960800EC
:10920000AB9708009F98080093990800879A080078
:10921000799B08006C9C08005D9D08004E9E08002C
:109220003E9F08002EA008001DA108000BA2080008
:10923000F9A20800E7A30800D3A40800BFA508000E
:10924000ABA6080096A7080080A808006AA9080035
:1092500053AA08003CAB080024AC08000BAD080082
:10926000F2AD0800D8AE0800BEAF0800A3B00800F9
:1092700088B108006CB2080050B3080033B408008D
:1092800015B50800F7B50800D8B60800B9B708004A
:1092900099B8080079B9080058BA080037BB080027
:1092A00015BC0800F3BC0800D0BD0800ADBE080026
:1092B00089BF080065C0080040C108001AC2080044
:1092C000F5C20800CEC30800A7C4080080C5080086
:1092D00058C6080030C7080007C80800DDC80800E5
:1092E000B3C9080089CA08005ECB080033CC080067
:1092F00007CD0800DBCD0800AECE080081CF080006
:1093000053D0080025D10800F7D10800C8D20800C2
:1093100098D3080068D4080038D5080007D608009C
:10932000D6D60800A4D7080072D808003FD9080094
:109330000CDA0800D8DA0800A4DB080070DC0800AA
:109340003BDD080005DE0800D0DE08009ADF0800DB
:1093500063E008002CE10800F4E10800BCE208002A
:1093600084E308004BE4080012E50800D9E5080092
:109370009FE6080064E7080029E80800EEE8080016
:10938000B3E9080077EA08003AEB0800FDEB0800B3
:10939000C0EC080082ED080044EE080006EF08006B
:1093A000C7EF080088F0080048F1080008F208003C
:1093B000C8F2080087F3080046F4080004F5080026
:1093C000C2F5080080F608003DF70800FAF708002B
:1093D000B7F8080073F908002FFA0800EAFA080045
:1093E000A5FB080060FC08001AFD0800D4FD080079
:1093F0008DFE080047FF080000000900FEFF0EC0B8
:10940000F5B3D9AB92A562A0ED9BFE9777944091FE
:109410004B8E8E8BFE88968651842A821E802B7EF0
:109420004C7C817AC87820778675FA737A720771D6
:109430009E6F406EEB6C9F6B5C6A2069ED67C06647
:109440009A657B6461634E6240613760335F345E6E
:109450003A5D445C535B655A7C599658B457D5566F
:10946000FA5522554D547B53AC52E0511751505090
:109470008D4FCB4E0C4E4F4D954CDD4B274B734AC9
:10948000C24912496448B8470E476646C0451B4565
:109490007844D74337439942FC416141C7402F404C
:1094A000983F033F6E3EDC3D4A3DBA3C2B3C9D3B22
:1094B000103B853AFB397139E9386238DC37573768
:1094C000D4365136CF354E35CE344F34D133543374
:1094D000D7325C32E1316831EF307730FF2F892F9E
:1094E000132F9E2E2A2EB72D442DD22C612CF12B1A
:1094F000812B122BA32A352AC8295C29F02885281C
:109500001A28B0274727DE2676260E26A7254125CE
:10951000DB2475241124AC234923E5228322212254
:10952000BF215E21FD209D203D20DE1F7F1F211FCA
:10953000C31E661E091EAC1D501DF51C991C3F1C48
:10954000E41B8A1B311BD81A7F1A271ACF197719E7
:109550002019CA1873181D18C81773171E17C916B3
:1095600075162116CE157B152815D61483143214C2
:10957000E0138F133E13EE129E124E12FF11AF1125
:1095800061111211C41076102810DB0F8E0F410FDD
:10959000F40EA80E5C0E110EC50D7A0D2F0DE50C04
:1095A0009A0C500C060CBD0B740B2B0BE20A990A9B
:1095B000510A090AC1097A093309EC08A5085E08AD
:1095C0001808D2078C0746070107BC067706320643
:1095D000EE05A90565052105DE049A045704140467
:1095E000D1038F034C030A03C80287024502040219
:1095F000C201810141010001C0007F003F00000065
:10960000360039003C004000440048004C00510046
:1096100055005B00600066006C00720079008000FD
:10962000880090009900A200AB00B600C000CC00FA
:10963000D800E500F30001011001210132014401CD
:1096400057016C0181019801B101CA01E6010302D1
:109650002102420264028802AF02D80203033103EE
:1096600062039503CC03060443048404C904110572
:109670005F05B00507066306C4062B0798070C08AC
:10968000860808099109230ABD0A600B0D0CC50C58
:10969000870D550E2F0F16100A110D121F134214AD
:1096A0007615BB1615188219051B9F1C501E1B2012
:1096B0000122042424266428C52A492DF32FC3320D
:1096C000BD35E238343CB53F694350476E4BC54F1A
:1096D00057542659345EF661F661F661F661F6611B
:1096E000F661F661F661F661F661F661F661F661C2
:1096F000F661F661F661F661F661F661F661F661B2
:10970000F661F661F661F661F661F661F661F661A1
:10971000F661F661F661F661F661F661F661F66191
:10972000F661F661F661F661F661F661F661F66181
:10973000F661F661F661F661F661F661F661F66171
:10974000F661F661F661F661F661F661F661F66161
:10975000F661F661F661F661F661F661F661F66151
:10976000F661F661F661F661F661F661F661F66141
:10977000F661F661F661F661F661F661F661F66131
:10978000F661F661F661F661F661F661F661F66121
:10979000F661F661F661F661F661F661F661F66111
:1097A000F661F661F661F661F661F661F661F66101
:1097B000F661F661F661F661F661F661F661F661F1
:1097C000F661F661F661F661F661F661F661F661E1
:1097D000F661F661F661F661F661F661F661F661D1
:1097E000F661F661F661F661F661F661F661F661C1
:1097F000F661F661F661F661F661F661F661F661B1
:10980000F66100000080008000A0B9B200C04ECA1E
:10981000B9D2D6D900E071E54EEAB4EEB9F26BF6F2
:10982000D6F906FD0000CC027005EF074D0A8D0C3D
:10983000B30EC110B8129A146A162818D519741BE1
:10984000051D881E00206B21CC2223247025B32601
:10985000EF2722294D2A712B8D2CA32DB32EBD2F3E
:10986000C130BF31B832AB339A3484356A364B37A6
:1098700028380039D539A73A743B3E3C053DC83DF0
:10988000883E453F0040B7406B411D42CC42794382
:109890002344CA4470451346B3465247EF478948AC
:1098A0002249B8494D4AE04A714B004C8D4C194D44
:1098B000A34D2C4EB34E394FBD4F3F50C150405178
:1098C000BF513C52B8523253AB5323549A541055A3
:1098D0008455F7556A56DB564B57BA572858945853
:1098E00000596B59D5593E5AA75A0E5B745BDA5B27
:1098F0003E5CA25C055D675DC85D295E885EE75ED3
:10990000455FA35F00605B60B76011616B61C4611C
:109910001D627562CC6223637963CE6323647764CE
:10992000CA641D657065C16513666366B3660367C7
:109930005267A167EF673C688968D66822696D69DC
:10994000B869036A4D6A966AE06A286B716BB86BF6
:10995000006C476C8D6CD46C196D5F6DA36DE86DF8
:109960002C6E706EB36EF66E396F7B6FBD6FFE6FCF
:109970003F708070C170017140718071BF71FD7165
:109980003C727A72B872F57232736F73AB73E773AD
:1099900023745F749A74D57410754A758475BE7596
:1099A000F77531766A76A276DB7613774B77827716
:1099B000BA77F17728785E789478CB780079367921
:1099C0006B79A079D5790A7A3E7A737AA77ADA7AAE
:1099D0000E7B417B747BA77BDA7B0C7C3E7C707CAE
:1099E000A27CD37C057D367D677D987DC87DF87D22
:1099F000297E597E887EB87EE77E167F457F747FFC
:109A0000A37FD17FD17F0000000000000000000094
:109A1000000000000000010001000200030005003A
:109A2000060008000A000D000F00130016001A00BF
:109A30001F00240029002F0035003D0044004C0089
:109A400055005F00690074007F008C009900A7003A
:109A5000B600C500D600E700F9000D01210136016E
:109A60004C0163017C019501AF01CB01E8010602C5
:109A70002502450267028902AD02D302FA022203DF
:109A80004B037603A203D003FF0330046304960460
:109A9000CC0403053B057605B105EF052E066F06E0
:109AA000B206F7063D078507CF071B086908B90806
:109AB0000B095E09B4090C0A650AC10A1F0B7F0B6A
:109AC000E10B450CAC0C150D7F0DED0D5C0ECE0EB3
:109AD000420FB80F3110AC102911A9112C12B1127C
